{
	"data": {
		"bytecode": {
			"linkReferences": {},
			"object": "6101a0604052348015610010575f5ffd5b5060405161609838038061609883398181016040528101906100329190610c64565b6040518060400160405280600d81526020017f536869727573686920436f696e00000000000000000000000000000000000000815250806040518060400160405280600181526020017f31000000000000000000000000000000000000000000000000000000000000008152506040518060400160405280600d81526020017f536869727573686920436f696e000000000000000000000000000000000000008152506040518060400160405280600481526020017f5349534300000000000000000000000000000000000000000000000000000000815250816003908161011a9190610ecc565b50806004908161012a9190610ecc565b50505061014160078361046e60201b90919060201c565b610120818152505061015d60088261046e60201b90919060201c565b6101408181525050818051906020012060e08181525050808051906020012061010081815250504660a0818152505061019a6104bb60201b60201c565b608081815250503073ffffffffffffffffffffffffffffffffffffffff1660c08173ffffffffffffffffffffffffffffffffffffffff16815250505050506001600a81905550670de0b6b3a7640000630bebc2006101f89190610fc8565b6101608181525050670de0b6b3a76400006311e1a3006102189190610fc8565b6101808181525050670de0b6b3a76400006293dd846102379190610fc8565b600b81905550610250816101605161051560201b60201c565b61026281600b5461051560201b60201c565b6102745f5f1b8261059a60201b60201c565b506102a57f65d7a28e3265b37a6474929f336521b332c1681b933f6cb9f3376673440d862a8261059a60201b60201c565b506102d67f92de27771f92d6942691d73358b3a4673e4880de8356f8f2cf452be87e02d3638261059a60201b60201c565b506103077ff996da754c790e95d5c7ca3330cfcad529487fe9d1d8edb7afc65076fdf9adb48261059a60201b60201c565b506103387fa952726ef2588ad078edf35b066f7c7406e207cb0003bbaba8cb53eba9553e728261059a60201b60201c565b506103697fa3f35647c2b3793e7c9389e38d1470ffd389ca0e6275801f484f5c1571e489928261059a60201b60201c565b5080600c5f6101000a81548173ffffffffffffffffffffffffffffffffffffffff021916908373ffffffffffffffffffffffffffffffffffffffff1602179055505f670de0b6b3a76400006127106103c19190610fc8565b90508060125f6107e681526020019081526020015f20819055508060125f60016107e66103ee9190611009565b81526020019081526020015f20819055505f60026107e661040f9190611009565b90505b60646107e66104219190611009565b81101561046657600a6009836104379190610fc8565b6104419190611069565b91508160125f8381526020019081526020015f20819055508080600101915050610412565b5050506112a0565b5f60208351101561048f576104888361069060201b60201c565b90506104b5565b8261049f836106f560201b60201c565b5f0190816104ad9190610ecc565b5060ff5f1b90505b92915050565b5f7f8b73c3c69bb8fe3d512ecc4cf759cc79239f7b179b0ffacaa9a75d522b39400f60e0516101005146306040516020016104fa9594939291906110cf565b60405160208183030381529060405280519060200120905090565b5f73ffffffffffffffffffffffffffffffffffffffff168273ffffffffffffffffffffffffffffffffffffffff1603610585575f6040517fec442f0500000000000000000000000000000000000000000000000000000000815260040161057c9190611120565b60405180910390fd5b6105965f83836106fe60201b60201c565b5050565b5f6105ab838361090260201b60201c565b61068657600160065f8581526020019081526020015f205f015f8473ffffffffffffffffffffffffffffffffffffffff1673ffffffffffffffffffffffffffffffffffffffff1681526020019081526020015f205f6101000a81548160ff02191690831515021790555061062361096660201b60201c565b73ffffffffffffffffffffffffffffffffffffffff168273ffffffffffffffffffffffffffffffffffffffff16847f2f8788117e7eff1d82e926ec794901d17c78024a50270940304540a733656f0d60405160405180910390a46001905061068a565b5f90505b92915050565b5f5f829050601f815111156106dc57826040517f305a27a90000000000000000000000000000000000000000000000000000000081526004016106d3919061119f565b60405180910390fd5b8051816106e8906111ec565b5f1c175f1b915050919050565b5f819050919050565b5f73ffffffffffffffffffffffffffffffffffffffff168373ffffffffffffffffffffffffffffffffffffffff16146107f557600d5f8473ffffffffffffffffffffffffffffffffffffffff1673ffffffffffffffffffffffffffffffffffffffff1681526020019081526020015f205f9054906101000a900460ff16156040518060400160405280601581526020017f46524f5a454e5f53454e4445525f4143434f554e540000000000000000000000815250906107f3576040517f08c379a00000000000000000000000000000000000000000000000000000000081526004016107ea919061119f565b60405180910390fd5b505b5f73ffffffffffffffffffffffffffffffffffffffff168273ffffffffffffffffffffffffffffffffffffffff16146108ec57600d5f8373ffffffffffffffffffffffffffffffffffffffff1673ffffffffffffffffffffffffffffffffffffffff1681526020019081526020015f205f9054906101000a900460ff16156040518060400160405280601881526020017f46524f5a454e5f524543495049454e545f4143434f554e540000000000000000815250906108ea576040517f08c379a00000000000000000000000000000000000000000000000000000000081526004016108e1919061119f565b60405180910390fd5b505b6108fd83838361096d60201b60201c565b505050565b5f60065f8481526020019081526020015f205f015f8373ffffffffffffffffffffffffffffffffffffffff1673ffffffffffffffffffffffffffffffffffffffff1681526020019081526020015f205f9054906101000a900460ff16905092915050565b5f33905090565b61097b61099160201b60201c565b61098c8383836109d860201b60201c565b505050565b61099f610bf160201b60201c565b156109d6576040517fd93c066500000000000000000000000000000000000000000000000000000000815260040160405180910390fd5b565b5f73ffffffffffffffffffffffffffffffffffffffff168373ffffffffffffffffffffffffffffffffffffffff1603610a28578060025f828254610a1c9190611009565b92505081905550610af6565b5f5f5f8573ffffffffffffffffffffffffffffffffffffffff1673ffffffffffffffffffffffffffffffffffffffff1681526020019081526020015f2054905081811015610ab1578381836040517fe450d38c000000000000000000000000000000000000000000000000000000008152600401610aa893929190611252565b60405180910390fd5b8181035f5f8673ffffffffffffffffffffffffffffffffffffffff1673ffffffffffffffffffffffffffffffffffffffff1681526020019081526020015f2081905550505b5f73ffffffffffffffffffffffffffffffffffffffff168273ffffffffffffffffffffffffffffffffffffffff1603610b3d578060025f8282540392505081905550610b87565b805f5f8473ffffffffffffffffffffffffffffffffffffffff1673ffffffffffffffffffffffffffffffffffffffff1681526020019081526020015f205f82825401925050819055505b8173ffffffffffffffffffffffffffffffffffffffff168373ffffffffffffffffffffffffffffffffffffffff167fddf252ad1be2c89b69c2b068fc378daa952ba7f163c4a11628f55a4df523b3ef83604051610be49190611287565b60405180910390a3505050565b5f60055f9054906101000a900460ff16905090565b5f5ffd5b5f73ffffffffffffffffffffffffffffffffffffffff82169050919050565b5f610c3382610c0a565b9050919050565b610c4381610c29565b8114610c4d575f5ffd5b50565b5f81519050610c5e81610c3a565b92915050565b5f60208284031215610c7957610c78610c06565b5b5f610c8684828501610c50565b91505092915050565b5f81519050919050565b7f4e487b71000000000000000000000000000000000000000000000000000000005f52604160045260245ffd5b7f4e487b71000000000000000000000000000000000000000000000000000000005f52602260045260245ffd5b5f6002820490506001821680610d0a57607f821691505b602082108103610d1d57610d1c610cc6565b5b50919050565b5f819050815f5260205f209050919050565b5f6020601f8301049050919050565b5f82821b905092915050565b5f60088302610d7f7fffffffffffffffffffffffffffffffffffffffffffffffffffffffffffffffff82610d44565b610d898683610d44565b95508019841693508086168417925050509392505050565b5f819050919050565b5f819050919050565b5f610dcd610dc8610dc384610da1565b610daa565b610da1565b9050919050565b5f819050919050565b610de683610db3565b610dfa610df282610dd4565b848454610d50565b825550505050565b5f5f905090565b610e11610e02565b610e1c818484610ddd565b505050565b5b81811015610e3f57610e345f82610e09565b600181019050610e22565b5050565b601f821115610e8457610e5581610d23565b610e5e84610d35565b81016020851015610e6d578190505b610e81610e7985610d35565b830182610e21565b50505b505050565b5f82821c905092915050565b5f610ea45f1984600802610e89565b1980831691505092915050565b5f610ebc8383610e95565b9150826002028217905092915050565b610ed582610c8f565b67ffffffffffffffff811115610eee57610eed610c99565b5b610ef88254610cf3565b610f03828285610e43565b5f60209050601f831160018114610f34575f8415610f22578287015190505b610f2c8582610eb1565b865550610f93565b601f198416610f4286610d23565b5f5b82811015610f6957848901518255600182019150602085019450602081019050610f44565b86831015610f865784890151610f82601f891682610e95565b8355505b6001600288020188555050505b505050505050565b7f4e487b71000000000000000000000000000000000000000000000000000000005f52601160045260245ffd5b5f610fd282610da1565b9150610fdd83610da1565b9250828202610feb81610da1565b9150828204841483151761100257611001610f9b565b5b5092915050565b5f61101382610da1565b915061101e83610da1565b925082820190508082111561103657611035610f9b565b5b92915050565b7f4e487b71000000000000000000000000000000000000000000000000000000005f52601260045260245ffd5b5f61107382610da1565b915061107e83610da1565b92508261108e5761108d61103c565b5b828204905092915050565b5f819050919050565b6110ab81611099565b82525050565b6110ba81610da1565b82525050565b6110c981610c29565b82525050565b5f60a0820190506110e25f8301886110a2565b6110ef60208301876110a2565b6110fc60408301866110a2565b61110960608301856110b1565b61111660808301846110c0565b9695505050505050565b5f6020820190506111335f8301846110c0565b92915050565b5f82825260208201905092915050565b8281835e5f83830152505050565b5f601f19601f8301169050919050565b5f61117182610c8f565b61117b8185611139565b935061118b818560208601611149565b61119481611157565b840191505092915050565b5f6020820190508181035f8301526111b78184611167565b905092915050565b5f81519050919050565b5f819050602082019050919050565b5f6111e38251611099565b80915050919050565b5f6111f6826111bf565b82611200846111c9565b905061120b816111d8565b9250602082101561124b576112467fffffffffffffffffffffffffffffffffffffffffffffffffffffffffffffffff83602003600802610d44565b831692505b5050919050565b5f6060820190506112655f8301866110c0565b61127260208301856110b1565b61127f60408301846110b1565b949350505050565b5f60208201905061129a5f8301846110b1565b92915050565b60805160a05160c05160e0516101005161012051610140516101605161018051614d856113135f395f81816119a40152818161235e015261255701525f6114e601525f612f9501525f612f5a01525f61372101525f61370001525f612a4501525f612a9b01525f612ac40152614d855ff3fe608060405234801561000f575f5ffd5b5060043610610325575f3560e01c80634000aea0116101b657806395d89b4111610102578063d5abeb01116100a0578063e58306f91161007a578063e58306f9146109c9578063f476f399146109e5578063f92740a014610a03578063ffa1ad7414610a2157610325565b8063d5abeb011461094b578063d8fbe99414610969578063dd62ed3e1461099957610325565b8063c1d34b89116100dc578063c1d34b89146108b3578063cae9ca51146108e3578063d505accf14610913578063d547741f1461092f57610325565b806395d89b4114610847578063a217fddf14610865578063a9059cbb1461088357610325565b806370a082311161016f5780638456cb59116101495780638456cb59146107cd57806384b0196e146107d75780638d1fdf2f146107fb57806391d148541461081757610325565b806370a082311461075157806379cc6790146107815780637ecebe001461079d57610325565b80634000aea01461069357806342966c68146106c357806345c8b1a6146106df5780634d474898146106fb5780635a62d5ca146107175780635c975abb1461073357610325565b80632487c1c01161027557806333fdbbe51161022e578063378dc3dc11610208578063378dc3dc1461061d5780633a6eb3181461063b5780633bbb5ee81461066b5780633f4ba83a1461068957610325565b806333fdbbe5146105c55780633644e515146105e357806336568abe1461060157610325565b80632487c1c0146104ef578063248a9ca31461050d57806325c2f2301461053d5780632f2ff15d1461055b578063313ce567146105775780633177029f1461059557610325565b806309b7da7b116102e25780631cc8c0ee116102bc5780631cc8c0ee146104695780631e89d5451461048557806321395c02146104a157806323b872dd146104bf57610325565b806309b7da7b146103fd5780631296ee621461041b57806318160ddd1461044b57610325565b8063010287551461032957806301cf1e9a1461034757806301ffc9a71461036357806306dd04191461039357806306fdde03146103af578063095ea7b3146103cd575b5f5ffd5b610331610a3f565b60405161033e9190613e9a565b60405180910390f35b610361600480360381019061035c9190613f1e565b610a45565b005b61037d60048036038101906103789190613f9e565b610bbd565b60405161038a9190613fe3565b60405180910390f35b6103ad60048036038101906103a89190614026565b610bce565b005b6103b7610d90565b6040516103c491906140d4565b60405180910390f35b6103e760048036038101906103e29190614026565b610e20565b6040516103f49190613fe3565b60405180910390f35b610405610e42565b6040516104129190613e9a565b60405180910390f35b61043560048036038101906104309190614026565b610e48565b6040516104429190613fe3565b60405180910390f35b610453610e6a565b6040516104609190613e9a565b60405180910390f35b610483600480360381019061047e9190614127565b610e73565b005b61049f600480360381019061049a9190614208565b610f71565b005b6104a96113a7565b6040516104b69190613e9a565b60405180910390f35b6104d960048036038101906104d49190614286565b6113ad565b6040516104e69190613fe3565b60405180910390f35b6104f76113db565b6040516105049190613e9a565b60405180910390f35b61052760048036038101906105229190614127565b6113e1565b60405161053491906142e5565b60405180910390f35b6105456113fe565b6040516105529190613e9a565b60405180910390f35b610575600480360381019061057091906142fe565b611403565b005b61057f611425565b60405161058c9190614357565b60405180910390f35b6105af60048036038101906105aa9190614026565b61142d565b6040516105bc9190613fe3565b60405180910390f35b6105cd61144f565b6040516105da9190613e9a565b60405180910390f35b6105eb61145b565b6040516105f891906142e5565b60405180910390f35b61061b600480360381019061061691906142fe565b611469565b005b6106256114e4565b6040516106329190613e9a565b60405180910390f35b61065560048036038101906106509190614370565b611508565b6040516106629190613e9a565b60405180910390f35b61067361161e565b6040516106809190613e9a565b60405180910390f35b610691611624565b005b6106ad60048036038101906106a891906144c3565b611659565b6040516106ba9190613fe3565b60405180910390f35b6106dd60048036038101906106d89190614370565b6116cd565b005b6106f960048036038101906106f49190613f1e565b6116e1565b005b61071560048036038101906107109190614370565b611859565b005b610731600480360381019061072c919061452f565b611bfa565b005b61073b611d1d565b6040516107489190613fe3565b60405180910390f35b61076b60048036038101906107669190613f1e565b611d32565b6040516107789190613e9a565b60405180910390f35b61079b60048036038101906107969190614026565b611d77565b005b6107b760048036038101906107b29190613f1e565b611d97565b6040516107c49190613e9a565b60405180910390f35b6107d5611da8565b005b6107df611ddd565b6040516107f2979695949392919061466d565b60405180910390f35b61081560048036038101906108109190613f1e565b611e82565b005b610831600480360381019061082c91906142fe565b611ffc565b60405161083e9190613fe3565b60405180910390f35b61084f612060565b60405161085c91906140d4565b60405180910390f35b61086d6120f0565b60405161087a91906142e5565b60405180910390f35b61089d60048036038101906108989190614026565b6120f6565b6040516108aa9190613fe3565b60405180910390f35b6108cd60048036038101906108c891906146ef565b612118565b6040516108da9190613fe3565b60405180910390f35b6108fd60048036038101906108f891906144c3565b612189565b60405161090a9190613fe3565b60405180910390f35b61092d60048036038101906109289190614799565b6121f5565b005b610949600480360381019061094491906142fe565b61233a565b005b61095361235c565b6040516109609190613e9a565b60405180910390f35b610983600480360381019061097e9190614286565b612380565b6040516109909190613fe3565b60405180910390f35b6109b360048036038101906109ae9190614836565b6123a4565b6040516109c09190613e9a565b60405180910390f35b6109e360048036038101906109de9190614026565b612426565b005b6109ed612612565b6040516109fa91906142e5565b60405180910390f35b610a0b612618565b604051610a189190613e9a565b60405180910390f35b610a2961261e565b604051610a3691906140d4565b60405180910390f35b600f5481565b5f5f1b610a5181612657565b5f73ffffffffffffffffffffffffffffffffffffffff168273ffffffffffffffffffffffffffffffffffffffff1614156040518060400160405280600c81526020017f5a45524f5f41444452455353000000000000000000000000000000000000000081525090610af8576040517f08c379a0000000000000000000000000000000000000000000000000000000008152600401610aef91906140d4565b60405180910390fd5b505f600c5f9054906101000a900473ffffffffffffffffffffffffffffffffffffffff16905082600c5f6101000a81548173ffffffffffffffffffffffffffffffffffffffff021916908373ffffffffffffffffffffffffffffffffffffffff1602179055508273ffffffffffffffffffffffffffffffffffffffff168173ffffffffffffffffffffffffffffffffffffffff167fa193c016aaa1a76276af93fb2072d90d99de0a14eee4ad76a9cae4299397bf3d60405160405180910390a3505050565b5f610bc78261266b565b9050919050565b5f5f1b610bda81612657565b5f82116040518060400160405280600b81526020017f414d4f554e545f5a45524f00000000000000000000000000000000000000000081525090610c54576040517f08c379a0000000000000000000000000000000000000000000000000000000008152600401610c4b91906140d4565b60405180910390fd5b505f73ffffffffffffffffffffffffffffffffffffffff168373ffffffffffffffffffffffffffffffffffffffff1614156040518060400160405280600c81526020017f5a45524f5f41444452455353000000000000000000000000000000000000000081525090610cfc576040517f08c379a0000000000000000000000000000000000000000000000000000000008152600401610cf391906140d4565b60405180910390fd5b5081610d0784611d32565b10156040518060400160405280601481526020017f494e53554646494349454e545f42414c414e434500000000000000000000000081525090610d80576040517f08c379a0000000000000000000000000000000000000000000000000000000008152600401610d7791906140d4565b60405180910390fd5b50610d8b83836126e4565b505050565b606060038054610d9f906148a1565b80601f0160208091040260200160405190810160405280929190818152602001828054610dcb906148a1565b8015610e165780601f10610ded57610100808354040283529160200191610e16565b820191905f5260205f20905b815481529060010190602001808311610df957829003601f168201915b5050505050905090565b5f5f610e2a612763565b9050610e3781858561276a565b600191505092915050565b60105481565b5f610e62838360405180602001604052805f815250611659565b905092915050565b5f600254905090565b7ff996da754c790e95d5c7ca3330cfcad529487fe9d1d8edb7afc65076fdf9adb4610e9d81612657565b5f5f1b8214156040518060400160405280600e81526020017f494e56414c49445f4e554d42455200000000000000000000000000000000000081525090610f1a576040517f08c379a0000000000000000000000000000000000000000000000000000000008152600401610f1191906140d4565b60405180910390fd5b50813373ffffffffffffffffffffffffffffffffffffffff167fdad5c553aeafc181b192288eebd4c0c8cef3a1429afcfdadc6772a123125516960405160405180910390a342601081905550816011819055505050565b610f7961277c565b7fa3f35647c2b3793e7c9389e38d1470ffd389ca0e6275801f484f5c1571e48992610fa381612657565b60648585905011156040518060400160405280601881526020017f455843454544494e475f3130305f524543495049454e5453000000000000000081525090611022576040517f08c379a000000000000000000000000000000000000000000000000000000000815260040161101991906140d4565b60405180910390fd5b5060648383905011156040518060400160405280601581526020017f455843454544494e475f3130305f414d4f554e54530000000000000000000000815250906110a2576040517f08c379a000000000000000000000000000000000000000000000000000000000815260040161109991906140d4565b60405180910390fd5b508282905085859050146040518060400160405280600f81526020017f4c454e4754485f4d49534d41544348000000000000000000000000000000000081525090611123576040517f08c379a000000000000000000000000000000000000000000000000000000000815260040161111a91906140d4565b60405180910390fd5b505f5f90505f5f90505b8686905081101561125657600d5f88888481811061114e5761114d6148d1565b5b90506020020160208101906111639190613f1e565b73ffffffffffffffffffffffffffffffffffffffff1673ffffffffffffffffffffffffffffffffffffffff1681526020019081526020015f205f9054906101000a900460ff16156040518060400160405280601881526020017f46524f5a454e5f524543495049454e545f4143434f554e54000000000000000081525090611221576040517f08c379a000000000000000000000000000000000000000000000000000000000815260040161121891906140d4565b60405180910390fd5b50848482818110611235576112346148d1565b5b9050602002013582611247919061492b565b9150808060010191505061112d565b508061126133611d32565b10156040518060400160405280601481526020017f494e53554646494349454e545f42414c414e4345000000000000000000000000815250906112da576040517f08c379a00000000000000000000000000000000000000000000000000000000081526004016112d191906140d4565b60405180910390fd5b505f5f90505b868690508110156113435761133633888884818110611302576113016148d1565b5b90506020020160208101906113179190613f1e565b87878581811061132a576113296148d1565b5b905060200201356127cb565b80806001019150506112e0565b503373ffffffffffffffffffffffffffffffffffffffff167fac9e476421531db3994cf6e11f9a106a29143264dadb5bc903cb8092e0f68d43878790508360405161138f92919061495e565b60405180910390a250506113a16128bb565b50505050565b600b5481565b5f5f6113b7612763565b90506113c48582856128c5565b6113cf8585856127cb565b60019150509392505050565b600e5481565b5f60065f8381526020019081526020015f20600101549050919050565b600981565b61140c826113e1565b61141581612657565b61141f8383612958565b50505050565b5f6012905090565b5f611447838360405180602001604052805f815250612189565b905092915050565b670de0b6b3a764000081565b5f611464612a42565b905090565b611471612763565b73ffffffffffffffffffffffffffffffffffffffff168173ffffffffffffffffffffffffffffffffffffffff16146114d5576040517f6697b23200000000000000000000000000000000000000000000000000000000815260040160405180910390fd5b6114df8282612af8565b505050565b7f000000000000000000000000000000000000000000000000000000000000000081565b5f6107e68210156040518060400160405280600e81526020017f494e56414c49445f4e554d42455200000000000000000000000000000000000081525090611586576040517f08c379a000000000000000000000000000000000000000000000000000000000815260040161157d91906140d4565b60405180910390fd5b5061270f8211156040518060400160405280600e81526020017f494e56414c49445f4e554d42455200000000000000000000000000000000000081525090611604576040517f08c379a00000000000000000000000000000000000000000000000000000000081526004016115fb91906140d4565b60405180910390fd5b5060125f8381526020019081526020015f20549050919050565b61271081565b7f65d7a28e3265b37a6474929f336521b332c1681b933f6cb9f3376673440d862a61164e81612657565b611656612be2565b50565b5f61166484846120f6565b6116a75783836040517f231b03ae00000000000000000000000000000000000000000000000000000000815260040161169e929190614985565b60405180910390fd5b6116c26116b2612763565b6116ba612763565b868686612c43565b600190509392505050565b6116de6116d8612763565b826126e4565b50565b7f92de27771f92d6942691d73358b3a4673e4880de8356f8f2cf452be87e02d36361170b81612657565b5f73ffffffffffffffffffffffffffffffffffffffff168273ffffffffffffffffffffffffffffffffffffffff1614156040518060400160405280600c81526020017f5a45524f5f414444524553530000000000000000000000000000000000000000815250906117b2576040517f08c379a00000000000000000000000000000000000000000000000000000000081526004016117a991906140d4565b60405180910390fd5b505f600d5f8473ffffffffffffffffffffffffffffffffffffffff1673ffffffffffffffffffffffffffffffffffffffff1681526020019081526020015f205f6101000a81548160ff0219169083151502179055508173ffffffffffffffffffffffffffffffffffffffff167fa33e6b076d391e96626483b30e365719f79f1d6594aff6587649ffd6c82ed7fa5f60405161184d9190613fe3565b60405180910390a25050565b7fa952726ef2588ad078edf35b066f7c7406e207cb0003bbaba8cb53eba9553e7261188381612657565b61188b61277c565b5f42905062014370600e54826118a191906149ac565b10156040518060400160405280600f81526020017f434f4f4c444f574e5f504552494f4400000000000000000000000000000000008152509061191a576040517f08c379a000000000000000000000000000000000000000000000000000000000815260040161191191906140d4565b60405180910390fd5b505f61192584611508565b90505f81116040518060400160405280600e81526020017f494e56414c49445f4e554d424552000000000000000000000000000000000000815250906119a1576040517f08c379a000000000000000000000000000000000000000000000000000000000815260040161199891906140d4565b60405180910390fd5b507f0000000000000000000000000000000000000000000000000000000000000000816119cc610e6a565b6119d6919061492b565b11156040518060400160405280601481526020017f455843454544494e475f4d41585f535550504c5900000000000000000000000081525090611a4f576040517f08c379a0000000000000000000000000000000000000000000000000000000008152600401611a4691906140d4565b60405180910390fd5b505f73ffffffffffffffffffffffffffffffffffffffff16600c5f9054906101000a900473ffffffffffffffffffffffffffffffffffffffff1673ffffffffffffffffffffffffffffffffffffffff1614156040518060400160405280600c81526020017f5a45524f5f41444452455353000000000000000000000000000000000000000081525090611b18576040517f08c379a0000000000000000000000000000000000000000000000000000000008152600401611b0f91906140d4565b60405180910390fd5b5081600e8190555080600f81905550611b52600c5f9054906101000a900473ffffffffffffffffffffffffffffffffffffffff1682612e2a565b80600b54611b60919061492b565b600b81905550600c5f9054906101000a900473ffffffffffffffffffffffffffffffffffffffff1673ffffffffffffffffffffffffffffffffffffffff163373ffffffffffffffffffffffffffffffffffffffff167fa20fbb25f26678cfc136bb1b9e6d0f7747c01a6b211d070ec4aca3a975e074c683604051611be49190613e9a565b60405180910390a35050611bf66128bb565b5050565b5f5f1b611c0681612657565b6107e68310156040518060400160405280600e81526020017f494e56414c49445f4e554d42455200000000000000000000000000000000000081525090611c83576040517f08c379a0000000000000000000000000000000000000000000000000000000008152600401611c7a91906140d4565b60405180910390fd5b5061270f8311156040518060400160405280600e81526020017f494e56414c49445f4e554d42455200000000000000000000000000000000000081525090611d01576040517f08c379a0000000000000000000000000000000000000000000000000000000008152600401611cf891906140d4565b60405180910390fd5b508160125f8581526020019081526020015f2081905550505050565b5f60055f9054906101000a900460ff16905090565b5f5f5f8373ffffffffffffffffffffffffffffffffffffffff1673ffffffffffffffffffffffffffffffffffffffff1681526020019081526020015f20549050919050565b611d8982611d83612763565b836128c5565b611d9382826126e4565b5050565b5f611da182612ea9565b9050919050565b7f65d7a28e3265b37a6474929f336521b332c1681b933f6cb9f3376673440d862a611dd281612657565b611dda612eef565b50565b5f6060805f5f5f6060611dee612f51565b611df6612f8c565b46305f5f1b5f67ffffffffffffffff811115611e1557611e1461439f565b5b604051908082528060200260200182016040528015611e435781602001602082028036833780820191505090505b507f0f00000000000000000000000000000000000000000000000000000000000000959493929190965096509650965096509650965090919293949596565b7f92de27771f92d6942691d73358b3a4673e4880de8356f8f2cf452be87e02d363611eac81612657565b5f73ffffffffffffffffffffffffffffffffffffffff168273ffffffffffffffffffffffffffffffffffffffff1614156040518060400160405280600c81526020017f5a45524f5f41444452455353000000000000000000000000000000000000000081525090611f53576040517f08c379a0000000000000000000000000000000000000000000000000000000008152600401611f4a91906140d4565b60405180910390fd5b506001600d5f8473ffffffffffffffffffffffffffffffffffffffff1673ffffffffffffffffffffffffffffffffffffffff1681526020019081526020015f205f6101000a81548160ff0219169083151502179055508173ffffffffffffffffffffffffffffffffffffffff167fa33e6b076d391e96626483b30e365719f79f1d6594aff6587649ffd6c82ed7fa6001604051611ff09190613fe3565b60405180910390a25050565b5f60065f8481526020019081526020015f205f015f8373ffffffffffffffffffffffffffffffffffffffff1673ffffffffffffffffffffffffffffffffffffffff1681526020019081526020015f205f9054906101000a900460ff16905092915050565b60606004805461206f906148a1565b80601f016020809104026020016040519081016040528092919081815260200182805461209b906148a1565b80156120e65780601f106120bd576101008083540402835291602001916120e6565b820191905f5260205f20905b8154815290600101906020018083116120c957829003601f168201915b5050505050905090565b5f5f1b81565b5f5f612100612763565b905061210d8185856127cb565b600191505092915050565b5f6121248585856113ad565b612169578484846040517fb56855e6000000000000000000000000000000000000000000000000000000008152600401612160939291906149df565b60405180910390fd5b61217d612174612763565b86868686612c43565b60019050949350505050565b5f6121948484610e20565b6121d75783836040517f50e555c40000000000000000000000000000000000000000000000000000000081526004016121ce929190614985565b60405180910390fd5b6121ea6121e2612763565b858585612fc7565b600190509392505050565b8342111561223a57836040517f627913020000000000000000000000000000000000000000000000000000000081526004016122319190613e9a565b60405180910390fd5b5f7f6e71edae12b1b97f4d1f60370fef10105fa2faae0126114a169c64845d6126c98888886122688c6131ab565b8960405160200161227e96959493929190614a14565b6040516020818303038152906040528051906020012090505f6122a0826131fe565b90505f6122af82878787613217565b90508973ffffffffffffffffffffffffffffffffffffffff168173ffffffffffffffffffffffffffffffffffffffff161461232357808a6040517f4b800e4600000000000000000000000000000000000000000000000000000000815260040161231a929190614a73565b60405180910390fd5b61232e8a8a8a61276a565b50505050505050505050565b612343826113e1565b61234c81612657565b6123568383612af8565b50505050565b7f000000000000000000000000000000000000000000000000000000000000000081565b5f61239b84848460405180602001604052805f815250612118565b90509392505050565b5f60015f8473ffffffffffffffffffffffffffffffffffffffff1673ffffffffffffffffffffffffffffffffffffffff1681526020019081526020015f205f8373ffffffffffffffffffffffffffffffffffffffff1673ffffffffffffffffffffffffffffffffffffffff1681526020019081526020015f2054905092915050565b5f5f1b61243281612657565b5f82116040518060400160405280600b81526020017f414d4f554e545f5a45524f000000000000000000000000000000000000000000815250906124ac576040517f08c379a00000000000000000000000000000000000000000000000000000000081526004016124a391906140d4565b60405180910390fd5b505f73ffffffffffffffffffffffffffffffffffffffff168373ffffffffffffffffffffffffffffffffffffffff1614156040518060400160405280600c81526020017f5a45524f5f41444452455353000000000000000000000000000000000000000081525090612554576040517f08c379a000000000000000000000000000000000000000000000000000000000815260040161254b91906140d4565b60405180910390fd5b507f00000000000000000000000000000000000000000000000000000000000000008261257f610e6a565b612589919061492b565b11156040518060400160405280601481526020017f455843454544494e475f4d41585f535550504c5900000000000000000000000081525090612602576040517f08c379a00000000000000000000000000000000000000000000000000000000081526004016125f991906140d4565b60405180910390fd5b5061260d8383612e2a565b505050565b60115481565b6107e681565b6040518060400160405280600481526020017f322e30300000000000000000000000000000000000000000000000000000000081525081565b61266881612663612763565b613245565b50565b5f7fb0202a11000000000000000000000000000000000000000000000000000000007bffffffffffffffffffffffffffffffffffffffffffffffffffffffff1916827bffffffffffffffffffffffffffffffffffffffffffffffffffffffff191614806126dd57506126dc82613296565b5b9050919050565b5f73ffffffffffffffffffffffffffffffffffffffff168273ffffffffffffffffffffffffffffffffffffffff1603612754575f6040517f96c6fd1e00000000000000000000000000000000000000000000000000000000815260040161274b9190614a9a565b60405180910390fd5b61275f825f8361330f565b5050565b5f33905090565b612777838383600161350d565b505050565b6002600a54036127c1576040517f08c379a00000000000000000000000000000000000000000000000000000000081526004016127b890614afd565b60405180910390fd5b6002600a81905550565b5f73ffffffffffffffffffffffffffffffffffffffff168373ffffffffffffffffffffffffffffffffffffffff160361283b575f6040517f96c6fd1e0000000000000000000000000000000000000000000000000000000081526004016128329190614a9a565b60405180910390fd5b5f73ffffffffffffffffffffffffffffffffffffffff168273ffffffffffffffffffffffffffffffffffffffff16036128ab575f6040517fec442f050000000000000000000000000000000000000000000000000000000081526004016128a29190614a9a565b60405180910390fd5b6128b683838361330f565b505050565b6001600a81905550565b5f6128d084846123a4565b90507fffffffffffffffffffffffffffffffffffffffffffffffffffffffffffffffff8110156129525781811015612943578281836040517ffb8f41b200000000000000000000000000000000000000000000000000000000815260040161293a93929190614b1b565b60405180910390fd5b61295184848484035f61350d565b5b50505050565b5f6129638383611ffc565b612a3857600160065f8581526020019081526020015f205f015f8473ffffffffffffffffffffffffffffffffffffffff1673ffffffffffffffffffffffffffffffffffffffff1681526020019081526020015f205f6101000a81548160ff0219169083151502179055506129d5612763565b73ffffffffffffffffffffffffffffffffffffffff168273ffffffffffffffffffffffffffffffffffffffff16847f2f8788117e7eff1d82e926ec794901d17c78024a50270940304540a733656f0d60405160405180910390a460019050612a3c565b5f90505b92915050565b5f7f000000000000000000000000000000000000000000000000000000000000000073ffffffffffffffffffffffffffffffffffffffff163073ffffffffffffffffffffffffffffffffffffffff16148015612abd57507f000000000000000000000000000000000000000000000000000000000000000046145b15612aea577f00000000000000000000000000000000000000000000000000000000000000009050612af5565b612af26136dc565b90505b90565b5f612b038383611ffc565b15612bd8575f60065f8581526020019081526020015f205f015f8473ffffffffffffffffffffffffffffffffffffffff1673ffffffffffffffffffffffffffffffffffffffff1681526020019081526020015f205f6101000a81548160ff021916908315150217905550612b75612763565b73ffffffffffffffffffffffffffffffffffffffff168273ffffffffffffffffffffffffffffffffffffffff16847ff6391f5c32d9c69d2a47ea670b442974b53935d1edc7fd64eb21e047a839171b60405160405180910390a460019050612bdc565b5f90505b92915050565b612bea613771565b5f60055f6101000a81548160ff0219169083151502179055507f5db9ee0a495bf2e6ff9c91a7834c1ba4fdd244a5e8aa4e537bd38aeae4b073aa612c2c612763565b604051612c399190614a9a565b60405180910390a1565b5f8373ffffffffffffffffffffffffffffffffffffffff163b03612c9e57826040517f8a96cd9c000000000000000000000000000000000000000000000000000000008152600401612c959190614a9a565b60405180910390fd5b8273ffffffffffffffffffffffffffffffffffffffff166388a7ca5c868685856040518563ffffffff1660e01b8152600401612cdd9493929190614ba2565b6020604051808303815f875af1925050508015612d1857506040513d601f19601f82011682018060405250810190612d159190614c00565b60015b612d99573d805f8114612d46576040519150601f19603f3d011682016040523d82523d5f602084013e612d4b565b606091505b505f815103612d9157836040517f8a96cd9c000000000000000000000000000000000000000000000000000000008152600401612d889190614a9a565b60405180910390fd5b805160208201fd5b6388a7ca5c60e01b7bffffffffffffffffffffffffffffffffffffffffffffffffffffffff1916817bffffffffffffffffffffffffffffffffffffffffffffffffffffffff191614612e2257836040517f8a96cd9c000000000000000000000000000000000000000000000000000000008152600401612e199190614a9a565b60405180910390fd5b505050505050565b5f73ffffffffffffffffffffffffffffffffffffffff168273ffffffffffffffffffffffffffffffffffffffff1603612e9a575f6040517fec442f05000000000000000000000000000000000000000000000000000000008152600401612e919190614a9a565b60405180910390fd5b612ea55f838361330f565b5050565b5f60095f8373ffffffffffffffffffffffffffffffffffffffff1673ffffffffffffffffffffffffffffffffffffffff1681526020019081526020015f20549050919050565b612ef76137b1565b600160055f6101000a81548160ff0219169083151502179055507f62e78cea01bee320cd4e420270b5ea74000d11b0c9f74754ebdbfc544b05a258612f3a612763565b604051612f479190614a9a565b60405180910390a1565b6060612f8760077f00000000000000000000000000000000000000000000000000000000000000006137f290919063ffffffff16565b905090565b6060612fc260087f00000000000000000000000000000000000000000000000000000000000000006137f290919063ffffffff16565b905090565b5f8373ffffffffffffffffffffffffffffffffffffffff163b0361302257826040517fdeb6d3ed0000000000000000000000000000000000000000000000000000000081526004016130199190614a9a565b60405180910390fd5b8273ffffffffffffffffffffffffffffffffffffffff16637b04a2d08584846040518463ffffffff1660e01b815260040161305f93929190614c2b565b6020604051808303815f875af192505050801561309a57506040513d601f19601f820116820180604052508101906130979190614c00565b60015b61311b573d805f81146130c8576040519150601f19603f3d011682016040523d82523d5f602084013e6130cd565b606091505b505f81510361311357836040517fdeb6d3ed00000000000000000000000000000000000000000000000000000000815260040161310a9190614a9a565b60405180910390fd5b805160208201fd5b637b04a2d060e01b7bffffffffffffffffffffffffffffffffffffffffffffffffffffffff1916817bffffffffffffffffffffffffffffffffffffffffffffffffffffffff1916146131a457836040517fdeb6d3ed00000000000000000000000000000000000000000000000000000000815260040161319b9190614a9a565b60405180910390fd5b5050505050565b5f60095f8373ffffffffffffffffffffffffffffffffffffffff1673ffffffffffffffffffffffffffffffffffffffff1681526020019081526020015f205f815480929190600101919050559050919050565b5f61321061320a612a42565b8361389f565b9050919050565b5f5f5f5f613227888888886138df565b92509250925061323782826139c6565b829350505050949350505050565b61324f8282611ffc565b6132925780826040517fe2517d3f000000000000000000000000000000000000000000000000000000008152600401613289929190614c67565b60405180910390fd5b5050565b5f7f7965db0b000000000000000000000000000000000000000000000000000000007bffffffffffffffffffffffffffffffffffffffffffffffffffffffff1916827bffffffffffffffffffffffffffffffffffffffffffffffffffffffff19161480613308575061330782613b28565b5b9050919050565b5f73ffffffffffffffffffffffffffffffffffffffff168373ffffffffffffffffffffffffffffffffffffffff161461340657600d5f8473ffffffffffffffffffffffffffffffffffffffff1673ffffffffffffffffffffffffffffffffffffffff1681526020019081526020015f205f9054906101000a900460ff16156040518060400160405280601581526020017f46524f5a454e5f53454e4445525f4143434f554e54000000000000000000000081525090613404576040517f08c379a00000000000000000000000000000000000000000000000000000000081526004016133fb91906140d4565b60405180910390fd5b505b5f73ffffffffffffffffffffffffffffffffffffffff168273ffffffffffffffffffffffffffffffffffffffff16146134fd57600d5f8373ffffffffffffffffffffffffffffffffffffffff1673ffffffffffffffffffffffffffffffffffffffff1681526020019081526020015f205f9054906101000a900460ff16156040518060400160405280601881526020017f46524f5a454e5f524543495049454e545f4143434f554e540000000000000000815250906134fb576040517f08c379a00000000000000000000000000000000000000000000000000000000081526004016134f291906140d4565b60405180910390fd5b505b613508838383613b91565b505050565b5f73ffffffffffffffffffffffffffffffffffffffff168473ffffffffffffffffffffffffffffffffffffffff160361357d575f6040517fe602df050000000000000000000000000000000000000000000000000000000081526004016135749190614a9a565b60405180910390fd5b5f73ffffffffffffffffffffffffffffffffffffffff168373ffffffffffffffffffffffffffffffffffffffff16036135ed575f6040517f94280d620000000000000000000000000000000000000000000000000000000081526004016135e49190614a9a565b60405180910390fd5b8160015f8673ffffffffffffffffffffffffffffffffffffffff1673ffffffffffffffffffffffffffffffffffffffff1681526020019081526020015f205f8573ffffffffffffffffffffffffffffffffffffffff1673ffffffffffffffffffffffffffffffffffffffff1681526020019081526020015f208190555080156136d6578273ffffffffffffffffffffffffffffffffffffffff168473ffffffffffffffffffffffffffffffffffffffff167f8c5be1e5ebec7d5bd14f71427d1e84f3dd0314c0f7b2291e5b200ac8c7c3b925846040516136cd9190613e9a565b60405180910390a35b50505050565b5f7f8b73c3c69bb8fe3d512ecc4cf759cc79239f7b179b0ffacaa9a75d522b39400f7f00000000000000000000000000000000000000000000000000000000000000007f00000000000000000000000000000000000000000000000000000000000000004630604051602001613756959493929190614c8e565b60405160208183030381529060405280519060200120905090565b613779611d1d565b6137af576040517f8dfc202b00000000000000000000000000000000000000000000000000000000815260040160405180910390fd5b565b6137b9611d1d565b156137f0576040517fd93c066500000000000000000000000000000000000000000000000000000000815260040160405180910390fd5b565b606060ff5f1b831461380e5761380783613ba9565b9050613899565b81805461381a906148a1565b80601f0160208091040260200160405190810160405280929190818152602001828054613846906148a1565b80156138915780601f1061386857610100808354040283529160200191613891565b820191905f5260205f20905b81548152906001019060200180831161387457829003601f168201915b505050505090505b92915050565b5f6040517f190100000000000000000000000000000000000000000000000000000000000081528360028201528260228201526042812091505092915050565b5f5f5f7f7fffffffffffffffffffffffffffffff5d576e7357a4501ddfe92f46681b20a0845f1c111561391b575f6003859250925092506139bc565b5f6001888888886040515f815260200160405260405161393e9493929190614cdf565b6020604051602081039080840390855afa15801561395e573d5f5f3e3d5ffd5b5050506020604051035190505f73ffffffffffffffffffffffffffffffffffffffff168173ffffffffffffffffffffffffffffffffffffffff16036139af575f60015f5f1b935093509350506139bc565b805f5f5f1b935093509350505b9450945094915050565b5f60038111156139d9576139d8614d22565b5b8260038111156139ec576139eb614d22565b5b0315613b245760016003811115613a0657613a05614d22565b5b826003811115613a1957613a18614d22565b5b03613a50576040517ff645eedf00000000000000000000000000000000000000000000000000000000815260040160405180910390fd5b60026003811115613a6457613a63614d22565b5b826003811115613a7757613a76614d22565b5b03613abb57805f1c6040517ffce698f7000000000000000000000000000000000000000000000000000000008152600401613ab29190613e9a565b60405180910390fd5b600380811115613ace57613acd614d22565b5b826003811115613ae157613ae0614d22565b5b03613b2357806040517fd78bce0c000000000000000000000000000000000000000000000000000000008152600401613b1a91906142e5565b60405180910390fd5b5b5050565b5f7f01ffc9a7000000000000000000000000000000000000000000000000000000007bffffffffffffffffffffffffffffffffffffffffffffffffffffffff1916827bffffffffffffffffffffffffffffffffffffffffffffffffffffffff1916149050919050565b613b996137b1565b613ba4838383613c1b565b505050565b60605f613bb583613e34565b90505f602067ffffffffffffffff811115613bd357613bd261439f565b5b6040519080825280601f01601f191660200182016040528015613c055781602001600182028036833780820191505090505b5090508181528360208201528092505050919050565b5f73ffffffffffffffffffffffffffffffffffffffff168373ffffffffffffffffffffffffffffffffffffffff1603613c6b578060025f828254613c5f919061492b565b92505081905550613d39565b5f5f5f8573ffffffffffffffffffffffffffffffffffffffff1673ffffffffffffffffffffffffffffffffffffffff1681526020019081526020015f2054905081811015613cf4578381836040517fe450d38c000000000000000000000000000000000000000000000000000000008152600401613ceb93929190614b1b565b60405180910390fd5b8181035f5f8673ffffffffffffffffffffffffffffffffffffffff1673ffffffffffffffffffffffffffffffffffffffff1681526020019081526020015f2081905550505b5f73ffffffffffffffffffffffffffffffffffffffff168273ffffffffffffffffffffffffffffffffffffffff1603613d80578060025f8282540392505081905550613dca565b805f5f8473ffffffffffffffffffffffffffffffffffffffff1673ffffffffffffffffffffffffffffffffffffffff1681526020019081526020015f205f82825401925050819055505b8173ffffffffffffffffffffffffffffffffffffffff168373ffffffffffffffffffffffffffffffffffffffff167fddf252ad1be2c89b69c2b068fc378daa952ba7f163c4a11628f55a4df523b3ef83604051613e279190613e9a565b60405180910390a3505050565b5f5f60ff835f1c169050601f811115613e79576040517fb3512b0c00000000000000000000000000000000000000000000000000000000815260040160405180910390fd5b80915050919050565b5f819050919050565b613e9481613e82565b82525050565b5f602082019050613ead5f830184613e8b565b92915050565b5f604051905090565b5f5ffd5b5f5ffd5b5f73ffffffffffffffffffffffffffffffffffffffff82169050919050565b5f613eed82613ec4565b9050919050565b613efd81613ee3565b8114613f07575f5ffd5b50565b5f81359050613f1881613ef4565b92915050565b5f60208284031215613f3357613f32613ebc565b5b5f613f4084828501613f0a565b91505092915050565b5f7fffffffff0000000000000000000000000000000000000000000000000000000082169050919050565b613f7d81613f49565b8114613f87575f5ffd5b50565b5f81359050613f9881613f74565b92915050565b5f60208284031215613fb357613fb2613ebc565b5b5f613fc084828501613f8a565b91505092915050565b5f8115159050919050565b613fdd81613fc9565b82525050565b5f602082019050613ff65f830184613fd4565b92915050565b61400581613e82565b811461400f575f5ffd5b50565b5f8135905061402081613ffc565b92915050565b5f5f6040838503121561403c5761403b613ebc565b5b5f61404985828601613f0a565b925050602061405a85828601614012565b9150509250929050565b5f81519050919050565b5f82825260208201905092915050565b8281835e5f83830152505050565b5f601f19601f8301169050919050565b5f6140a682614064565b6140b0818561406e565b93506140c081856020860161407e565b6140c98161408c565b840191505092915050565b5f6020820190508181035f8301526140ec818461409c565b905092915050565b5f819050919050565b614106816140f4565b8114614110575f5ffd5b50565b5f81359050614121816140fd565b92915050565b5f6020828403121561413c5761413b613ebc565b5b5f61414984828501614113565b91505092915050565b5f5ffd5b5f5ffd5b5f5ffd5b5f5f83601f84011261417357614172614152565b5b8235905067ffffffffffffffff8111156141905761418f614156565b5b6020830191508360208202830111156141ac576141ab61415a565b5b9250929050565b5f5f83601f8401126141c8576141c7614152565b5b8235905067ffffffffffffffff8111156141e5576141e4614156565b5b6020830191508360208202830111156142015761420061415a565b5b9250929050565b5f5f5f5f604085870312156142205761421f613ebc565b5b5f85013567ffffffffffffffff81111561423d5761423c613ec0565b5b6142498782880161415e565b9450945050602085013567ffffffffffffffff81111561426c5761426b613ec0565b5b614278878288016141b3565b925092505092959194509250565b5f5f5f6060848603121561429d5761429c613ebc565b5b5f6142aa86828701613f0a565b93505060206142bb86828701613f0a565b92505060406142cc86828701614012565b9150509250925092565b6142df816140f4565b82525050565b5f6020820190506142f85f8301846142d6565b92915050565b5f5f6040838503121561431457614313613ebc565b5b5f61432185828601614113565b925050602061433285828601613f0a565b9150509250929050565b5f60ff82169050919050565b6143518161433c565b82525050565b5f60208201905061436a5f830184614348565b92915050565b5f6020828403121561438557614384613ebc565b5b5f61439284828501614012565b91505092915050565b5f5ffd5b7f4e487b71000000000000000000000000000000000000000000000000000000005f52604160045260245ffd5b6143d58261408c565b810181811067ffffffffffffffff821117156143f4576143f361439f565b5b80604052505050565b5f614406613eb3565b905061441282826143cc565b919050565b5f67ffffffffffffffff8211156144315761443061439f565b5b61443a8261408c565b9050602081019050919050565b828183375f83830152505050565b5f61446761446284614417565b6143fd565b9050828152602081018484840111156144835761448261439b565b5b61448e848285614447565b509392505050565b5f82601f8301126144aa576144a9614152565b5b81356144ba848260208601614455565b91505092915050565b5f5f5f606084860312156144da576144d9613ebc565b5b5f6144e786828701613f0a565b93505060206144f886828701614012565b925050604084013567ffffffffffffffff81111561451957614518613ec0565b5b61452586828701614496565b9150509250925092565b5f5f6040838503121561454557614544613ebc565b5b5f61455285828601614012565b925050602061456385828601614012565b9150509250929050565b5f7fff0000000000000000000000000000000000000000000000000000000000000082169050919050565b6145a18161456d565b82525050565b6145b081613ee3565b82525050565b5f81519050919050565b5f82825260208201905092915050565b5f819050602082019050919050565b6145e881613e82565b82525050565b5f6145f983836145df565b60208301905092915050565b5f602082019050919050565b5f61461b826145b6565b61462581856145c0565b9350614630836145d0565b805f5b8381101561466057815161464788826145ee565b975061465283614605565b925050600181019050614633565b5085935050505092915050565b5f60e0820190506146805f83018a614598565b8181036020830152614692818961409c565b905081810360408301526146a6818861409c565b90506146b56060830187613e8b565b6146c260808301866145a7565b6146cf60a08301856142d6565b81810360c08301526146e18184614611565b905098975050505050505050565b5f5f5f5f6080858703121561470757614706613ebc565b5b5f61471487828801613f0a565b945050602061472587828801613f0a565b935050604061473687828801614012565b925050606085013567ffffffffffffffff81111561475757614756613ec0565b5b61476387828801614496565b91505092959194509250565b6147788161433c565b8114614782575f5ffd5b50565b5f813590506147938161476f565b92915050565b5f5f5f5f5f5f5f60e0888a0312156147b4576147b3613ebc565b5b5f6147c18a828b01613f0a565b97505060206147d28a828b01613f0a565b96505060406147e38a828b01614012565b95505060606147f48a828b01614012565b94505060806148058a828b01614785565b93505060a06148168a828b01614113565b92505060c06148278a828b01614113565b91505092959891949750929550565b5f5f6040838503121561484c5761484b613ebc565b5b5f61485985828601613f0a565b925050602061486a85828601613f0a565b9150509250929050565b7f4e487b71000000000000000000000000000000000000000000000000000000005f52602260045260245ffd5b5f60028204905060018216806148b857607f821691505b6020821081036148cb576148ca614874565b5b50919050565b7f4e487b71000000000000000000000000000000000000000000000000000000005f52603260045260245ffd5b7f4e487b71000000000000000000000000000000000000000000000000000000005f52601160045260245ffd5b5f61493582613e82565b915061494083613e82565b9250828201905080821115614958576149576148fe565b5b92915050565b5f6040820190506149715f830185613e8b565b61497e6020830184613e8b565b9392505050565b5f6040820190506149985f8301856145a7565b6149a56020830184613e8b565b9392505050565b5f6149b682613e82565b91506149c183613e82565b92508282039050818111156149d9576149d86148fe565b5b92915050565b5f6060820190506149f25f8301866145a7565b6149ff60208301856145a7565b614a0c6040830184613e8b565b949350505050565b5f60c082019050614a275f8301896142d6565b614a3460208301886145a7565b614a4160408301876145a7565b614a4e6060830186613e8b565b614a5b6080830185613e8b565b614a6860a0830184613e8b565b979650505050505050565b5f604082019050614a865f8301856145a7565b614a9360208301846145a7565b9392505050565b5f602082019050614aad5f8301846145a7565b92915050565b7f5265656e7472616e637947756172643a207265656e7472616e742063616c6c005f82015250565b5f614ae7601f8361406e565b9150614af282614ab3565b602082019050919050565b5f6020820190508181035f830152614b1481614adb565b9050919050565b5f606082019050614b2e5f8301866145a7565b614b3b6020830185613e8b565b614b486040830184613e8b565b949350505050565b5f81519050919050565b5f82825260208201905092915050565b5f614b7482614b50565b614b7e8185614b5a565b9350614b8e81856020860161407e565b614b978161408c565b840191505092915050565b5f608082019050614bb55f8301876145a7565b614bc260208301866145a7565b614bcf6040830185613e8b565b8181036060830152614be18184614b6a565b905095945050505050565b5f81519050614bfa81613f74565b92915050565b5f60208284031215614c1557614c14613ebc565b5b5f614c2284828501614bec565b91505092915050565b5f606082019050614c3e5f8301866145a7565b614c4b6020830185613e8b565b8181036040830152614c5d8184614b6a565b9050949350505050565b5f604082019050614c7a5f8301856145a7565b614c8760208301846142d6565b9392505050565b5f60a082019050614ca15f8301886142d6565b614cae60208301876142d6565b614cbb60408301866142d6565b614cc86060830185613e8b565b614cd560808301846145a7565b9695505050505050565b5f608082019050614cf25f8301876142d6565b614cff6020830186614348565b614d0c60408301856142d6565b614d1960608301846142d6565b95945050505050565b7f4e487b71000000000000000000000000000000000000000000000000000000005f52602160045260245ffdfea2646970667358221220c1353757b0aab8699dbc13fcb99e3e880509dc87ced3203ed55c7063ea27a18764736f6c634300081e0033",
			"opcodes": "PUSH2 0x1A0 PUSH1 0x40 MSTORE CALLVALUE DUP1 ISZERO PUSH2 0x10 JUMPI PUSH0 PUSH0 REVERT JUMPDEST POP PUSH1 0x40 MLOAD PUSH2 0x6098 CODESIZE SUB DUP1 PUSH2 0x6098 DUP4 CODECOPY DUP2 DUP2 ADD PUSH1 0x40 MSTORE DUP2 ADD SWAP1 PUSH2 0x32 SWAP2 SWAP1 PUSH2 0xC64 JUMP JUMPDEST PUSH1 0x40 MLOAD DUP1 PUSH1 0x40 ADD PUSH1 0x40 MSTORE DUP1 PUSH1 0xD DUP2 MSTORE PUSH1 0x20 ADD PUSH32 0x536869727573686920436F696E00000000000000000000000000000000000000 DUP2 MSTORE POP DUP1 PUSH1 0x40 MLOAD DUP1 PUSH1 0x40 ADD PUSH1 0x40 MSTORE DUP1 PUSH1 0x1 DUP2 MSTORE PUSH1 0x20 ADD PUSH32 0x3100000000000000000000000000000000000000000000000000000000000000 DUP2 MSTORE POP PUSH1 0x40 MLOAD DUP1 PUSH1 0x40 ADD PUSH1 0x40 MSTORE DUP1 PUSH1 0xD DUP2 MSTORE PUSH1 0x20 ADD PUSH32 0x536869727573686920436F696E00000000000000000000000000000000000000 DUP2 MSTORE POP PUSH1 0x40 MLOAD DUP1 PUSH1 0x40 ADD PUSH1 0x40 MSTORE DUP1 PUSH1 0x4 DUP2 MSTORE PUSH1 0x20 ADD PUSH32 0x5349534300000000000000000000000000000000000000000000000000000000 DUP2 MSTORE POP DUP2 PUSH1 0x3 SWAP1 DUP2 PUSH2 0x11A SWAP2 SWAP1 PUSH2 0xECC JUMP JUMPDEST POP DUP1 PUSH1 0x4 SWAP1 DUP2 PUSH2 0x12A SWAP2 SWAP1 PUSH2 0xECC JUMP JUMPDEST POP POP POP PUSH2 0x141 PUSH1 0x7 DUP4 PUSH2 0x46E PUSH1 0x20 SHL SWAP1 SWAP2 SWAP1 PUSH1 0x20 SHR JUMP JUMPDEST PUSH2 0x120 DUP2 DUP2 MSTORE POP POP PUSH2 0x15D PUSH1 0x8 DUP3 PUSH2 0x46E PUSH1 0x20 SHL SWAP1 SWAP2 SWAP1 PUSH1 0x20 SHR JUMP JUMPDEST PUSH2 0x140 DUP2 DUP2 MSTORE POP POP DUP2 DUP1 MLOAD SWAP1 PUSH1 0x20 ADD KECCAK256 PUSH1 0xE0 DUP2 DUP2 MSTORE POP POP DUP1 DUP1 MLOAD SWAP1 PUSH1 0x20 ADD KECCAK256 PUSH2 0x100 DUP2 DUP2 MSTORE POP POP CHAINID PUSH1 0xA0 DUP2 DUP2 MSTORE POP POP PUSH2 0x19A PUSH2 0x4BB PUSH1 0x20 SHL PUSH1 0x20 SHR JUMP JUMPDEST PUSH1 0x80 DUP2 DUP2 MSTORE POP POP ADDRESS PUSH20 0xFFFFFFFFFFFFFFFFFFFFFFFFFFFFFFFFFFFFFFFF AND PUSH1 0xC0 DUP2 PUSH20 0xFFFFFFFFFFFFFFFFFFFFFFFFFFFFFFFFFFFFFFFF AND DUP2 MSTORE POP POP POP POP POP PUSH1 0x1 PUSH1 0xA DUP2 SWAP1 SSTORE POP PUSH8 0xDE0B6B3A7640000 PUSH4 0xBEBC200 PUSH2 0x1F8 SWAP2 SWAP1 PUSH2 0xFC8 JUMP JUMPDEST PUSH2 0x160 DUP2 DUP2 MSTORE POP POP PUSH8 0xDE0B6B3A7640000 PUSH4 0x11E1A300 PUSH2 0x218 SWAP2 SWAP1 PUSH2 0xFC8 JUMP JUMPDEST PUSH2 0x180 DUP2 DUP2 MSTORE POP POP PUSH8 0xDE0B6B3A7640000 PUSH3 0x93DD84 PUSH2 0x237 SWAP2 SWAP1 PUSH2 0xFC8 JUMP JUMPDEST PUSH1 0xB DUP2 SWAP1 SSTORE POP PUSH2 0x250 DUP2 PUSH2 0x160 MLOAD PUSH2 0x515 PUSH1 0x20 SHL PUSH1 0x20 SHR JUMP JUMPDEST PUSH2 0x262 DUP2 PUSH1 0xB SLOAD PUSH2 0x515 PUSH1 0x20 SHL PUSH1 0x20 SHR JUMP JUMPDEST PUSH2 0x274 PUSH0 PUSH0 SHL DUP3 PUSH2 0x59A PUSH1 0x20 SHL PUSH1 0x20 SHR JUMP JUMPDEST POP PUSH2 0x2A5 PUSH32 0x65D7A28E3265B37A6474929F336521B332C1681B933F6CB9F3376673440D862A DUP3 PUSH2 0x59A PUSH1 0x20 SHL PUSH1 0x20 SHR JUMP JUMPDEST POP PUSH2 0x2D6 PUSH32 0x92DE27771F92D6942691D73358B3A4673E4880DE8356F8F2CF452BE87E02D363 DUP3 PUSH2 0x59A PUSH1 0x20 SHL PUSH1 0x20 SHR JUMP JUMPDEST POP PUSH2 0x307 PUSH32 0xF996DA754C790E95D5C7CA3330CFCAD529487FE9D1D8EDB7AFC65076FDF9ADB4 DUP3 PUSH2 0x59A PUSH1 0x20 SHL PUSH1 0x20 SHR JUMP JUMPDEST POP PUSH2 0x338 PUSH32 0xA952726EF2588AD078EDF35B066F7C7406E207CB0003BBABA8CB53EBA9553E72 DUP3 PUSH2 0x59A PUSH1 0x20 SHL PUSH1 0x20 SHR JUMP JUMPDEST POP PUSH2 0x369 PUSH32 0xA3F35647C2B3793E7C9389E38D1470FFD389CA0E6275801F484F5C1571E48992 DUP3 PUSH2 0x59A PUSH1 0x20 SHL PUSH1 0x20 SHR JUMP JUMPDEST POP DUP1 PUSH1 0xC PUSH0 PUSH2 0x100 EXP DUP2 SLOAD DUP2 PUSH20 0xFFFFFFFFFFFFFFFFFFFFFFFFFFFFFFFFFFFFFFFF MUL NOT AND SWAP1 DUP4 PUSH20 0xFFFFFFFFFFFFFFFFFFFFFFFFFFFFFFFFFFFFFFFF AND MUL OR SWAP1 SSTORE POP PUSH0 PUSH8 0xDE0B6B3A7640000 PUSH2 0x2710 PUSH2 0x3C1 SWAP2 SWAP1 PUSH2 0xFC8 JUMP JUMPDEST SWAP1 POP DUP1 PUSH1 0x12 PUSH0 PUSH2 0x7E6 DUP2 MSTORE PUSH1 0x20 ADD SWAP1 DUP2 MSTORE PUSH1 0x20 ADD PUSH0 KECCAK256 DUP2 SWAP1 SSTORE POP DUP1 PUSH1 0x12 PUSH0 PUSH1 0x1 PUSH2 0x7E6 PUSH2 0x3EE SWAP2 SWAP1 PUSH2 0x1009 JUMP JUMPDEST DUP2 MSTORE PUSH1 0x20 ADD SWAP1 DUP2 MSTORE PUSH1 0x20 ADD PUSH0 KECCAK256 DUP2 SWAP1 SSTORE POP PUSH0 PUSH1 0x2 PUSH2 0x7E6 PUSH2 0x40F SWAP2 SWAP1 PUSH2 0x1009 JUMP JUMPDEST SWAP1 POP JUMPDEST PUSH1 0x64 PUSH2 0x7E6 PUSH2 0x421 SWAP2 SWAP1 PUSH2 0x1009 JUMP JUMPDEST DUP2 LT ISZERO PUSH2 0x466 JUMPI PUSH1 0xA PUSH1 0x9 DUP4 PUSH2 0x437 SWAP2 SWAP1 PUSH2 0xFC8 JUMP JUMPDEST PUSH2 0x441 SWAP2 SWAP1 PUSH2 0x1069 JUMP JUMPDEST SWAP2 POP DUP2 PUSH1 0x12 PUSH0 DUP4 DUP2 MSTORE PUSH1 0x20 ADD SWAP1 DUP2 MSTORE PUSH1 0x20 ADD PUSH0 KECCAK256 DUP2 SWAP1 SSTORE POP DUP1 DUP1 PUSH1 0x1 ADD SWAP2 POP POP PUSH2 0x412 JUMP JUMPDEST POP POP POP PUSH2 0x12A0 JUMP JUMPDEST PUSH0 PUSH1 0x20 DUP4 MLOAD LT ISZERO PUSH2 0x48F JUMPI PUSH2 0x488 DUP4 PUSH2 0x690 PUSH1 0x20 SHL PUSH1 0x20 SHR JUMP JUMPDEST SWAP1 POP PUSH2 0x4B5 JUMP JUMPDEST DUP3 PUSH2 0x49F DUP4 PUSH2 0x6F5 PUSH1 0x20 SHL PUSH1 0x20 SHR JUMP JUMPDEST PUSH0 ADD SWAP1 DUP2 PUSH2 0x4AD SWAP2 SWAP1 PUSH2 0xECC JUMP JUMPDEST POP PUSH1 0xFF PUSH0 SHL SWAP1 POP JUMPDEST SWAP3 SWAP2 POP POP JUMP JUMPDEST PUSH0 PUSH32 0x8B73C3C69BB8FE3D512ECC4CF759CC79239F7B179B0FFACAA9A75D522B39400F PUSH1 0xE0 MLOAD PUSH2 0x100 MLOAD CHAINID ADDRESS PUSH1 0x40 MLOAD PUSH1 0x20 ADD PUSH2 0x4FA SWAP6 SWAP5 SWAP4 SWAP3 SWAP2 SWAP1 PUSH2 0x10CF JUMP JUMPDEST PUSH1 0x40 MLOAD PUSH1 0x20 DUP2 DUP4 SUB SUB DUP2 MSTORE SWAP1 PUSH1 0x40 MSTORE DUP1 MLOAD SWAP1 PUSH1 0x20 ADD KECCAK256 SWAP1 POP SWAP1 JUMP JUMPDEST PUSH0 PUSH20 0xFFFFFFFFFFFFFFFFFFFFFFFFFFFFFFFFFFFFFFFF AND DUP3 PUSH20 0xFFFFFFFFFFFFFFFFFFFFFFFFFFFFFFFFFFFFFFFF AND SUB PUSH2 0x585 JUMPI PUSH0 PUSH1 0x40 MLOAD PUSH32 0xEC442F0500000000000000000000000000000000000000000000000000000000 DUP2 MSTORE PUSH1 0x4 ADD PUSH2 0x57C SWAP2 SWAP1 PUSH2 0x1120 JUMP JUMPDEST PUSH1 0x40 MLOAD DUP1 SWAP2 SUB SWAP1 REVERT JUMPDEST PUSH2 0x596 PUSH0 DUP4 DUP4 PUSH2 0x6FE PUSH1 0x20 SHL PUSH1 0x20 SHR JUMP JUMPDEST POP POP JUMP JUMPDEST PUSH0 PUSH2 0x5AB DUP4 DUP4 PUSH2 0x902 PUSH1 0x20 SHL PUSH1 0x20 SHR JUMP JUMPDEST PUSH2 0x686 JUMPI PUSH1 0x1 PUSH1 0x6 PUSH0 DUP6 DUP2 MSTORE PUSH1 0x20 ADD SWAP1 DUP2 MSTORE PUSH1 0x20 ADD PUSH0 KECCAK256 PUSH0 ADD PUSH0 DUP5 PUSH20 0xFFFFFFFFFFFFFFFFFFFFFFFFFFFFFFFFFFFFFFFF AND PUSH20 0xFFFFFFFFFFFFFFFFFFFFFFFFFFFFFFFFFFFFFFFF AND DUP2 MSTORE PUSH1 0x20 ADD SWAP1 DUP2 MSTORE PUSH1 0x20 ADD PUSH0 KECCAK256 PUSH0 PUSH2 0x100 EXP DUP2 SLOAD DUP2 PUSH1 0xFF MUL NOT AND SWAP1 DUP4 ISZERO ISZERO MUL OR SWAP1 SSTORE POP PUSH2 0x623 PUSH2 0x966 PUSH1 0x20 SHL PUSH1 0x20 SHR JUMP JUMPDEST PUSH20 0xFFFFFFFFFFFFFFFFFFFFFFFFFFFFFFFFFFFFFFFF AND DUP3 PUSH20 0xFFFFFFFFFFFFFFFFFFFFFFFFFFFFFFFFFFFFFFFF AND DUP5 PUSH32 0x2F8788117E7EFF1D82E926EC794901D17C78024A50270940304540A733656F0D PUSH1 0x40 MLOAD PUSH1 0x40 MLOAD DUP1 SWAP2 SUB SWAP1 LOG4 PUSH1 0x1 SWAP1 POP PUSH2 0x68A JUMP JUMPDEST PUSH0 SWAP1 POP JUMPDEST SWAP3 SWAP2 POP POP JUMP JUMPDEST PUSH0 PUSH0 DUP3 SWAP1 POP PUSH1 0x1F DUP2 MLOAD GT ISZERO PUSH2 0x6DC JUMPI DUP3 PUSH1 0x40 MLOAD PUSH32 0x305A27A900000000000000000000000000000000000000000000000000000000 DUP2 MSTORE PUSH1 0x4 ADD PUSH2 0x6D3 SWAP2 SWAP1 PUSH2 0x119F JUMP JUMPDEST PUSH1 0x40 MLOAD DUP1 SWAP2 SUB SWAP1 REVERT JUMPDEST DUP1 MLOAD DUP2 PUSH2 0x6E8 SWAP1 PUSH2 0x11EC JUMP JUMPDEST PUSH0 SHR OR PUSH0 SHL SWAP2 POP POP SWAP2 SWAP1 POP JUMP JUMPDEST PUSH0 DUP2 SWAP1 POP SWAP2 SWAP1 POP JUMP JUMPDEST PUSH0 PUSH20 0xFFFFFFFFFFFFFFFFFFFFFFFFFFFFFFFFFFFFFFFF AND DUP4 PUSH20 0xFFFFFFFFFFFFFFFFFFFFFFFFFFFFFFFFFFFFFFFF AND EQ PUSH2 0x7F5 JUMPI PUSH1 0xD PUSH0 DUP5 PUSH20 0xFFFFFFFFFFFFFFFFFFFFFFFFFFFFFFFFFFFFFFFF AND PUSH20 0xFFFFFFFFFFFFFFFFFFFFFFFFFFFFFFFFFFFFFFFF AND DUP2 MSTORE PUSH1 0x20 ADD SWAP1 DUP2 MSTORE PUSH1 0x20 ADD PUSH0 KECCAK256 PUSH0 SWAP1 SLOAD SWAP1 PUSH2 0x100 EXP SWAP1 DIV PUSH1 0xFF AND ISZERO PUSH1 0x40 MLOAD DUP1 PUSH1 0x40 ADD PUSH1 0x40 MSTORE DUP1 PUSH1 0x15 DUP2 MSTORE PUSH1 0x20 ADD PUSH32 0x46524F5A454E5F53454E4445525F4143434F554E540000000000000000000000 DUP2 MSTORE POP SWAP1 PUSH2 0x7F3 JUMPI PUSH1 0x40 MLOAD PUSH32 0x8C379A000000000000000000000000000000000000000000000000000000000 DUP2 MSTORE PUSH1 0x4 ADD PUSH2 0x7EA SWAP2 SWAP1 PUSH2 0x119F JUMP JUMPDEST PUSH1 0x40 MLOAD DUP1 SWAP2 SUB SWAP1 REVERT JUMPDEST POP JUMPDEST PUSH0 PUSH20 0xFFFFFFFFFFFFFFFFFFFFFFFFFFFFFFFFFFFFFFFF AND DUP3 PUSH20 0xFFFFFFFFFFFFFFFFFFFFFFFFFFFFFFFFFFFFFFFF AND EQ PUSH2 0x8EC JUMPI PUSH1 0xD PUSH0 DUP4 PUSH20 0xFFFFFFFFFFFFFFFFFFFFFFFFFFFFFFFFFFFFFFFF AND PUSH20 0xFFFFFFFFFFFFFFFFFFFFFFFFFFFFFFFFFFFFFFFF AND DUP2 MSTORE PUSH1 0x20 ADD SWAP1 DUP2 MSTORE PUSH1 0x20 ADD PUSH0 KECCAK256 PUSH0 SWAP1 SLOAD SWAP1 PUSH2 0x100 EXP SWAP1 DIV PUSH1 0xFF AND ISZERO PUSH1 0x40 MLOAD DUP1 PUSH1 0x40 ADD PUSH1 0x40 MSTORE DUP1 PUSH1 0x18 DUP2 MSTORE PUSH1 0x20 ADD PUSH32 0x46524F5A454E5F524543495049454E545F4143434F554E540000000000000000 DUP2 MSTORE POP SWAP1 PUSH2 0x8EA JUMPI PUSH1 0x40 MLOAD PUSH32 0x8C379A000000000000000000000000000000000000000000000000000000000 DUP2 MSTORE PUSH1 0x4 ADD PUSH2 0x8E1 SWAP2 SWAP1 PUSH2 0x119F JUMP JUMPDEST PUSH1 0x40 MLOAD DUP1 SWAP2 SUB SWAP1 REVERT JUMPDEST POP JUMPDEST PUSH2 0x8FD DUP4 DUP4 DUP4 PUSH2 0x96D PUSH1 0x20 SHL PUSH1 0x20 SHR JUMP JUMPDEST POP POP POP JUMP JUMPDEST PUSH0 PUSH1 0x6 PUSH0 DUP5 DUP2 MSTORE PUSH1 0x20 ADD SWAP1 DUP2 MSTORE PUSH1 0x20 ADD PUSH0 KECCAK256 PUSH0 ADD PUSH0 DUP4 PUSH20 0xFFFFFFFFFFFFFFFFFFFFFFFFFFFFFFFFFFFFFFFF AND PUSH20 0xFFFFFFFFFFFFFFFFFFFFFFFFFFFFFFFFFFFFFFFF AND DUP2 MSTORE PUSH1 0x20 ADD SWAP1 DUP2 MSTORE PUSH1 0x20 ADD PUSH0 KECCAK256 PUSH0 SWAP1 SLOAD SWAP1 PUSH2 0x100 EXP SWAP1 DIV PUSH1 0xFF AND SWAP1 POP SWAP3 SWAP2 POP POP JUMP JUMPDEST PUSH0 CALLER SWAP1 POP SWAP1 JUMP JUMPDEST PUSH2 0x97B PUSH2 0x991 PUSH1 0x20 SHL PUSH1 0x20 SHR JUMP JUMPDEST PUSH2 0x98C DUP4 DUP4 DUP4 PUSH2 0x9D8 PUSH1 0x20 SHL PUSH1 0x20 SHR JUMP JUMPDEST POP POP POP JUMP JUMPDEST PUSH2 0x99F PUSH2 0xBF1 PUSH1 0x20 SHL PUSH1 0x20 SHR JUMP JUMPDEST ISZERO PUSH2 0x9D6 JUMPI PUSH1 0x40 MLOAD PUSH32 0xD93C066500000000000000000000000000000000000000000000000000000000 DUP2 MSTORE PUSH1 0x4 ADD PUSH1 0x40 MLOAD DUP1 SWAP2 SUB SWAP1 REVERT JUMPDEST JUMP JUMPDEST PUSH0 PUSH20 0xFFFFFFFFFFFFFFFFFFFFFFFFFFFFFFFFFFFFFFFF AND DUP4 PUSH20 0xFFFFFFFFFFFFFFFFFFFFFFFFFFFFFFFFFFFFFFFF AND SUB PUSH2 0xA28 JUMPI DUP1 PUSH1 0x2 PUSH0 DUP3 DUP3 SLOAD PUSH2 0xA1C SWAP2 SWAP1 PUSH2 0x1009 JUMP JUMPDEST SWAP3 POP POP DUP2 SWAP1 SSTORE POP PUSH2 0xAF6 JUMP JUMPDEST PUSH0 PUSH0 PUSH0 DUP6 PUSH20 0xFFFFFFFFFFFFFFFFFFFFFFFFFFFFFFFFFFFFFFFF AND PUSH20 0xFFFFFFFFFFFFFFFFFFFFFFFFFFFFFFFFFFFFFFFF AND DUP2 MSTORE PUSH1 0x20 ADD SWAP1 DUP2 MSTORE PUSH1 0x20 ADD PUSH0 KECCAK256 SLOAD SWAP1 POP DUP2 DUP2 LT ISZERO PUSH2 0xAB1 JUMPI DUP4 DUP2 DUP4 PUSH1 0x40 MLOAD PUSH32 0xE450D38C00000000000000000000000000000000000000000000000000000000 DUP2 MSTORE PUSH1 0x4 ADD PUSH2 0xAA8 SWAP4 SWAP3 SWAP2 SWAP1 PUSH2 0x1252 JUMP JUMPDEST PUSH1 0x40 MLOAD DUP1 SWAP2 SUB SWAP1 REVERT JUMPDEST DUP2 DUP2 SUB PUSH0 PUSH0 DUP7 PUSH20 0xFFFFFFFFFFFFFFFFFFFFFFFFFFFFFFFFFFFFFFFF AND PUSH20 0xFFFFFFFFFFFFFFFFFFFFFFFFFFFFFFFFFFFFFFFF AND DUP2 MSTORE PUSH1 0x20 ADD SWAP1 DUP2 MSTORE PUSH1 0x20 ADD PUSH0 KECCAK256 DUP2 SWAP1 SSTORE POP POP JUMPDEST PUSH0 PUSH20 0xFFFFFFFFFFFFFFFFFFFFFFFFFFFFFFFFFFFFFFFF AND DUP3 PUSH20 0xFFFFFFFFFFFFFFFFFFFFFFFFFFFFFFFFFFFFFFFF AND SUB PUSH2 0xB3D JUMPI DUP1 PUSH1 0x2 PUSH0 DUP3 DUP3 SLOAD SUB SWAP3 POP POP DUP2 SWAP1 SSTORE POP PUSH2 0xB87 JUMP JUMPDEST DUP1 PUSH0 PUSH0 DUP5 PUSH20 0xFFFFFFFFFFFFFFFFFFFFFFFFFFFFFFFFFFFFFFFF AND PUSH20 0xFFFFFFFFFFFFFFFFFFFFFFFFFFFFFFFFFFFFFFFF AND DUP2 MSTORE PUSH1 0x20 ADD SWAP1 DUP2 MSTORE PUSH1 0x20 ADD PUSH0 KECCAK256 PUSH0 DUP3 DUP3 SLOAD ADD SWAP3 POP POP DUP2 SWAP1 SSTORE POP JUMPDEST DUP2 PUSH20 0xFFFFFFFFFFFFFFFFFFFFFFFFFFFFFFFFFFFFFFFF AND DUP4 PUSH20 0xFFFFFFFFFFFFFFFFFFFFFFFFFFFFFFFFFFFFFFFF AND PUSH32 0xDDF252AD1BE2C89B69C2B068FC378DAA952BA7F163C4A11628F55A4DF523B3EF DUP4 PUSH1 0x40 MLOAD PUSH2 0xBE4 SWAP2 SWAP1 PUSH2 0x1287 JUMP JUMPDEST PUSH1 0x40 MLOAD DUP1 SWAP2 SUB SWAP1 LOG3 POP POP POP JUMP JUMPDEST PUSH0 PUSH1 0x5 PUSH0 SWAP1 SLOAD SWAP1 PUSH2 0x100 EXP SWAP1 DIV PUSH1 0xFF AND SWAP1 POP SWAP1 JUMP JUMPDEST PUSH0 PUSH0 REVERT JUMPDEST PUSH0 PUSH20 0xFFFFFFFFFFFFFFFFFFFFFFFFFFFFFFFFFFFFFFFF DUP3 AND SWAP1 POP SWAP2 SWAP1 POP JUMP JUMPDEST PUSH0 PUSH2 0xC33 DUP3 PUSH2 0xC0A JUMP JUMPDEST SWAP1 POP SWAP2 SWAP1 POP JUMP JUMPDEST PUSH2 0xC43 DUP2 PUSH2 0xC29 JUMP JUMPDEST DUP2 EQ PUSH2 0xC4D JUMPI PUSH0 PUSH0 REVERT JUMPDEST POP JUMP JUMPDEST PUSH0 DUP2 MLOAD SWAP1 POP PUSH2 0xC5E DUP2 PUSH2 0xC3A JUMP JUMPDEST SWAP3 SWAP2 POP POP JUMP JUMPDEST PUSH0 PUSH1 0x20 DUP3 DUP5 SUB SLT ISZERO PUSH2 0xC79 JUMPI PUSH2 0xC78 PUSH2 0xC06 JUMP JUMPDEST JUMPDEST PUSH0 PUSH2 0xC86 DUP5 DUP3 DUP6 ADD PUSH2 0xC50 JUMP JUMPDEST SWAP2 POP POP SWAP3 SWAP2 POP POP JUMP JUMPDEST PUSH0 DUP2 MLOAD SWAP1 POP SWAP2 SWAP1 POP JUMP JUMPDEST PUSH32 0x4E487B7100000000000000000000000000000000000000000000000000000000 PUSH0 MSTORE PUSH1 0x41 PUSH1 0x4 MSTORE PUSH1 0x24 PUSH0 REVERT JUMPDEST PUSH32 0x4E487B7100000000000000000000000000000000000000000000000000000000 PUSH0 MSTORE PUSH1 0x22 PUSH1 0x4 MSTORE PUSH1 0x24 PUSH0 REVERT JUMPDEST PUSH0 PUSH1 0x2 DUP3 DIV SWAP1 POP PUSH1 0x1 DUP3 AND DUP1 PUSH2 0xD0A JUMPI PUSH1 0x7F DUP3 AND SWAP2 POP JUMPDEST PUSH1 0x20 DUP3 LT DUP2 SUB PUSH2 0xD1D JUMPI PUSH2 0xD1C PUSH2 0xCC6 JUMP JUMPDEST JUMPDEST POP SWAP2 SWAP1 POP JUMP JUMPDEST PUSH0 DUP2 SWAP1 POP DUP2 PUSH0 MSTORE PUSH1 0x20 PUSH0 KECCAK256 SWAP1 POP SWAP2 SWAP1 POP JUMP JUMPDEST PUSH0 PUSH1 0x20 PUSH1 0x1F DUP4 ADD DIV SWAP1 POP SWAP2 SWAP1 POP JUMP JUMPDEST PUSH0 DUP3 DUP3 SHL SWAP1 POP SWAP3 SWAP2 POP POP JUMP JUMPDEST PUSH0 PUSH1 0x8 DUP4 MUL PUSH2 0xD7F PUSH32 0xFFFFFFFFFFFFFFFFFFFFFFFFFFFFFFFFFFFFFFFFFFFFFFFFFFFFFFFFFFFFFFFF DUP3 PUSH2 0xD44 JUMP JUMPDEST PUSH2 0xD89 DUP7 DUP4 PUSH2 0xD44 JUMP JUMPDEST SWAP6 POP DUP1 NOT DUP5 AND SWAP4 POP DUP1 DUP7 AND DUP5 OR SWAP3 POP POP POP SWAP4 SWAP3 POP POP POP JUMP JUMPDEST PUSH0 DUP2 SWAP1 POP SWAP2 SWAP1 POP JUMP JUMPDEST PUSH0 DUP2 SWAP1 POP SWAP2 SWAP1 POP JUMP JUMPDEST PUSH0 PUSH2 0xDCD PUSH2 0xDC8 PUSH2 0xDC3 DUP5 PUSH2 0xDA1 JUMP JUMPDEST PUSH2 0xDAA JUMP JUMPDEST PUSH2 0xDA1 JUMP JUMPDEST SWAP1 POP SWAP2 SWAP1 POP JUMP JUMPDEST PUSH0 DUP2 SWAP1 POP SWAP2 SWAP1 POP JUMP JUMPDEST PUSH2 0xDE6 DUP4 PUSH2 0xDB3 JUMP JUMPDEST PUSH2 0xDFA PUSH2 0xDF2 DUP3 PUSH2 0xDD4 JUMP JUMPDEST DUP5 DUP5 SLOAD PUSH2 0xD50 JUMP JUMPDEST DUP3 SSTORE POP POP POP POP JUMP JUMPDEST PUSH0 PUSH0 SWAP1 POP SWAP1 JUMP JUMPDEST PUSH2 0xE11 PUSH2 0xE02 JUMP JUMPDEST PUSH2 0xE1C DUP2 DUP5 DUP5 PUSH2 0xDDD JUMP JUMPDEST POP POP POP JUMP JUMPDEST JUMPDEST DUP2 DUP2 LT ISZERO PUSH2 0xE3F JUMPI PUSH2 0xE34 PUSH0 DUP3 PUSH2 0xE09 JUMP JUMPDEST PUSH1 0x1 DUP2 ADD SWAP1 POP PUSH2 0xE22 JUMP JUMPDEST POP POP JUMP JUMPDEST PUSH1 0x1F DUP3 GT ISZERO PUSH2 0xE84 JUMPI PUSH2 0xE55 DUP2 PUSH2 0xD23 JUMP JUMPDEST PUSH2 0xE5E DUP5 PUSH2 0xD35 JUMP JUMPDEST DUP2 ADD PUSH1 0x20 DUP6 LT ISZERO PUSH2 0xE6D JUMPI DUP2 SWAP1 POP JUMPDEST PUSH2 0xE81 PUSH2 0xE79 DUP6 PUSH2 0xD35 JUMP JUMPDEST DUP4 ADD DUP3 PUSH2 0xE21 JUMP JUMPDEST POP POP JUMPDEST POP POP POP JUMP JUMPDEST PUSH0 DUP3 DUP3 SHR SWAP1 POP SWAP3 SWAP2 POP POP JUMP JUMPDEST PUSH0 PUSH2 0xEA4 PUSH0 NOT DUP5 PUSH1 0x8 MUL PUSH2 0xE89 JUMP JUMPDEST NOT DUP1 DUP4 AND SWAP2 POP POP SWAP3 SWAP2 POP POP JUMP JUMPDEST PUSH0 PUSH2 0xEBC DUP4 DUP4 PUSH2 0xE95 JUMP JUMPDEST SWAP2 POP DUP3 PUSH1 0x2 MUL DUP3 OR SWAP1 POP SWAP3 SWAP2 POP POP JUMP JUMPDEST PUSH2 0xED5 DUP3 PUSH2 0xC8F JUMP JUMPDEST PUSH8 0xFFFFFFFFFFFFFFFF DUP2 GT ISZERO PUSH2 0xEEE JUMPI PUSH2 0xEED PUSH2 0xC99 JUMP JUMPDEST JUMPDEST PUSH2 0xEF8 DUP3 SLOAD PUSH2 0xCF3 JUMP JUMPDEST PUSH2 0xF03 DUP3 DUP3 DUP6 PUSH2 0xE43 JUMP JUMPDEST PUSH0 PUSH1 0x20 SWAP1 POP PUSH1 0x1F DUP4 GT PUSH1 0x1 DUP2 EQ PUSH2 0xF34 JUMPI PUSH0 DUP5 ISZERO PUSH2 0xF22 JUMPI DUP3 DUP8 ADD MLOAD SWAP1 POP JUMPDEST PUSH2 0xF2C DUP6 DUP3 PUSH2 0xEB1 JUMP JUMPDEST DUP7 SSTORE POP PUSH2 0xF93 JUMP JUMPDEST PUSH1 0x1F NOT DUP5 AND PUSH2 0xF42 DUP7 PUSH2 0xD23 JUMP JUMPDEST PUSH0 JUMPDEST DUP3 DUP2 LT ISZERO PUSH2 0xF69 JUMPI DUP5 DUP10 ADD MLOAD DUP3 SSTORE PUSH1 0x1 DUP3 ADD SWAP2 POP PUSH1 0x20 DUP6 ADD SWAP5 POP PUSH1 0x20 DUP2 ADD SWAP1 POP PUSH2 0xF44 JUMP JUMPDEST DUP7 DUP4 LT ISZERO PUSH2 0xF86 JUMPI DUP5 DUP10 ADD MLOAD PUSH2 0xF82 PUSH1 0x1F DUP10 AND DUP3 PUSH2 0xE95 JUMP JUMPDEST DUP4 SSTORE POP JUMPDEST PUSH1 0x1 PUSH1 0x2 DUP9 MUL ADD DUP9 SSTORE POP POP POP JUMPDEST POP POP POP POP POP POP JUMP JUMPDEST PUSH32 0x4E487B7100000000000000000000000000000000000000000000000000000000 PUSH0 MSTORE PUSH1 0x11 PUSH1 0x4 MSTORE PUSH1 0x24 PUSH0 REVERT JUMPDEST PUSH0 PUSH2 0xFD2 DUP3 PUSH2 0xDA1 JUMP JUMPDEST SWAP2 POP PUSH2 0xFDD DUP4 PUSH2 0xDA1 JUMP JUMPDEST SWAP3 POP DUP3 DUP3 MUL PUSH2 0xFEB DUP2 PUSH2 0xDA1 JUMP JUMPDEST SWAP2 POP DUP3 DUP3 DIV DUP5 EQ DUP4 ISZERO OR PUSH2 0x1002 JUMPI PUSH2 0x1001 PUSH2 0xF9B JUMP JUMPDEST JUMPDEST POP SWAP3 SWAP2 POP POP JUMP JUMPDEST PUSH0 PUSH2 0x1013 DUP3 PUSH2 0xDA1 JUMP JUMPDEST SWAP2 POP PUSH2 0x101E DUP4 PUSH2 0xDA1 JUMP JUMPDEST SWAP3 POP DUP3 DUP3 ADD SWAP1 POP DUP1 DUP3 GT ISZERO PUSH2 0x1036 JUMPI PUSH2 0x1035 PUSH2 0xF9B JUMP JUMPDEST JUMPDEST SWAP3 SWAP2 POP POP JUMP JUMPDEST PUSH32 0x4E487B7100000000000000000000000000000000000000000000000000000000 PUSH0 MSTORE PUSH1 0x12 PUSH1 0x4 MSTORE PUSH1 0x24 PUSH0 REVERT JUMPDEST PUSH0 PUSH2 0x1073 DUP3 PUSH2 0xDA1 JUMP JUMPDEST SWAP2 POP PUSH2 0x107E DUP4 PUSH2 0xDA1 JUMP JUMPDEST SWAP3 POP DUP3 PUSH2 0x108E JUMPI PUSH2 0x108D PUSH2 0x103C JUMP JUMPDEST JUMPDEST DUP3 DUP3 DIV SWAP1 POP SWAP3 SWAP2 POP POP JUMP JUMPDEST PUSH0 DUP2 SWAP1 POP SWAP2 SWAP1 POP JUMP JUMPDEST PUSH2 0x10AB DUP2 PUSH2 0x1099 JUMP JUMPDEST DUP3 MSTORE POP POP JUMP JUMPDEST PUSH2 0x10BA DUP2 PUSH2 0xDA1 JUMP JUMPDEST DUP3 MSTORE POP POP JUMP JUMPDEST PUSH2 0x10C9 DUP2 PUSH2 0xC29 JUMP JUMPDEST DUP3 MSTORE POP POP JUMP JUMPDEST PUSH0 PUSH1 0xA0 DUP3 ADD SWAP1 POP PUSH2 0x10E2 PUSH0 DUP4 ADD DUP9 PUSH2 0x10A2 JUMP JUMPDEST PUSH2 0x10EF PUSH1 0x20 DUP4 ADD DUP8 PUSH2 0x10A2 JUMP JUMPDEST PUSH2 0x10FC PUSH1 0x40 DUP4 ADD DUP7 PUSH2 0x10A2 JUMP JUMPDEST PUSH2 0x1109 PUSH1 0x60 DUP4 ADD DUP6 PUSH2 0x10B1 JUMP JUMPDEST PUSH2 0x1116 PUSH1 0x80 DUP4 ADD DUP5 PUSH2 0x10C0 JUMP JUMPDEST SWAP7 SWAP6 POP POP POP POP POP POP JUMP JUMPDEST PUSH0 PUSH1 0x20 DUP3 ADD SWAP1 POP PUSH2 0x1133 PUSH0 DUP4 ADD DUP5 PUSH2 0x10C0 JUMP JUMPDEST SWAP3 SWAP2 POP POP JUMP JUMPDEST PUSH0 DUP3 DUP3 MSTORE PUSH1 0x20 DUP3 ADD SWAP1 POP SWAP3 SWAP2 POP POP JUMP JUMPDEST DUP3 DUP2 DUP4 MCOPY PUSH0 DUP4 DUP4 ADD MSTORE POP POP POP JUMP JUMPDEST PUSH0 PUSH1 0x1F NOT PUSH1 0x1F DUP4 ADD AND SWAP1 POP SWAP2 SWAP1 POP JUMP JUMPDEST PUSH0 PUSH2 0x1171 DUP3 PUSH2 0xC8F JUMP JUMPDEST PUSH2 0x117B DUP2 DUP6 PUSH2 0x1139 JUMP JUMPDEST SWAP4 POP PUSH2 0x118B DUP2 DUP6 PUSH1 0x20 DUP7 ADD PUSH2 0x1149 JUMP JUMPDEST PUSH2 0x1194 DUP2 PUSH2 0x1157 JUMP JUMPDEST DUP5 ADD SWAP2 POP POP SWAP3 SWAP2 POP POP JUMP JUMPDEST PUSH0 PUSH1 0x20 DUP3 ADD SWAP1 POP DUP2 DUP2 SUB PUSH0 DUP4 ADD MSTORE PUSH2 0x11B7 DUP2 DUP5 PUSH2 0x1167 JUMP JUMPDEST SWAP1 POP SWAP3 SWAP2 POP POP JUMP JUMPDEST PUSH0 DUP2 MLOAD SWAP1 POP SWAP2 SWAP1 POP JUMP JUMPDEST PUSH0 DUP2 SWAP1 POP PUSH1 0x20 DUP3 ADD SWAP1 POP SWAP2 SWAP1 POP JUMP JUMPDEST PUSH0 PUSH2 0x11E3 DUP3 MLOAD PUSH2 0x1099 JUMP JUMPDEST DUP1 SWAP2 POP POP SWAP2 SWAP1 POP JUMP JUMPDEST PUSH0 PUSH2 0x11F6 DUP3 PUSH2 0x11BF JUMP JUMPDEST DUP3 PUSH2 0x1200 DUP5 PUSH2 0x11C9 JUMP JUMPDEST SWAP1 POP PUSH2 0x120B DUP2 PUSH2 0x11D8 JUMP JUMPDEST SWAP3 POP PUSH1 0x20 DUP3 LT ISZERO PUSH2 0x124B JUMPI PUSH2 0x1246 PUSH32 0xFFFFFFFFFFFFFFFFFFFFFFFFFFFFFFFFFFFFFFFFFFFFFFFFFFFFFFFFFFFFFFFF DUP4 PUSH1 0x20 SUB PUSH1 0x8 MUL PUSH2 0xD44 JUMP JUMPDEST DUP4 AND SWAP3 POP JUMPDEST POP POP SWAP2 SWAP1 POP JUMP JUMPDEST PUSH0 PUSH1 0x60 DUP3 ADD SWAP1 POP PUSH2 0x1265 PUSH0 DUP4 ADD DUP7 PUSH2 0x10C0 JUMP JUMPDEST PUSH2 0x1272 PUSH1 0x20 DUP4 ADD DUP6 PUSH2 0x10B1 JUMP JUMPDEST PUSH2 0x127F PUSH1 0x40 DUP4 ADD DUP5 PUSH2 0x10B1 JUMP JUMPDEST SWAP5 SWAP4 POP POP POP POP JUMP JUMPDEST PUSH0 PUSH1 0x20 DUP3 ADD SWAP1 POP PUSH2 0x129A PUSH0 DUP4 ADD DUP5 PUSH2 0x10B1 JUMP JUMPDEST SWAP3 SWAP2 POP POP JUMP JUMPDEST PUSH1 0x80 MLOAD PUSH1 0xA0 MLOAD PUSH1 0xC0 MLOAD PUSH1 0xE0 MLOAD PUSH2 0x100 MLOAD PUSH2 0x120 MLOAD PUSH2 0x140 MLOAD PUSH2 0x160 MLOAD PUSH2 0x180 MLOAD PUSH2 0x4D85 PUSH2 0x1313 PUSH0 CODECOPY PUSH0 DUP2 DUP2 PUSH2 0x19A4 ADD MSTORE DUP2 DUP2 PUSH2 0x235E ADD MSTORE PUSH2 0x2557 ADD MSTORE PUSH0 PUSH2 0x14E6 ADD MSTORE PUSH0 PUSH2 0x2F95 ADD MSTORE PUSH0 PUSH2 0x2F5A ADD MSTORE PUSH0 PUSH2 0x3721 ADD MSTORE PUSH0 PUSH2 0x3700 ADD MSTORE PUSH0 PUSH2 0x2A45 ADD MSTORE PUSH0 PUSH2 0x2A9B ADD MSTORE PUSH0 PUSH2 0x2AC4 ADD MSTORE PUSH2 0x4D85 PUSH0 RETURN INVALID PUSH1 0x80 PUSH1 0x40 MSTORE CALLVALUE DUP1 ISZERO PUSH2 0xF JUMPI PUSH0 PUSH0 REVERT JUMPDEST POP PUSH1 0x4 CALLDATASIZE LT PUSH2 0x325 JUMPI PUSH0 CALLDATALOAD PUSH1 0xE0 SHR DUP1 PUSH4 0x4000AEA0 GT PUSH2 0x1B6 JUMPI DUP1 PUSH4 0x95D89B41 GT PUSH2 0x102 JUMPI DUP1 PUSH4 0xD5ABEB01 GT PUSH2 0xA0 JUMPI DUP1 PUSH4 0xE58306F9 GT PUSH2 0x7A JUMPI DUP1 PUSH4 0xE58306F9 EQ PUSH2 0x9C9 JUMPI DUP1 PUSH4 0xF476F399 EQ PUSH2 0x9E5 JUMPI DUP1 PUSH4 0xF92740A0 EQ PUSH2 0xA03 JUMPI DUP1 PUSH4 0xFFA1AD74 EQ PUSH2 0xA21 JUMPI PUSH2 0x325 JUMP JUMPDEST DUP1 PUSH4 0xD5ABEB01 EQ PUSH2 0x94B JUMPI DUP1 PUSH4 0xD8FBE994 EQ PUSH2 0x969 JUMPI DUP1 PUSH4 0xDD62ED3E EQ PUSH2 0x999 JUMPI PUSH2 0x325 JUMP JUMPDEST DUP1 PUSH4 0xC1D34B89 GT PUSH2 0xDC JUMPI DUP1 PUSH4 0xC1D34B89 EQ PUSH2 0x8B3 JUMPI DUP1 PUSH4 0xCAE9CA51 EQ PUSH2 0x8E3 JUMPI DUP1 PUSH4 0xD505ACCF EQ PUSH2 0x913 JUMPI DUP1 PUSH4 0xD547741F EQ PUSH2 0x92F JUMPI PUSH2 0x325 JUMP JUMPDEST DUP1 PUSH4 0x95D89B41 EQ PUSH2 0x847 JUMPI DUP1 PUSH4 0xA217FDDF EQ PUSH2 0x865 JUMPI DUP1 PUSH4 0xA9059CBB EQ PUSH2 0x883 JUMPI PUSH2 0x325 JUMP JUMPDEST DUP1 PUSH4 0x70A08231 GT PUSH2 0x16F JUMPI DUP1 PUSH4 0x8456CB59 GT PUSH2 0x149 JUMPI DUP1 PUSH4 0x8456CB59 EQ PUSH2 0x7CD JUMPI DUP1 PUSH4 0x84B0196E EQ PUSH2 0x7D7 JUMPI DUP1 PUSH4 0x8D1FDF2F EQ PUSH2 0x7FB JUMPI DUP1 PUSH4 0x91D14854 EQ PUSH2 0x817 JUMPI PUSH2 0x325 JUMP JUMPDEST DUP1 PUSH4 0x70A08231 EQ PUSH2 0x751 JUMPI DUP1 PUSH4 0x79CC6790 EQ PUSH2 0x781 JUMPI DUP1 PUSH4 0x7ECEBE00 EQ PUSH2 0x79D JUMPI PUSH2 0x325 JUMP JUMPDEST DUP1 PUSH4 0x4000AEA0 EQ PUSH2 0x693 JUMPI DUP1 PUSH4 0x42966C68 EQ PUSH2 0x6C3 JUMPI DUP1 PUSH4 0x45C8B1A6 EQ PUSH2 0x6DF JUMPI DUP1 PUSH4 0x4D474898 EQ PUSH2 0x6FB JUMPI DUP1 PUSH4 0x5A62D5CA EQ PUSH2 0x717 JUMPI DUP1 PUSH4 0x5C975ABB EQ PUSH2 0x733 JUMPI PUSH2 0x325 JUMP JUMPDEST DUP1 PUSH4 0x2487C1C0 GT PUSH2 0x275 JUMPI DUP1 PUSH4 0x33FDBBE5 GT PUSH2 0x22E JUMPI DUP1 PUSH4 0x378DC3DC GT PUSH2 0x208 JUMPI DUP1 PUSH4 0x378DC3DC EQ PUSH2 0x61D JUMPI DUP1 PUSH4 0x3A6EB318 EQ PUSH2 0x63B JUMPI DUP1 PUSH4 0x3BBB5EE8 EQ PUSH2 0x66B JUMPI DUP1 PUSH4 0x3F4BA83A EQ PUSH2 0x689 JUMPI PUSH2 0x325 JUMP JUMPDEST DUP1 PUSH4 0x33FDBBE5 EQ PUSH2 0x5C5 JUMPI DUP1 PUSH4 0x3644E515 EQ PUSH2 0x5E3 JUMPI DUP1 PUSH4 0x36568ABE EQ PUSH2 0x601 JUMPI PUSH2 0x325 JUMP JUMPDEST DUP1 PUSH4 0x2487C1C0 EQ PUSH2 0x4EF JUMPI DUP1 PUSH4 0x248A9CA3 EQ PUSH2 0x50D JUMPI DUP1 PUSH4 0x25C2F230 EQ PUSH2 0x53D JUMPI DUP1 PUSH4 0x2F2FF15D EQ PUSH2 0x55B JUMPI DUP1 PUSH4 0x313CE567 EQ PUSH2 0x577 JUMPI DUP1 PUSH4 0x3177029F EQ PUSH2 0x595 JUMPI PUSH2 0x325 JUMP JUMPDEST DUP1 PUSH4 0x9B7DA7B GT PUSH2 0x2E2 JUMPI DUP1 PUSH4 0x1CC8C0EE GT PUSH2 0x2BC JUMPI DUP1 PUSH4 0x1CC8C0EE EQ PUSH2 0x469 JUMPI DUP1 PUSH4 0x1E89D545 EQ PUSH2 0x485 JUMPI DUP1 PUSH4 0x21395C02 EQ PUSH2 0x4A1 JUMPI DUP1 PUSH4 0x23B872DD EQ PUSH2 0x4BF JUMPI PUSH2 0x325 JUMP JUMPDEST DUP1 PUSH4 0x9B7DA7B EQ PUSH2 0x3FD JUMPI DUP1 PUSH4 0x1296EE62 EQ PUSH2 0x41B JUMPI DUP1 PUSH4 0x18160DDD EQ PUSH2 0x44B JUMPI PUSH2 0x325 JUMP JUMPDEST DUP1 PUSH4 0x1028755 EQ PUSH2 0x329 JUMPI DUP1 PUSH4 0x1CF1E9A EQ PUSH2 0x347 JUMPI DUP1 PUSH4 0x1FFC9A7 EQ PUSH2 0x363 JUMPI DUP1 PUSH4 0x6DD0419 EQ PUSH2 0x393 JUMPI DUP1 PUSH4 0x6FDDE03 EQ PUSH2 0x3AF JUMPI DUP1 PUSH4 0x95EA7B3 EQ PUSH2 0x3CD JUMPI JUMPDEST PUSH0 PUSH0 REVERT JUMPDEST PUSH2 0x331 PUSH2 0xA3F JUMP JUMPDEST PUSH1 0x40 MLOAD PUSH2 0x33E SWAP2 SWAP1 PUSH2 0x3E9A JUMP JUMPDEST PUSH1 0x40 MLOAD DUP1 SWAP2 SUB SWAP1 RETURN JUMPDEST PUSH2 0x361 PUSH1 0x4 DUP1 CALLDATASIZE SUB DUP2 ADD SWAP1 PUSH2 0x35C SWAP2 SWAP1 PUSH2 0x3F1E JUMP JUMPDEST PUSH2 0xA45 JUMP JUMPDEST STOP JUMPDEST PUSH2 0x37D PUSH1 0x4 DUP1 CALLDATASIZE SUB DUP2 ADD SWAP1 PUSH2 0x378 SWAP2 SWAP1 PUSH2 0x3F9E JUMP JUMPDEST PUSH2 0xBBD JUMP JUMPDEST PUSH1 0x40 MLOAD PUSH2 0x38A SWAP2 SWAP1 PUSH2 0x3FE3 JUMP JUMPDEST PUSH1 0x40 MLOAD DUP1 SWAP2 SUB SWAP1 RETURN JUMPDEST PUSH2 0x3AD PUSH1 0x4 DUP1 CALLDATASIZE SUB DUP2 ADD SWAP1 PUSH2 0x3A8 SWAP2 SWAP1 PUSH2 0x4026 JUMP JUMPDEST PUSH2 0xBCE JUMP JUMPDEST STOP JUMPDEST PUSH2 0x3B7 PUSH2 0xD90 JUMP JUMPDEST PUSH1 0x40 MLOAD PUSH2 0x3C4 SWAP2 SWAP1 PUSH2 0x40D4 JUMP JUMPDEST PUSH1 0x40 MLOAD DUP1 SWAP2 SUB SWAP1 RETURN JUMPDEST PUSH2 0x3E7 PUSH1 0x4 DUP1 CALLDATASIZE SUB DUP2 ADD SWAP1 PUSH2 0x3E2 SWAP2 SWAP1 PUSH2 0x4026 JUMP JUMPDEST PUSH2 0xE20 JUMP JUMPDEST PUSH1 0x40 MLOAD PUSH2 0x3F4 SWAP2 SWAP1 PUSH2 0x3FE3 JUMP JUMPDEST PUSH1 0x40 MLOAD DUP1 SWAP2 SUB SWAP1 RETURN JUMPDEST PUSH2 0x405 PUSH2 0xE42 JUMP JUMPDEST PUSH1 0x40 MLOAD PUSH2 0x412 SWAP2 SWAP1 PUSH2 0x3E9A JUMP JUMPDEST PUSH1 0x40 MLOAD DUP1 SWAP2 SUB SWAP1 RETURN JUMPDEST PUSH2 0x435 PUSH1 0x4 DUP1 CALLDATASIZE SUB DUP2 ADD SWAP1 PUSH2 0x430 SWAP2 SWAP1 PUSH2 0x4026 JUMP JUMPDEST PUSH2 0xE48 JUMP JUMPDEST PUSH1 0x40 MLOAD PUSH2 0x442 SWAP2 SWAP1 PUSH2 0x3FE3 JUMP JUMPDEST PUSH1 0x40 MLOAD DUP1 SWAP2 SUB SWAP1 RETURN JUMPDEST PUSH2 0x453 PUSH2 0xE6A JUMP JUMPDEST PUSH1 0x40 MLOAD PUSH2 0x460 SWAP2 SWAP1 PUSH2 0x3E9A JUMP JUMPDEST PUSH1 0x40 MLOAD DUP1 SWAP2 SUB SWAP1 RETURN JUMPDEST PUSH2 0x483 PUSH1 0x4 DUP1 CALLDATASIZE SUB DUP2 ADD SWAP1 PUSH2 0x47E SWAP2 SWAP1 PUSH2 0x4127 JUMP JUMPDEST PUSH2 0xE73 JUMP JUMPDEST STOP JUMPDEST PUSH2 0x49F PUSH1 0x4 DUP1 CALLDATASIZE SUB DUP2 ADD SWAP1 PUSH2 0x49A SWAP2 SWAP1 PUSH2 0x4208 JUMP JUMPDEST PUSH2 0xF71 JUMP JUMPDEST STOP JUMPDEST PUSH2 0x4A9 PUSH2 0x13A7 JUMP JUMPDEST PUSH1 0x40 MLOAD PUSH2 0x4B6 SWAP2 SWAP1 PUSH2 0x3E9A JUMP JUMPDEST PUSH1 0x40 MLOAD DUP1 SWAP2 SUB SWAP1 RETURN JUMPDEST PUSH2 0x4D9 PUSH1 0x4 DUP1 CALLDATASIZE SUB DUP2 ADD SWAP1 PUSH2 0x4D4 SWAP2 SWAP1 PUSH2 0x4286 JUMP JUMPDEST PUSH2 0x13AD JUMP JUMPDEST PUSH1 0x40 MLOAD PUSH2 0x4E6 SWAP2 SWAP1 PUSH2 0x3FE3 JUMP JUMPDEST PUSH1 0x40 MLOAD DUP1 SWAP2 SUB SWAP1 RETURN JUMPDEST PUSH2 0x4F7 PUSH2 0x13DB JUMP JUMPDEST PUSH1 0x40 MLOAD PUSH2 0x504 SWAP2 SWAP1 PUSH2 0x3E9A JUMP JUMPDEST PUSH1 0x40 MLOAD DUP1 SWAP2 SUB SWAP1 RETURN JUMPDEST PUSH2 0x527 PUSH1 0x4 DUP1 CALLDATASIZE SUB DUP2 ADD SWAP1 PUSH2 0x522 SWAP2 SWAP1 PUSH2 0x4127 JUMP JUMPDEST PUSH2 0x13E1 JUMP JUMPDEST PUSH1 0x40 MLOAD PUSH2 0x534 SWAP2 SWAP1 PUSH2 0x42E5 JUMP JUMPDEST PUSH1 0x40 MLOAD DUP1 SWAP2 SUB SWAP1 RETURN JUMPDEST PUSH2 0x545 PUSH2 0x13FE JUMP JUMPDEST PUSH1 0x40 MLOAD PUSH2 0x552 SWAP2 SWAP1 PUSH2 0x3E9A JUMP JUMPDEST PUSH1 0x40 MLOAD DUP1 SWAP2 SUB SWAP1 RETURN JUMPDEST PUSH2 0x575 PUSH1 0x4 DUP1 CALLDATASIZE SUB DUP2 ADD SWAP1 PUSH2 0x570 SWAP2 SWAP1 PUSH2 0x42FE JUMP JUMPDEST PUSH2 0x1403 JUMP JUMPDEST STOP JUMPDEST PUSH2 0x57F PUSH2 0x1425 JUMP JUMPDEST PUSH1 0x40 MLOAD PUSH2 0x58C SWAP2 SWAP1 PUSH2 0x4357 JUMP JUMPDEST PUSH1 0x40 MLOAD DUP1 SWAP2 SUB SWAP1 RETURN JUMPDEST PUSH2 0x5AF PUSH1 0x4 DUP1 CALLDATASIZE SUB DUP2 ADD SWAP1 PUSH2 0x5AA SWAP2 SWAP1 PUSH2 0x4026 JUMP JUMPDEST PUSH2 0x142D JUMP JUMPDEST PUSH1 0x40 MLOAD PUSH2 0x5BC SWAP2 SWAP1 PUSH2 0x3FE3 JUMP JUMPDEST PUSH1 0x40 MLOAD DUP1 SWAP2 SUB SWAP1 RETURN JUMPDEST PUSH2 0x5CD PUSH2 0x144F JUMP JUMPDEST PUSH1 0x40 MLOAD PUSH2 0x5DA SWAP2 SWAP1 PUSH2 0x3E9A JUMP JUMPDEST PUSH1 0x40 MLOAD DUP1 SWAP2 SUB SWAP1 RETURN JUMPDEST PUSH2 0x5EB PUSH2 0x145B JUMP JUMPDEST PUSH1 0x40 MLOAD PUSH2 0x5F8 SWAP2 SWAP1 PUSH2 0x42E5 JUMP JUMPDEST PUSH1 0x40 MLOAD DUP1 SWAP2 SUB SWAP1 RETURN JUMPDEST PUSH2 0x61B PUSH1 0x4 DUP1 CALLDATASIZE SUB DUP2 ADD SWAP1 PUSH2 0x616 SWAP2 SWAP1 PUSH2 0x42FE JUMP JUMPDEST PUSH2 0x1469 JUMP JUMPDEST STOP JUMPDEST PUSH2 0x625 PUSH2 0x14E4 JUMP JUMPDEST PUSH1 0x40 MLOAD PUSH2 0x632 SWAP2 SWAP1 PUSH2 0x3E9A JUMP JUMPDEST PUSH1 0x40 MLOAD DUP1 SWAP2 SUB SWAP1 RETURN JUMPDEST PUSH2 0x655 PUSH1 0x4 DUP1 CALLDATASIZE SUB DUP2 ADD SWAP1 PUSH2 0x650 SWAP2 SWAP1 PUSH2 0x4370 JUMP JUMPDEST PUSH2 0x1508 JUMP JUMPDEST PUSH1 0x40 MLOAD PUSH2 0x662 SWAP2 SWAP1 PUSH2 0x3E9A JUMP JUMPDEST PUSH1 0x40 MLOAD DUP1 SWAP2 SUB SWAP1 RETURN JUMPDEST PUSH2 0x673 PUSH2 0x161E JUMP JUMPDEST PUSH1 0x40 MLOAD PUSH2 0x680 SWAP2 SWAP1 PUSH2 0x3E9A JUMP JUMPDEST PUSH1 0x40 MLOAD DUP1 SWAP2 SUB SWAP1 RETURN JUMPDEST PUSH2 0x691 PUSH2 0x1624 JUMP JUMPDEST STOP JUMPDEST PUSH2 0x6AD PUSH1 0x4 DUP1 CALLDATASIZE SUB DUP2 ADD SWAP1 PUSH2 0x6A8 SWAP2 SWAP1 PUSH2 0x44C3 JUMP JUMPDEST PUSH2 0x1659 JUMP JUMPDEST PUSH1 0x40 MLOAD PUSH2 0x6BA SWAP2 SWAP1 PUSH2 0x3FE3 JUMP JUMPDEST PUSH1 0x40 MLOAD DUP1 SWAP2 SUB SWAP1 RETURN JUMPDEST PUSH2 0x6DD PUSH1 0x4 DUP1 CALLDATASIZE SUB DUP2 ADD SWAP1 PUSH2 0x6D8 SWAP2 SWAP1 PUSH2 0x4370 JUMP JUMPDEST PUSH2 0x16CD JUMP JUMPDEST STOP JUMPDEST PUSH2 0x6F9 PUSH1 0x4 DUP1 CALLDATASIZE SUB DUP2 ADD SWAP1 PUSH2 0x6F4 SWAP2 SWAP1 PUSH2 0x3F1E JUMP JUMPDEST PUSH2 0x16E1 JUMP JUMPDEST STOP JUMPDEST PUSH2 0x715 PUSH1 0x4 DUP1 CALLDATASIZE SUB DUP2 ADD SWAP1 PUSH2 0x710 SWAP2 SWAP1 PUSH2 0x4370 JUMP JUMPDEST PUSH2 0x1859 JUMP JUMPDEST STOP JUMPDEST PUSH2 0x731 PUSH1 0x4 DUP1 CALLDATASIZE SUB DUP2 ADD SWAP1 PUSH2 0x72C SWAP2 SWAP1 PUSH2 0x452F JUMP JUMPDEST PUSH2 0x1BFA JUMP JUMPDEST STOP JUMPDEST PUSH2 0x73B PUSH2 0x1D1D JUMP JUMPDEST PUSH1 0x40 MLOAD PUSH2 0x748 SWAP2 SWAP1 PUSH2 0x3FE3 JUMP JUMPDEST PUSH1 0x40 MLOAD DUP1 SWAP2 SUB SWAP1 RETURN JUMPDEST PUSH2 0x76B PUSH1 0x4 DUP1 CALLDATASIZE SUB DUP2 ADD SWAP1 PUSH2 0x766 SWAP2 SWAP1 PUSH2 0x3F1E JUMP JUMPDEST PUSH2 0x1D32 JUMP JUMPDEST PUSH1 0x40 MLOAD PUSH2 0x778 SWAP2 SWAP1 PUSH2 0x3E9A JUMP JUMPDEST PUSH1 0x40 MLOAD DUP1 SWAP2 SUB SWAP1 RETURN JUMPDEST PUSH2 0x79B PUSH1 0x4 DUP1 CALLDATASIZE SUB DUP2 ADD SWAP1 PUSH2 0x796 SWAP2 SWAP1 PUSH2 0x4026 JUMP JUMPDEST PUSH2 0x1D77 JUMP JUMPDEST STOP JUMPDEST PUSH2 0x7B7 PUSH1 0x4 DUP1 CALLDATASIZE SUB DUP2 ADD SWAP1 PUSH2 0x7B2 SWAP2 SWAP1 PUSH2 0x3F1E JUMP JUMPDEST PUSH2 0x1D97 JUMP JUMPDEST PUSH1 0x40 MLOAD PUSH2 0x7C4 SWAP2 SWAP1 PUSH2 0x3E9A JUMP JUMPDEST PUSH1 0x40 MLOAD DUP1 SWAP2 SUB SWAP1 RETURN JUMPDEST PUSH2 0x7D5 PUSH2 0x1DA8 JUMP JUMPDEST STOP JUMPDEST PUSH2 0x7DF PUSH2 0x1DDD JUMP JUMPDEST PUSH1 0x40 MLOAD PUSH2 0x7F2 SWAP8 SWAP7 SWAP6 SWAP5 SWAP4 SWAP3 SWAP2 SWAP1 PUSH2 0x466D JUMP JUMPDEST PUSH1 0x40 MLOAD DUP1 SWAP2 SUB SWAP1 RETURN JUMPDEST PUSH2 0x815 PUSH1 0x4 DUP1 CALLDATASIZE SUB DUP2 ADD SWAP1 PUSH2 0x810 SWAP2 SWAP1 PUSH2 0x3F1E JUMP JUMPDEST PUSH2 0x1E82 JUMP JUMPDEST STOP JUMPDEST PUSH2 0x831 PUSH1 0x4 DUP1 CALLDATASIZE SUB DUP2 ADD SWAP1 PUSH2 0x82C SWAP2 SWAP1 PUSH2 0x42FE JUMP JUMPDEST PUSH2 0x1FFC JUMP JUMPDEST PUSH1 0x40 MLOAD PUSH2 0x83E SWAP2 SWAP1 PUSH2 0x3FE3 JUMP JUMPDEST PUSH1 0x40 MLOAD DUP1 SWAP2 SUB SWAP1 RETURN JUMPDEST PUSH2 0x84F PUSH2 0x2060 JUMP JUMPDEST PUSH1 0x40 MLOAD PUSH2 0x85C SWAP2 SWAP1 PUSH2 0x40D4 JUMP JUMPDEST PUSH1 0x40 MLOAD DUP1 SWAP2 SUB SWAP1 RETURN JUMPDEST PUSH2 0x86D PUSH2 0x20F0 JUMP JUMPDEST PUSH1 0x40 MLOAD PUSH2 0x87A SWAP2 SWAP1 PUSH2 0x42E5 JUMP JUMPDEST PUSH1 0x40 MLOAD DUP1 SWAP2 SUB SWAP1 RETURN JUMPDEST PUSH2 0x89D PUSH1 0x4 DUP1 CALLDATASIZE SUB DUP2 ADD SWAP1 PUSH2 0x898 SWAP2 SWAP1 PUSH2 0x4026 JUMP JUMPDEST PUSH2 0x20F6 JUMP JUMPDEST PUSH1 0x40 MLOAD PUSH2 0x8AA SWAP2 SWAP1 PUSH2 0x3FE3 JUMP JUMPDEST PUSH1 0x40 MLOAD DUP1 SWAP2 SUB SWAP1 RETURN JUMPDEST PUSH2 0x8CD PUSH1 0x4 DUP1 CALLDATASIZE SUB DUP2 ADD SWAP1 PUSH2 0x8C8 SWAP2 SWAP1 PUSH2 0x46EF JUMP JUMPDEST PUSH2 0x2118 JUMP JUMPDEST PUSH1 0x40 MLOAD PUSH2 0x8DA SWAP2 SWAP1 PUSH2 0x3FE3 JUMP JUMPDEST PUSH1 0x40 MLOAD DUP1 SWAP2 SUB SWAP1 RETURN JUMPDEST PUSH2 0x8FD PUSH1 0x4 DUP1 CALLDATASIZE SUB DUP2 ADD SWAP1 PUSH2 0x8F8 SWAP2 SWAP1 PUSH2 0x44C3 JUMP JUMPDEST PUSH2 0x2189 JUMP JUMPDEST PUSH1 0x40 MLOAD PUSH2 0x90A SWAP2 SWAP1 PUSH2 0x3FE3 JUMP JUMPDEST PUSH1 0x40 MLOAD DUP1 SWAP2 SUB SWAP1 RETURN JUMPDEST PUSH2 0x92D PUSH1 0x4 DUP1 CALLDATASIZE SUB DUP2 ADD SWAP1 PUSH2 0x928 SWAP2 SWAP1 PUSH2 0x4799 JUMP JUMPDEST PUSH2 0x21F5 JUMP JUMPDEST STOP JUMPDEST PUSH2 0x949 PUSH1 0x4 DUP1 CALLDATASIZE SUB DUP2 ADD SWAP1 PUSH2 0x944 SWAP2 SWAP1 PUSH2 0x42FE JUMP JUMPDEST PUSH2 0x233A JUMP JUMPDEST STOP JUMPDEST PUSH2 0x953 PUSH2 0x235C JUMP JUMPDEST PUSH1 0x40 MLOAD PUSH2 0x960 SWAP2 SWAP1 PUSH2 0x3E9A JUMP JUMPDEST PUSH1 0x40 MLOAD DUP1 SWAP2 SUB SWAP1 RETURN JUMPDEST PUSH2 0x983 PUSH1 0x4 DUP1 CALLDATASIZE SUB DUP2 ADD SWAP1 PUSH2 0x97E SWAP2 SWAP1 PUSH2 0x4286 JUMP JUMPDEST PUSH2 0x2380 JUMP JUMPDEST PUSH1 0x40 MLOAD PUSH2 0x990 SWAP2 SWAP1 PUSH2 0x3FE3 JUMP JUMPDEST PUSH1 0x40 MLOAD DUP1 SWAP2 SUB SWAP1 RETURN JUMPDEST PUSH2 0x9B3 PUSH1 0x4 DUP1 CALLDATASIZE SUB DUP2 ADD SWAP1 PUSH2 0x9AE SWAP2 SWAP1 PUSH2 0x4836 JUMP JUMPDEST PUSH2 0x23A4 JUMP JUMPDEST PUSH1 0x40 MLOAD PUSH2 0x9C0 SWAP2 SWAP1 PUSH2 0x3E9A JUMP JUMPDEST PUSH1 0x40 MLOAD DUP1 SWAP2 SUB SWAP1 RETURN JUMPDEST PUSH2 0x9E3 PUSH1 0x4 DUP1 CALLDATASIZE SUB DUP2 ADD SWAP1 PUSH2 0x9DE SWAP2 SWAP1 PUSH2 0x4026 JUMP JUMPDEST PUSH2 0x2426 JUMP JUMPDEST STOP JUMPDEST PUSH2 0x9ED PUSH2 0x2612 JUMP JUMPDEST PUSH1 0x40 MLOAD PUSH2 0x9FA SWAP2 SWAP1 PUSH2 0x42E5 JUMP JUMPDEST PUSH1 0x40 MLOAD DUP1 SWAP2 SUB SWAP1 RETURN JUMPDEST PUSH2 0xA0B PUSH2 0x2618 JUMP JUMPDEST PUSH1 0x40 MLOAD PUSH2 0xA18 SWAP2 SWAP1 PUSH2 0x3E9A JUMP JUMPDEST PUSH1 0x40 MLOAD DUP1 SWAP2 SUB SWAP1 RETURN JUMPDEST PUSH2 0xA29 PUSH2 0x261E JUMP JUMPDEST PUSH1 0x40 MLOAD PUSH2 0xA36 SWAP2 SWAP1 PUSH2 0x40D4 JUMP JUMPDEST PUSH1 0x40 MLOAD DUP1 SWAP2 SUB SWAP1 RETURN JUMPDEST PUSH1 0xF SLOAD DUP2 JUMP JUMPDEST PUSH0 PUSH0 SHL PUSH2 0xA51 DUP2 PUSH2 0x2657 JUMP JUMPDEST PUSH0 PUSH20 0xFFFFFFFFFFFFFFFFFFFFFFFFFFFFFFFFFFFFFFFF AND DUP3 PUSH20 0xFFFFFFFFFFFFFFFFFFFFFFFFFFFFFFFFFFFFFFFF AND EQ ISZERO PUSH1 0x40 MLOAD DUP1 PUSH1 0x40 ADD PUSH1 0x40 MSTORE DUP1 PUSH1 0xC DUP2 MSTORE PUSH1 0x20 ADD PUSH32 0x5A45524F5F414444524553530000000000000000000000000000000000000000 DUP2 MSTORE POP SWAP1 PUSH2 0xAF8 JUMPI PUSH1 0x40 MLOAD PUSH32 0x8C379A000000000000000000000000000000000000000000000000000000000 DUP2 MSTORE PUSH1 0x4 ADD PUSH2 0xAEF SWAP2 SWAP1 PUSH2 0x40D4 JUMP JUMPDEST PUSH1 0x40 MLOAD DUP1 SWAP2 SUB SWAP1 REVERT JUMPDEST POP PUSH0 PUSH1 0xC PUSH0 SWAP1 SLOAD SWAP1 PUSH2 0x100 EXP SWAP1 DIV PUSH20 0xFFFFFFFFFFFFFFFFFFFFFFFFFFFFFFFFFFFFFFFF AND SWAP1 POP DUP3 PUSH1 0xC PUSH0 PUSH2 0x100 EXP DUP2 SLOAD DUP2 PUSH20 0xFFFFFFFFFFFFFFFFFFFFFFFFFFFFFFFFFFFFFFFF MUL NOT AND SWAP1 DUP4 PUSH20 0xFFFFFFFFFFFFFFFFFFFFFFFFFFFFFFFFFFFFFFFF AND MUL OR SWAP1 SSTORE POP DUP3 PUSH20 0xFFFFFFFFFFFFFFFFFFFFFFFFFFFFFFFFFFFFFFFF AND DUP2 PUSH20 0xFFFFFFFFFFFFFFFFFFFFFFFFFFFFFFFFFFFFFFFF AND PUSH32 0xA193C016AAA1A76276AF93FB2072D90D99DE0A14EEE4AD76A9CAE4299397BF3D PUSH1 0x40 MLOAD PUSH1 0x40 MLOAD DUP1 SWAP2 SUB SWAP1 LOG3 POP POP POP JUMP JUMPDEST PUSH0 PUSH2 0xBC7 DUP3 PUSH2 0x266B JUMP JUMPDEST SWAP1 POP SWAP2 SWAP1 POP JUMP JUMPDEST PUSH0 PUSH0 SHL PUSH2 0xBDA DUP2 PUSH2 0x2657 JUMP JUMPDEST PUSH0 DUP3 GT PUSH1 0x40 MLOAD DUP1 PUSH1 0x40 ADD PUSH1 0x40 MSTORE DUP1 PUSH1 0xB DUP2 MSTORE PUSH1 0x20 ADD PUSH32 0x414D4F554E545F5A45524F000000000000000000000000000000000000000000 DUP2 MSTORE POP SWAP1 PUSH2 0xC54 JUMPI PUSH1 0x40 MLOAD PUSH32 0x8C379A000000000000000000000000000000000000000000000000000000000 DUP2 MSTORE PUSH1 0x4 ADD PUSH2 0xC4B SWAP2 SWAP1 PUSH2 0x40D4 JUMP JUMPDEST PUSH1 0x40 MLOAD DUP1 SWAP2 SUB SWAP1 REVERT JUMPDEST POP PUSH0 PUSH20 0xFFFFFFFFFFFFFFFFFFFFFFFFFFFFFFFFFFFFFFFF AND DUP4 PUSH20 0xFFFFFFFFFFFFFFFFFFFFFFFFFFFFFFFFFFFFFFFF AND EQ ISZERO PUSH1 0x40 MLOAD DUP1 PUSH1 0x40 ADD PUSH1 0x40 MSTORE DUP1 PUSH1 0xC DUP2 MSTORE PUSH1 0x20 ADD PUSH32 0x5A45524F5F414444524553530000000000000000000000000000000000000000 DUP2 MSTORE POP SWAP1 PUSH2 0xCFC JUMPI PUSH1 0x40 MLOAD PUSH32 0x8C379A000000000000000000000000000000000000000000000000000000000 DUP2 MSTORE PUSH1 0x4 ADD PUSH2 0xCF3 SWAP2 SWAP1 PUSH2 0x40D4 JUMP JUMPDEST PUSH1 0x40 MLOAD DUP1 SWAP2 SUB SWAP1 REVERT JUMPDEST POP DUP2 PUSH2 0xD07 DUP5 PUSH2 0x1D32 JUMP JUMPDEST LT ISZERO PUSH1 0x40 MLOAD DUP1 PUSH1 0x40 ADD PUSH1 0x40 MSTORE DUP1 PUSH1 0x14 DUP2 MSTORE PUSH1 0x20 ADD PUSH32 0x494E53554646494349454E545F42414C414E4345000000000000000000000000 DUP2 MSTORE POP SWAP1 PUSH2 0xD80 JUMPI PUSH1 0x40 MLOAD PUSH32 0x8C379A000000000000000000000000000000000000000000000000000000000 DUP2 MSTORE PUSH1 0x4 ADD PUSH2 0xD77 SWAP2 SWAP1 PUSH2 0x40D4 JUMP JUMPDEST PUSH1 0x40 MLOAD DUP1 SWAP2 SUB SWAP1 REVERT JUMPDEST POP PUSH2 0xD8B DUP4 DUP4 PUSH2 0x26E4 JUMP JUMPDEST POP POP POP JUMP JUMPDEST PUSH1 0x60 PUSH1 0x3 DUP1 SLOAD PUSH2 0xD9F SWAP1 PUSH2 0x48A1 JUMP JUMPDEST DUP1 PUSH1 0x1F ADD PUSH1 0x20 DUP1 SWAP2 DIV MUL PUSH1 0x20 ADD PUSH1 0x40 MLOAD SWAP1 DUP2 ADD PUSH1 0x40 MSTORE DUP1 SWAP3 SWAP2 SWAP1 DUP2 DUP2 MSTORE PUSH1 0x20 ADD DUP3 DUP1 SLOAD PUSH2 0xDCB SWAP1 PUSH2 0x48A1 JUMP JUMPDEST DUP1 ISZERO PUSH2 0xE16 JUMPI DUP1 PUSH1 0x1F LT PUSH2 0xDED JUMPI PUSH2 0x100 DUP1 DUP4 SLOAD DIV MUL DUP4 MSTORE SWAP2 PUSH1 0x20 ADD SWAP2 PUSH2 0xE16 JUMP JUMPDEST DUP3 ADD SWAP2 SWAP1 PUSH0 MSTORE PUSH1 0x20 PUSH0 KECCAK256 SWAP1 JUMPDEST DUP2 SLOAD DUP2 MSTORE SWAP1 PUSH1 0x1 ADD SWAP1 PUSH1 0x20 ADD DUP1 DUP4 GT PUSH2 0xDF9 JUMPI DUP3 SWAP1 SUB PUSH1 0x1F AND DUP3 ADD SWAP2 JUMPDEST POP POP POP POP POP SWAP1 POP SWAP1 JUMP JUMPDEST PUSH0 PUSH0 PUSH2 0xE2A PUSH2 0x2763 JUMP JUMPDEST SWAP1 POP PUSH2 0xE37 DUP2 DUP6 DUP6 PUSH2 0x276A JUMP JUMPDEST PUSH1 0x1 SWAP2 POP POP SWAP3 SWAP2 POP POP JUMP JUMPDEST PUSH1 0x10 SLOAD DUP2 JUMP JUMPDEST PUSH0 PUSH2 0xE62 DUP4 DUP4 PUSH1 0x40 MLOAD DUP1 PUSH1 0x20 ADD PUSH1 0x40 MSTORE DUP1 PUSH0 DUP2 MSTORE POP PUSH2 0x1659 JUMP JUMPDEST SWAP1 POP SWAP3 SWAP2 POP POP JUMP JUMPDEST PUSH0 PUSH1 0x2 SLOAD SWAP1 POP SWAP1 JUMP JUMPDEST PUSH32 0xF996DA754C790E95D5C7CA3330CFCAD529487FE9D1D8EDB7AFC65076FDF9ADB4 PUSH2 0xE9D DUP2 PUSH2 0x2657 JUMP JUMPDEST PUSH0 PUSH0 SHL DUP3 EQ ISZERO PUSH1 0x40 MLOAD DUP1 PUSH1 0x40 ADD PUSH1 0x40 MSTORE DUP1 PUSH1 0xE DUP2 MSTORE PUSH1 0x20 ADD PUSH32 0x494E56414C49445F4E554D424552000000000000000000000000000000000000 DUP2 MSTORE POP SWAP1 PUSH2 0xF1A JUMPI PUSH1 0x40 MLOAD PUSH32 0x8C379A000000000000000000000000000000000000000000000000000000000 DUP2 MSTORE PUSH1 0x4 ADD PUSH2 0xF11 SWAP2 SWAP1 PUSH2 0x40D4 JUMP JUMPDEST PUSH1 0x40 MLOAD DUP1 SWAP2 SUB SWAP1 REVERT JUMPDEST POP DUP2 CALLER PUSH20 0xFFFFFFFFFFFFFFFFFFFFFFFFFFFFFFFFFFFFFFFF AND PUSH32 0xDAD5C553AEAFC181B192288EEBD4C0C8CEF3A1429AFCFDADC6772A1231255169 PUSH1 0x40 MLOAD PUSH1 0x40 MLOAD DUP1 SWAP2 SUB SWAP1 LOG3 TIMESTAMP PUSH1 0x10 DUP2 SWAP1 SSTORE POP DUP2 PUSH1 0x11 DUP2 SWAP1 SSTORE POP POP POP JUMP JUMPDEST PUSH2 0xF79 PUSH2 0x277C JUMP JUMPDEST PUSH32 0xA3F35647C2B3793E7C9389E38D1470FFD389CA0E6275801F484F5C1571E48992 PUSH2 0xFA3 DUP2 PUSH2 0x2657 JUMP JUMPDEST PUSH1 0x64 DUP6 DUP6 SWAP1 POP GT ISZERO PUSH1 0x40 MLOAD DUP1 PUSH1 0x40 ADD PUSH1 0x40 MSTORE DUP1 PUSH1 0x18 DUP2 MSTORE PUSH1 0x20 ADD PUSH32 0x455843454544494E475F3130305F524543495049454E54530000000000000000 DUP2 MSTORE POP SWAP1 PUSH2 0x1022 JUMPI PUSH1 0x40 MLOAD PUSH32 0x8C379A000000000000000000000000000000000000000000000000000000000 DUP2 MSTORE PUSH1 0x4 ADD PUSH2 0x1019 SWAP2 SWAP1 PUSH2 0x40D4 JUMP JUMPDEST PUSH1 0x40 MLOAD DUP1 SWAP2 SUB SWAP1 REVERT JUMPDEST POP PUSH1 0x64 DUP4 DUP4 SWAP1 POP GT ISZERO PUSH1 0x40 MLOAD DUP1 PUSH1 0x40 ADD PUSH1 0x40 MSTORE DUP1 PUSH1 0x15 DUP2 MSTORE PUSH1 0x20 ADD PUSH32 0x455843454544494E475F3130305F414D4F554E54530000000000000000000000 DUP2 MSTORE POP SWAP1 PUSH2 0x10A2 JUMPI PUSH1 0x40 MLOAD PUSH32 0x8C379A000000000000000000000000000000000000000000000000000000000 DUP2 MSTORE PUSH1 0x4 ADD PUSH2 0x1099 SWAP2 SWAP1 PUSH2 0x40D4 JUMP JUMPDEST PUSH1 0x40 MLOAD DUP1 SWAP2 SUB SWAP1 REVERT JUMPDEST POP DUP3 DUP3 SWAP1 POP DUP6 DUP6 SWAP1 POP EQ PUSH1 0x40 MLOAD DUP1 PUSH1 0x40 ADD PUSH1 0x40 MSTORE DUP1 PUSH1 0xF DUP2 MSTORE PUSH1 0x20 ADD PUSH32 0x4C454E4754485F4D49534D415443480000000000000000000000000000000000 DUP2 MSTORE POP SWAP1 PUSH2 0x1123 JUMPI PUSH1 0x40 MLOAD PUSH32 0x8C379A000000000000000000000000000000000000000000000000000000000 DUP2 MSTORE PUSH1 0x4 ADD PUSH2 0x111A SWAP2 SWAP1 PUSH2 0x40D4 JUMP JUMPDEST PUSH1 0x40 MLOAD DUP1 SWAP2 SUB SWAP1 REVERT JUMPDEST POP PUSH0 PUSH0 SWAP1 POP PUSH0 PUSH0 SWAP1 POP JUMPDEST DUP7 DUP7 SWAP1 POP DUP2 LT ISZERO PUSH2 0x1256 JUMPI PUSH1 0xD PUSH0 DUP9 DUP9 DUP5 DUP2 DUP2 LT PUSH2 0x114E JUMPI PUSH2 0x114D PUSH2 0x48D1 JUMP JUMPDEST JUMPDEST SWAP1 POP PUSH1 0x20 MUL ADD PUSH1 0x20 DUP2 ADD SWAP1 PUSH2 0x1163 SWAP2 SWAP1 PUSH2 0x3F1E JUMP JUMPDEST PUSH20 0xFFFFFFFFFFFFFFFFFFFFFFFFFFFFFFFFFFFFFFFF AND PUSH20 0xFFFFFFFFFFFFFFFFFFFFFFFFFFFFFFFFFFFFFFFF AND DUP2 MSTORE PUSH1 0x20 ADD SWAP1 DUP2 MSTORE PUSH1 0x20 ADD PUSH0 KECCAK256 PUSH0 SWAP1 SLOAD SWAP1 PUSH2 0x100 EXP SWAP1 DIV PUSH1 0xFF AND ISZERO PUSH1 0x40 MLOAD DUP1 PUSH1 0x40 ADD PUSH1 0x40 MSTORE DUP1 PUSH1 0x18 DUP2 MSTORE PUSH1 0x20 ADD PUSH32 0x46524F5A454E5F524543495049454E545F4143434F554E540000000000000000 DUP2 MSTORE POP SWAP1 PUSH2 0x1221 JUMPI PUSH1 0x40 MLOAD PUSH32 0x8C379A000000000000000000000000000000000000000000000000000000000 DUP2 MSTORE PUSH1 0x4 ADD PUSH2 0x1218 SWAP2 SWAP1 PUSH2 0x40D4 JUMP JUMPDEST PUSH1 0x40 MLOAD DUP1 SWAP2 SUB SWAP1 REVERT JUMPDEST POP DUP5 DUP5 DUP3 DUP2 DUP2 LT PUSH2 0x1235 JUMPI PUSH2 0x1234 PUSH2 0x48D1 JUMP JUMPDEST JUMPDEST SWAP1 POP PUSH1 0x20 MUL ADD CALLDATALOAD DUP3 PUSH2 0x1247 SWAP2 SWAP1 PUSH2 0x492B JUMP JUMPDEST SWAP2 POP DUP1 DUP1 PUSH1 0x1 ADD SWAP2 POP POP PUSH2 0x112D JUMP JUMPDEST POP DUP1 PUSH2 0x1261 CALLER PUSH2 0x1D32 JUMP JUMPDEST LT ISZERO PUSH1 0x40 MLOAD DUP1 PUSH1 0x40 ADD PUSH1 0x40 MSTORE DUP1 PUSH1 0x14 DUP2 MSTORE PUSH1 0x20 ADD PUSH32 0x494E53554646494349454E545F42414C414E4345000000000000000000000000 DUP2 MSTORE POP SWAP1 PUSH2 0x12DA JUMPI PUSH1 0x40 MLOAD PUSH32 0x8C379A000000000000000000000000000000000000000000000000000000000 DUP2 MSTORE PUSH1 0x4 ADD PUSH2 0x12D1 SWAP2 SWAP1 PUSH2 0x40D4 JUMP JUMPDEST PUSH1 0x40 MLOAD DUP1 SWAP2 SUB SWAP1 REVERT JUMPDEST POP PUSH0 PUSH0 SWAP1 POP JUMPDEST DUP7 DUP7 SWAP1 POP DUP2 LT ISZERO PUSH2 0x1343 JUMPI PUSH2 0x1336 CALLER DUP9 DUP9 DUP5 DUP2 DUP2 LT PUSH2 0x1302 JUMPI PUSH2 0x1301 PUSH2 0x48D1 JUMP JUMPDEST JUMPDEST SWAP1 POP PUSH1 0x20 MUL ADD PUSH1 0x20 DUP2 ADD SWAP1 PUSH2 0x1317 SWAP2 SWAP1 PUSH2 0x3F1E JUMP JUMPDEST DUP8 DUP8 DUP6 DUP2 DUP2 LT PUSH2 0x132A JUMPI PUSH2 0x1329 PUSH2 0x48D1 JUMP JUMPDEST JUMPDEST SWAP1 POP PUSH1 0x20 MUL ADD CALLDATALOAD PUSH2 0x27CB JUMP JUMPDEST DUP1 DUP1 PUSH1 0x1 ADD SWAP2 POP POP PUSH2 0x12E0 JUMP JUMPDEST POP CALLER PUSH20 0xFFFFFFFFFFFFFFFFFFFFFFFFFFFFFFFFFFFFFFFF AND PUSH32 0xAC9E476421531DB3994CF6E11F9A106A29143264DADB5BC903CB8092E0F68D43 DUP8 DUP8 SWAP1 POP DUP4 PUSH1 0x40 MLOAD PUSH2 0x138F SWAP3 SWAP2 SWAP1 PUSH2 0x495E JUMP JUMPDEST PUSH1 0x40 MLOAD DUP1 SWAP2 SUB SWAP1 LOG2 POP POP PUSH2 0x13A1 PUSH2 0x28BB JUMP JUMPDEST POP POP POP POP JUMP JUMPDEST PUSH1 0xB SLOAD DUP2 JUMP JUMPDEST PUSH0 PUSH0 PUSH2 0x13B7 PUSH2 0x2763 JUMP JUMPDEST SWAP1 POP PUSH2 0x13C4 DUP6 DUP3 DUP6 PUSH2 0x28C5 JUMP JUMPDEST PUSH2 0x13CF DUP6 DUP6 DUP6 PUSH2 0x27CB JUMP JUMPDEST PUSH1 0x1 SWAP2 POP POP SWAP4 SWAP3 POP POP POP JUMP JUMPDEST PUSH1 0xE SLOAD DUP2 JUMP JUMPDEST PUSH0 PUSH1 0x6 PUSH0 DUP4 DUP2 MSTORE PUSH1 0x20 ADD SWAP1 DUP2 MSTORE PUSH1 0x20 ADD PUSH0 KECCAK256 PUSH1 0x1 ADD SLOAD SWAP1 POP SWAP2 SWAP1 POP JUMP JUMPDEST PUSH1 0x9 DUP2 JUMP JUMPDEST PUSH2 0x140C DUP3 PUSH2 0x13E1 JUMP JUMPDEST PUSH2 0x1415 DUP2 PUSH2 0x2657 JUMP JUMPDEST PUSH2 0x141F DUP4 DUP4 PUSH2 0x2958 JUMP JUMPDEST POP POP POP POP JUMP JUMPDEST PUSH0 PUSH1 0x12 SWAP1 POP SWAP1 JUMP JUMPDEST PUSH0 PUSH2 0x1447 DUP4 DUP4 PUSH1 0x40 MLOAD DUP1 PUSH1 0x20 ADD PUSH1 0x40 MSTORE DUP1 PUSH0 DUP2 MSTORE POP PUSH2 0x2189 JUMP JUMPDEST SWAP1 POP SWAP3 SWAP2 POP POP JUMP JUMPDEST PUSH8 0xDE0B6B3A7640000 DUP2 JUMP JUMPDEST PUSH0 PUSH2 0x1464 PUSH2 0x2A42 JUMP JUMPDEST SWAP1 POP SWAP1 JUMP JUMPDEST PUSH2 0x1471 PUSH2 0x2763 JUMP JUMPDEST PUSH20 0xFFFFFFFFFFFFFFFFFFFFFFFFFFFFFFFFFFFFFFFF AND DUP2 PUSH20 0xFFFFFFFFFFFFFFFFFFFFFFFFFFFFFFFFFFFFFFFF AND EQ PUSH2 0x14D5 JUMPI PUSH1 0x40 MLOAD PUSH32 0x6697B23200000000000000000000000000000000000000000000000000000000 DUP2 MSTORE PUSH1 0x4 ADD PUSH1 0x40 MLOAD DUP1 SWAP2 SUB SWAP1 REVERT JUMPDEST PUSH2 0x14DF DUP3 DUP3 PUSH2 0x2AF8 JUMP JUMPDEST POP POP POP JUMP JUMPDEST PUSH32 0x0 DUP2 JUMP JUMPDEST PUSH0 PUSH2 0x7E6 DUP3 LT ISZERO PUSH1 0x40 MLOAD DUP1 PUSH1 0x40 ADD PUSH1 0x40 MSTORE DUP1 PUSH1 0xE DUP2 MSTORE PUSH1 0x20 ADD PUSH32 0x494E56414C49445F4E554D424552000000000000000000000000000000000000 DUP2 MSTORE POP SWAP1 PUSH2 0x1586 JUMPI PUSH1 0x40 MLOAD PUSH32 0x8C379A000000000000000000000000000000000000000000000000000000000 DUP2 MSTORE PUSH1 0x4 ADD PUSH2 0x157D SWAP2 SWAP1 PUSH2 0x40D4 JUMP JUMPDEST PUSH1 0x40 MLOAD DUP1 SWAP2 SUB SWAP1 REVERT JUMPDEST POP PUSH2 0x270F DUP3 GT ISZERO PUSH1 0x40 MLOAD DUP1 PUSH1 0x40 ADD PUSH1 0x40 MSTORE DUP1 PUSH1 0xE DUP2 MSTORE PUSH1 0x20 ADD PUSH32 0x494E56414C49445F4E554D424552000000000000000000000000000000000000 DUP2 MSTORE POP SWAP1 PUSH2 0x1604 JUMPI PUSH1 0x40 MLOAD PUSH32 0x8C379A000000000000000000000000000000000000000000000000000000000 DUP2 MSTORE PUSH1 0x4 ADD PUSH2 0x15FB SWAP2 SWAP1 PUSH2 0x40D4 JUMP JUMPDEST PUSH1 0x40 MLOAD DUP1 SWAP2 SUB SWAP1 REVERT JUMPDEST POP PUSH1 0x12 PUSH0 DUP4 DUP2 MSTORE PUSH1 0x20 ADD SWAP1 DUP2 MSTORE PUSH1 0x20 ADD PUSH0 KECCAK256 SLOAD SWAP1 POP SWAP2 SWAP1 POP JUMP JUMPDEST PUSH2 0x2710 DUP2 JUMP JUMPDEST PUSH32 0x65D7A28E3265B37A6474929F336521B332C1681B933F6CB9F3376673440D862A PUSH2 0x164E DUP2 PUSH2 0x2657 JUMP JUMPDEST PUSH2 0x1656 PUSH2 0x2BE2 JUMP JUMPDEST POP JUMP JUMPDEST PUSH0 PUSH2 0x1664 DUP5 DUP5 PUSH2 0x20F6 JUMP JUMPDEST PUSH2 0x16A7 JUMPI DUP4 DUP4 PUSH1 0x40 MLOAD PUSH32 0x231B03AE00000000000000000000000000000000000000000000000000000000 DUP2 MSTORE PUSH1 0x4 ADD PUSH2 0x169E SWAP3 SWAP2 SWAP1 PUSH2 0x4985 JUMP JUMPDEST PUSH1 0x40 MLOAD DUP1 SWAP2 SUB SWAP1 REVERT JUMPDEST PUSH2 0x16C2 PUSH2 0x16B2 PUSH2 0x2763 JUMP JUMPDEST PUSH2 0x16BA PUSH2 0x2763 JUMP JUMPDEST DUP7 DUP7 DUP7 PUSH2 0x2C43 JUMP JUMPDEST PUSH1 0x1 SWAP1 POP SWAP4 SWAP3 POP POP POP JUMP JUMPDEST PUSH2 0x16DE PUSH2 0x16D8 PUSH2 0x2763 JUMP JUMPDEST DUP3 PUSH2 0x26E4 JUMP JUMPDEST POP JUMP JUMPDEST PUSH32 0x92DE27771F92D6942691D73358B3A4673E4880DE8356F8F2CF452BE87E02D363 PUSH2 0x170B DUP2 PUSH2 0x2657 JUMP JUMPDEST PUSH0 PUSH20 0xFFFFFFFFFFFFFFFFFFFFFFFFFFFFFFFFFFFFFFFF AND DUP3 PUSH20 0xFFFFFFFFFFFFFFFFFFFFFFFFFFFFFFFFFFFFFFFF AND EQ ISZERO PUSH1 0x40 MLOAD DUP1 PUSH1 0x40 ADD PUSH1 0x40 MSTORE DUP1 PUSH1 0xC DUP2 MSTORE PUSH1 0x20 ADD PUSH32 0x5A45524F5F414444524553530000000000000000000000000000000000000000 DUP2 MSTORE POP SWAP1 PUSH2 0x17B2 JUMPI PUSH1 0x40 MLOAD PUSH32 0x8C379A000000000000000000000000000000000000000000000000000000000 DUP2 MSTORE PUSH1 0x4 ADD PUSH2 0x17A9 SWAP2 SWAP1 PUSH2 0x40D4 JUMP JUMPDEST PUSH1 0x40 MLOAD DUP1 SWAP2 SUB SWAP1 REVERT JUMPDEST POP PUSH0 PUSH1 0xD PUSH0 DUP5 PUSH20 0xFFFFFFFFFFFFFFFFFFFFFFFFFFFFFFFFFFFFFFFF AND PUSH20 0xFFFFFFFFFFFFFFFFFFFFFFFFFFFFFFFFFFFFFFFF AND DUP2 MSTORE PUSH1 0x20 ADD SWAP1 DUP2 MSTORE PUSH1 0x20 ADD PUSH0 KECCAK256 PUSH0 PUSH2 0x100 EXP DUP2 SLOAD DUP2 PUSH1 0xFF MUL NOT AND SWAP1 DUP4 ISZERO ISZERO MUL OR SWAP1 SSTORE POP DUP2 PUSH20 0xFFFFFFFFFFFFFFFFFFFFFFFFFFFFFFFFFFFFFFFF AND PUSH32 0xA33E6B076D391E96626483B30E365719F79F1D6594AFF6587649FFD6C82ED7FA PUSH0 PUSH1 0x40 MLOAD PUSH2 0x184D SWAP2 SWAP1 PUSH2 0x3FE3 JUMP JUMPDEST PUSH1 0x40 MLOAD DUP1 SWAP2 SUB SWAP1 LOG2 POP POP JUMP JUMPDEST PUSH32 0xA952726EF2588AD078EDF35B066F7C7406E207CB0003BBABA8CB53EBA9553E72 PUSH2 0x1883 DUP2 PUSH2 0x2657 JUMP JUMPDEST PUSH2 0x188B PUSH2 0x277C JUMP JUMPDEST PUSH0 TIMESTAMP SWAP1 POP PUSH3 0x14370 PUSH1 0xE SLOAD DUP3 PUSH2 0x18A1 SWAP2 SWAP1 PUSH2 0x49AC JUMP JUMPDEST LT ISZERO PUSH1 0x40 MLOAD DUP1 PUSH1 0x40 ADD PUSH1 0x40 MSTORE DUP1 PUSH1 0xF DUP2 MSTORE PUSH1 0x20 ADD PUSH32 0x434F4F4C444F574E5F504552494F440000000000000000000000000000000000 DUP2 MSTORE POP SWAP1 PUSH2 0x191A JUMPI PUSH1 0x40 MLOAD PUSH32 0x8C379A000000000000000000000000000000000000000000000000000000000 DUP2 MSTORE PUSH1 0x4 ADD PUSH2 0x1911 SWAP2 SWAP1 PUSH2 0x40D4 JUMP JUMPDEST PUSH1 0x40 MLOAD DUP1 SWAP2 SUB SWAP1 REVERT JUMPDEST POP PUSH0 PUSH2 0x1925 DUP5 PUSH2 0x1508 JUMP JUMPDEST SWAP1 POP PUSH0 DUP2 GT PUSH1 0x40 MLOAD DUP1 PUSH1 0x40 ADD PUSH1 0x40 MSTORE DUP1 PUSH1 0xE DUP2 MSTORE PUSH1 0x20 ADD PUSH32 0x494E56414C49445F4E554D424552000000000000000000000000000000000000 DUP2 MSTORE POP SWAP1 PUSH2 0x19A1 JUMPI PUSH1 0x40 MLOAD PUSH32 0x8C379A000000000000000000000000000000000000000000000000000000000 DUP2 MSTORE PUSH1 0x4 ADD PUSH2 0x1998 SWAP2 SWAP1 PUSH2 0x40D4 JUMP JUMPDEST PUSH1 0x40 MLOAD DUP1 SWAP2 SUB SWAP1 REVERT JUMPDEST POP PUSH32 0x0 DUP2 PUSH2 0x19CC PUSH2 0xE6A JUMP JUMPDEST PUSH2 0x19D6 SWAP2 SWAP1 PUSH2 0x492B JUMP JUMPDEST GT ISZERO PUSH1 0x40 MLOAD DUP1 PUSH1 0x40 ADD PUSH1 0x40 MSTORE DUP1 PUSH1 0x14 DUP2 MSTORE PUSH1 0x20 ADD PUSH32 0x455843454544494E475F4D41585F535550504C59000000000000000000000000 DUP2 MSTORE POP SWAP1 PUSH2 0x1A4F JUMPI PUSH1 0x40 MLOAD PUSH32 0x8C379A000000000000000000000000000000000000000000000000000000000 DUP2 MSTORE PUSH1 0x4 ADD PUSH2 0x1A46 SWAP2 SWAP1 PUSH2 0x40D4 JUMP JUMPDEST PUSH1 0x40 MLOAD DUP1 SWAP2 SUB SWAP1 REVERT JUMPDEST POP PUSH0 PUSH20 0xFFFFFFFFFFFFFFFFFFFFFFFFFFFFFFFFFFFFFFFF AND PUSH1 0xC PUSH0 SWAP1 SLOAD SWAP1 PUSH2 0x100 EXP SWAP1 DIV PUSH20 0xFFFFFFFFFFFFFFFFFFFFFFFFFFFFFFFFFFFFFFFF AND PUSH20 0xFFFFFFFFFFFFFFFFFFFFFFFFFFFFFFFFFFFFFFFF AND EQ ISZERO PUSH1 0x40 MLOAD DUP1 PUSH1 0x40 ADD PUSH1 0x40 MSTORE DUP1 PUSH1 0xC DUP2 MSTORE PUSH1 0x20 ADD PUSH32 0x5A45524F5F414444524553530000000000000000000000000000000000000000 DUP2 MSTORE POP SWAP1 PUSH2 0x1B18 JUMPI PUSH1 0x40 MLOAD PUSH32 0x8C379A000000000000000000000000000000000000000000000000000000000 DUP2 MSTORE PUSH1 0x4 ADD PUSH2 0x1B0F SWAP2 SWAP1 PUSH2 0x40D4 JUMP JUMPDEST PUSH1 0x40 MLOAD DUP1 SWAP2 SUB SWAP1 REVERT JUMPDEST POP DUP2 PUSH1 0xE DUP2 SWAP1 SSTORE POP DUP1 PUSH1 0xF DUP2 SWAP1 SSTORE POP PUSH2 0x1B52 PUSH1 0xC PUSH0 SWAP1 SLOAD SWAP1 PUSH2 0x100 EXP SWAP1 DIV PUSH20 0xFFFFFFFFFFFFFFFFFFFFFFFFFFFFFFFFFFFFFFFF AND DUP3 PUSH2 0x2E2A JUMP JUMPDEST DUP1 PUSH1 0xB SLOAD PUSH2 0x1B60 SWAP2 SWAP1 PUSH2 0x492B JUMP JUMPDEST PUSH1 0xB DUP2 SWAP1 SSTORE POP PUSH1 0xC PUSH0 SWAP1 SLOAD SWAP1 PUSH2 0x100 EXP SWAP1 DIV PUSH20 0xFFFFFFFFFFFFFFFFFFFFFFFFFFFFFFFFFFFFFFFF AND PUSH20 0xFFFFFFFFFFFFFFFFFFFFFFFFFFFFFFFFFFFFFFFF AND CALLER PUSH20 0xFFFFFFFFFFFFFFFFFFFFFFFFFFFFFFFFFFFFFFFF AND PUSH32 0xA20FBB25F26678CFC136BB1B9E6D0F7747C01A6B211D070EC4ACA3A975E074C6 DUP4 PUSH1 0x40 MLOAD PUSH2 0x1BE4 SWAP2 SWAP1 PUSH2 0x3E9A JUMP JUMPDEST PUSH1 0x40 MLOAD DUP1 SWAP2 SUB SWAP1 LOG3 POP POP PUSH2 0x1BF6 PUSH2 0x28BB JUMP JUMPDEST POP POP JUMP JUMPDEST PUSH0 PUSH0 SHL PUSH2 0x1C06 DUP2 PUSH2 0x2657 JUMP JUMPDEST PUSH2 0x7E6 DUP4 LT ISZERO PUSH1 0x40 MLOAD DUP1 PUSH1 0x40 ADD PUSH1 0x40 MSTORE DUP1 PUSH1 0xE DUP2 MSTORE PUSH1 0x20 ADD PUSH32 0x494E56414C49445F4E554D424552000000000000000000000000000000000000 DUP2 MSTORE POP SWAP1 PUSH2 0x1C83 JUMPI PUSH1 0x40 MLOAD PUSH32 0x8C379A000000000000000000000000000000000000000000000000000000000 DUP2 MSTORE PUSH1 0x4 ADD PUSH2 0x1C7A SWAP2 SWAP1 PUSH2 0x40D4 JUMP JUMPDEST PUSH1 0x40 MLOAD DUP1 SWAP2 SUB SWAP1 REVERT JUMPDEST POP PUSH2 0x270F DUP4 GT ISZERO PUSH1 0x40 MLOAD DUP1 PUSH1 0x40 ADD PUSH1 0x40 MSTORE DUP1 PUSH1 0xE DUP2 MSTORE PUSH1 0x20 ADD PUSH32 0x494E56414C49445F4E554D424552000000000000000000000000000000000000 DUP2 MSTORE POP SWAP1 PUSH2 0x1D01 JUMPI PUSH1 0x40 MLOAD PUSH32 0x8C379A000000000000000000000000000000000000000000000000000000000 DUP2 MSTORE PUSH1 0x4 ADD PUSH2 0x1CF8 SWAP2 SWAP1 PUSH2 0x40D4 JUMP JUMPDEST PUSH1 0x40 MLOAD DUP1 SWAP2 SUB SWAP1 REVERT JUMPDEST POP DUP2 PUSH1 0x12 PUSH0 DUP6 DUP2 MSTORE PUSH1 0x20 ADD SWAP1 DUP2 MSTORE PUSH1 0x20 ADD PUSH0 KECCAK256 DUP2 SWAP1 SSTORE POP POP POP POP JUMP JUMPDEST PUSH0 PUSH1 0x5 PUSH0 SWAP1 SLOAD SWAP1 PUSH2 0x100 EXP SWAP1 DIV PUSH1 0xFF AND SWAP1 POP SWAP1 JUMP JUMPDEST PUSH0 PUSH0 PUSH0 DUP4 PUSH20 0xFFFFFFFFFFFFFFFFFFFFFFFFFFFFFFFFFFFFFFFF AND PUSH20 0xFFFFFFFFFFFFFFFFFFFFFFFFFFFFFFFFFFFFFFFF AND DUP2 MSTORE PUSH1 0x20 ADD SWAP1 DUP2 MSTORE PUSH1 0x20 ADD PUSH0 KECCAK256 SLOAD SWAP1 POP SWAP2 SWAP1 POP JUMP JUMPDEST PUSH2 0x1D89 DUP3 PUSH2 0x1D83 PUSH2 0x2763 JUMP JUMPDEST DUP4 PUSH2 0x28C5 JUMP JUMPDEST PUSH2 0x1D93 DUP3 DUP3 PUSH2 0x26E4 JUMP JUMPDEST POP POP JUMP JUMPDEST PUSH0 PUSH2 0x1DA1 DUP3 PUSH2 0x2EA9 JUMP JUMPDEST SWAP1 POP SWAP2 SWAP1 POP JUMP JUMPDEST PUSH32 0x65D7A28E3265B37A6474929F336521B332C1681B933F6CB9F3376673440D862A PUSH2 0x1DD2 DUP2 PUSH2 0x2657 JUMP JUMPDEST PUSH2 0x1DDA PUSH2 0x2EEF JUMP JUMPDEST POP JUMP JUMPDEST PUSH0 PUSH1 0x60 DUP1 PUSH0 PUSH0 PUSH0 PUSH1 0x60 PUSH2 0x1DEE PUSH2 0x2F51 JUMP JUMPDEST PUSH2 0x1DF6 PUSH2 0x2F8C JUMP JUMPDEST CHAINID ADDRESS PUSH0 PUSH0 SHL PUSH0 PUSH8 0xFFFFFFFFFFFFFFFF DUP2 GT ISZERO PUSH2 0x1E15 JUMPI PUSH2 0x1E14 PUSH2 0x439F JUMP JUMPDEST JUMPDEST PUSH1 0x40 MLOAD SWAP1 DUP1 DUP3 MSTORE DUP1 PUSH1 0x20 MUL PUSH1 0x20 ADD DUP3 ADD PUSH1 0x40 MSTORE DUP1 ISZERO PUSH2 0x1E43 JUMPI DUP2 PUSH1 0x20 ADD PUSH1 0x20 DUP3 MUL DUP1 CALLDATASIZE DUP4 CALLDATACOPY DUP1 DUP3 ADD SWAP2 POP POP SWAP1 POP JUMPDEST POP PUSH32 0xF00000000000000000000000000000000000000000000000000000000000000 SWAP6 SWAP5 SWAP4 SWAP3 SWAP2 SWAP1 SWAP7 POP SWAP7 POP SWAP7 POP SWAP7 POP SWAP7 POP SWAP7 POP SWAP7 POP SWAP1 SWAP2 SWAP3 SWAP4 SWAP5 SWAP6 SWAP7 JUMP JUMPDEST PUSH32 0x92DE27771F92D6942691D73358B3A4673E4880DE8356F8F2CF452BE87E02D363 PUSH2 0x1EAC DUP2 PUSH2 0x2657 JUMP JUMPDEST PUSH0 PUSH20 0xFFFFFFFFFFFFFFFFFFFFFFFFFFFFFFFFFFFFFFFF AND DUP3 PUSH20 0xFFFFFFFFFFFFFFFFFFFFFFFFFFFFFFFFFFFFFFFF AND EQ ISZERO PUSH1 0x40 MLOAD DUP1 PUSH1 0x40 ADD PUSH1 0x40 MSTORE DUP1 PUSH1 0xC DUP2 MSTORE PUSH1 0x20 ADD PUSH32 0x5A45524F5F414444524553530000000000000000000000000000000000000000 DUP2 MSTORE POP SWAP1 PUSH2 0x1F53 JUMPI PUSH1 0x40 MLOAD PUSH32 0x8C379A000000000000000000000000000000000000000000000000000000000 DUP2 MSTORE PUSH1 0x4 ADD PUSH2 0x1F4A SWAP2 SWAP1 PUSH2 0x40D4 JUMP JUMPDEST PUSH1 0x40 MLOAD DUP1 SWAP2 SUB SWAP1 REVERT JUMPDEST POP PUSH1 0x1 PUSH1 0xD PUSH0 DUP5 PUSH20 0xFFFFFFFFFFFFFFFFFFFFFFFFFFFFFFFFFFFFFFFF AND PUSH20 0xFFFFFFFFFFFFFFFFFFFFFFFFFFFFFFFFFFFFFFFF AND DUP2 MSTORE PUSH1 0x20 ADD SWAP1 DUP2 MSTORE PUSH1 0x20 ADD PUSH0 KECCAK256 PUSH0 PUSH2 0x100 EXP DUP2 SLOAD DUP2 PUSH1 0xFF MUL NOT AND SWAP1 DUP4 ISZERO ISZERO MUL OR SWAP1 SSTORE POP DUP2 PUSH20 0xFFFFFFFFFFFFFFFFFFFFFFFFFFFFFFFFFFFFFFFF AND PUSH32 0xA33E6B076D391E96626483B30E365719F79F1D6594AFF6587649FFD6C82ED7FA PUSH1 0x1 PUSH1 0x40 MLOAD PUSH2 0x1FF0 SWAP2 SWAP1 PUSH2 0x3FE3 JUMP JUMPDEST PUSH1 0x40 MLOAD DUP1 SWAP2 SUB SWAP1 LOG2 POP POP JUMP JUMPDEST PUSH0 PUSH1 0x6 PUSH0 DUP5 DUP2 MSTORE PUSH1 0x20 ADD SWAP1 DUP2 MSTORE PUSH1 0x20 ADD PUSH0 KECCAK256 PUSH0 ADD PUSH0 DUP4 PUSH20 0xFFFFFFFFFFFFFFFFFFFFFFFFFFFFFFFFFFFFFFFF AND PUSH20 0xFFFFFFFFFFFFFFFFFFFFFFFFFFFFFFFFFFFFFFFF AND DUP2 MSTORE PUSH1 0x20 ADD SWAP1 DUP2 MSTORE PUSH1 0x20 ADD PUSH0 KECCAK256 PUSH0 SWAP1 SLOAD SWAP1 PUSH2 0x100 EXP SWAP1 DIV PUSH1 0xFF AND SWAP1 POP SWAP3 SWAP2 POP POP JUMP JUMPDEST PUSH1 0x60 PUSH1 0x4 DUP1 SLOAD PUSH2 0x206F SWAP1 PUSH2 0x48A1 JUMP JUMPDEST DUP1 PUSH1 0x1F ADD PUSH1 0x20 DUP1 SWAP2 DIV MUL PUSH1 0x20 ADD PUSH1 0x40 MLOAD SWAP1 DUP2 ADD PUSH1 0x40 MSTORE DUP1 SWAP3 SWAP2 SWAP1 DUP2 DUP2 MSTORE PUSH1 0x20 ADD DUP3 DUP1 SLOAD PUSH2 0x209B SWAP1 PUSH2 0x48A1 JUMP JUMPDEST DUP1 ISZERO PUSH2 0x20E6 JUMPI DUP1 PUSH1 0x1F LT PUSH2 0x20BD JUMPI PUSH2 0x100 DUP1 DUP4 SLOAD DIV MUL DUP4 MSTORE SWAP2 PUSH1 0x20 ADD SWAP2 PUSH2 0x20E6 JUMP JUMPDEST DUP3 ADD SWAP2 SWAP1 PUSH0 MSTORE PUSH1 0x20 PUSH0 KECCAK256 SWAP1 JUMPDEST DUP2 SLOAD DUP2 MSTORE SWAP1 PUSH1 0x1 ADD SWAP1 PUSH1 0x20 ADD DUP1 DUP4 GT PUSH2 0x20C9 JUMPI DUP3 SWAP1 SUB PUSH1 0x1F AND DUP3 ADD SWAP2 JUMPDEST POP POP POP POP POP SWAP1 POP SWAP1 JUMP JUMPDEST PUSH0 PUSH0 SHL DUP2 JUMP JUMPDEST PUSH0 PUSH0 PUSH2 0x2100 PUSH2 0x2763 JUMP JUMPDEST SWAP1 POP PUSH2 0x210D DUP2 DUP6 DUP6 PUSH2 0x27CB JUMP JUMPDEST PUSH1 0x1 SWAP2 POP POP SWAP3 SWAP2 POP POP JUMP JUMPDEST PUSH0 PUSH2 0x2124 DUP6 DUP6 DUP6 PUSH2 0x13AD JUMP JUMPDEST PUSH2 0x2169 JUMPI DUP5 DUP5 DUP5 PUSH1 0x40 MLOAD PUSH32 0xB56855E600000000000000000000000000000000000000000000000000000000 DUP2 MSTORE PUSH1 0x4 ADD PUSH2 0x2160 SWAP4 SWAP3 SWAP2 SWAP1 PUSH2 0x49DF JUMP JUMPDEST PUSH1 0x40 MLOAD DUP1 SWAP2 SUB SWAP1 REVERT JUMPDEST PUSH2 0x217D PUSH2 0x2174 PUSH2 0x2763 JUMP JUMPDEST DUP7 DUP7 DUP7 DUP7 PUSH2 0x2C43 JUMP JUMPDEST PUSH1 0x1 SWAP1 POP SWAP5 SWAP4 POP POP POP POP JUMP JUMPDEST PUSH0 PUSH2 0x2194 DUP5 DUP5 PUSH2 0xE20 JUMP JUMPDEST PUSH2 0x21D7 JUMPI DUP4 DUP4 PUSH1 0x40 MLOAD PUSH32 0x50E555C400000000000000000000000000000000000000000000000000000000 DUP2 MSTORE PUSH1 0x4 ADD PUSH2 0x21CE SWAP3 SWAP2 SWAP1 PUSH2 0x4985 JUMP JUMPDEST PUSH1 0x40 MLOAD DUP1 SWAP2 SUB SWAP1 REVERT JUMPDEST PUSH2 0x21EA PUSH2 0x21E2 PUSH2 0x2763 JUMP JUMPDEST DUP6 DUP6 DUP6 PUSH2 0x2FC7 JUMP JUMPDEST PUSH1 0x1 SWAP1 POP SWAP4 SWAP3 POP POP POP JUMP JUMPDEST DUP4 TIMESTAMP GT ISZERO PUSH2 0x223A JUMPI DUP4 PUSH1 0x40 MLOAD PUSH32 0x6279130200000000000000000000000000000000000000000000000000000000 DUP2 MSTORE PUSH1 0x4 ADD PUSH2 0x2231 SWAP2 SWAP1 PUSH2 0x3E9A JUMP JUMPDEST PUSH1 0x40 MLOAD DUP1 SWAP2 SUB SWAP1 REVERT JUMPDEST PUSH0 PUSH32 0x6E71EDAE12B1B97F4D1F60370FEF10105FA2FAAE0126114A169C64845D6126C9 DUP9 DUP9 DUP9 PUSH2 0x2268 DUP13 PUSH2 0x31AB JUMP JUMPDEST DUP10 PUSH1 0x40 MLOAD PUSH1 0x20 ADD PUSH2 0x227E SWAP7 SWAP6 SWAP5 SWAP4 SWAP3 SWAP2 SWAP1 PUSH2 0x4A14 JUMP JUMPDEST PUSH1 0x40 MLOAD PUSH1 0x20 DUP2 DUP4 SUB SUB DUP2 MSTORE SWAP1 PUSH1 0x40 MSTORE DUP1 MLOAD SWAP1 PUSH1 0x20 ADD KECCAK256 SWAP1 POP PUSH0 PUSH2 0x22A0 DUP3 PUSH2 0x31FE JUMP JUMPDEST SWAP1 POP PUSH0 PUSH2 0x22AF DUP3 DUP8 DUP8 DUP8 PUSH2 0x3217 JUMP JUMPDEST SWAP1 POP DUP10 PUSH20 0xFFFFFFFFFFFFFFFFFFFFFFFFFFFFFFFFFFFFFFFF AND DUP2 PUSH20 0xFFFFFFFFFFFFFFFFFFFFFFFFFFFFFFFFFFFFFFFF AND EQ PUSH2 0x2323 JUMPI DUP1 DUP11 PUSH1 0x40 MLOAD PUSH32 0x4B800E4600000000000000000000000000000000000000000000000000000000 DUP2 MSTORE PUSH1 0x4 ADD PUSH2 0x231A SWAP3 SWAP2 SWAP1 PUSH2 0x4A73 JUMP JUMPDEST PUSH1 0x40 MLOAD DUP1 SWAP2 SUB SWAP1 REVERT JUMPDEST PUSH2 0x232E DUP11 DUP11 DUP11 PUSH2 0x276A JUMP JUMPDEST POP POP POP POP POP POP POP POP POP POP JUMP JUMPDEST PUSH2 0x2343 DUP3 PUSH2 0x13E1 JUMP JUMPDEST PUSH2 0x234C DUP2 PUSH2 0x2657 JUMP JUMPDEST PUSH2 0x2356 DUP4 DUP4 PUSH2 0x2AF8 JUMP JUMPDEST POP POP POP POP JUMP JUMPDEST PUSH32 0x0 DUP2 JUMP JUMPDEST PUSH0 PUSH2 0x239B DUP5 DUP5 DUP5 PUSH1 0x40 MLOAD DUP1 PUSH1 0x20 ADD PUSH1 0x40 MSTORE DUP1 PUSH0 DUP2 MSTORE POP PUSH2 0x2118 JUMP JUMPDEST SWAP1 POP SWAP4 SWAP3 POP POP POP JUMP JUMPDEST PUSH0 PUSH1 0x1 PUSH0 DUP5 PUSH20 0xFFFFFFFFFFFFFFFFFFFFFFFFFFFFFFFFFFFFFFFF AND PUSH20 0xFFFFFFFFFFFFFFFFFFFFFFFFFFFFFFFFFFFFFFFF AND DUP2 MSTORE PUSH1 0x20 ADD SWAP1 DUP2 MSTORE PUSH1 0x20 ADD PUSH0 KECCAK256 PUSH0 DUP4 PUSH20 0xFFFFFFFFFFFFFFFFFFFFFFFFFFFFFFFFFFFFFFFF AND PUSH20 0xFFFFFFFFFFFFFFFFFFFFFFFFFFFFFFFFFFFFFFFF AND DUP2 MSTORE PUSH1 0x20 ADD SWAP1 DUP2 MSTORE PUSH1 0x20 ADD PUSH0 KECCAK256 SLOAD SWAP1 POP SWAP3 SWAP2 POP POP JUMP JUMPDEST PUSH0 PUSH0 SHL PUSH2 0x2432 DUP2 PUSH2 0x2657 JUMP JUMPDEST PUSH0 DUP3 GT PUSH1 0x40 MLOAD DUP1 PUSH1 0x40 ADD PUSH1 0x40 MSTORE DUP1 PUSH1 0xB DUP2 MSTORE PUSH1 0x20 ADD PUSH32 0x414D4F554E545F5A45524F000000000000000000000000000000000000000000 DUP2 MSTORE POP SWAP1 PUSH2 0x24AC JUMPI PUSH1 0x40 MLOAD PUSH32 0x8C379A000000000000000000000000000000000000000000000000000000000 DUP2 MSTORE PUSH1 0x4 ADD PUSH2 0x24A3 SWAP2 SWAP1 PUSH2 0x40D4 JUMP JUMPDEST PUSH1 0x40 MLOAD DUP1 SWAP2 SUB SWAP1 REVERT JUMPDEST POP PUSH0 PUSH20 0xFFFFFFFFFFFFFFFFFFFFFFFFFFFFFFFFFFFFFFFF AND DUP4 PUSH20 0xFFFFFFFFFFFFFFFFFFFFFFFFFFFFFFFFFFFFFFFF AND EQ ISZERO PUSH1 0x40 MLOAD DUP1 PUSH1 0x40 ADD PUSH1 0x40 MSTORE DUP1 PUSH1 0xC DUP2 MSTORE PUSH1 0x20 ADD PUSH32 0x5A45524F5F414444524553530000000000000000000000000000000000000000 DUP2 MSTORE POP SWAP1 PUSH2 0x2554 JUMPI PUSH1 0x40 MLOAD PUSH32 0x8C379A000000000000000000000000000000000000000000000000000000000 DUP2 MSTORE PUSH1 0x4 ADD PUSH2 0x254B SWAP2 SWAP1 PUSH2 0x40D4 JUMP JUMPDEST PUSH1 0x40 MLOAD DUP1 SWAP2 SUB SWAP1 REVERT JUMPDEST POP PUSH32 0x0 DUP3 PUSH2 0x257F PUSH2 0xE6A JUMP JUMPDEST PUSH2 0x2589 SWAP2 SWAP1 PUSH2 0x492B JUMP JUMPDEST GT ISZERO PUSH1 0x40 MLOAD DUP1 PUSH1 0x40 ADD PUSH1 0x40 MSTORE DUP1 PUSH1 0x14 DUP2 MSTORE PUSH1 0x20 ADD PUSH32 0x455843454544494E475F4D41585F535550504C59000000000000000000000000 DUP2 MSTORE POP SWAP1 PUSH2 0x2602 JUMPI PUSH1 0x40 MLOAD PUSH32 0x8C379A000000000000000000000000000000000000000000000000000000000 DUP2 MSTORE PUSH1 0x4 ADD PUSH2 0x25F9 SWAP2 SWAP1 PUSH2 0x40D4 JUMP JUMPDEST PUSH1 0x40 MLOAD DUP1 SWAP2 SUB SWAP1 REVERT JUMPDEST POP PUSH2 0x260D DUP4 DUP4 PUSH2 0x2E2A JUMP JUMPDEST POP POP POP JUMP JUMPDEST PUSH1 0x11 SLOAD DUP2 JUMP JUMPDEST PUSH2 0x7E6 DUP2 JUMP JUMPDEST PUSH1 0x40 MLOAD DUP1 PUSH1 0x40 ADD PUSH1 0x40 MSTORE DUP1 PUSH1 0x4 DUP2 MSTORE PUSH1 0x20 ADD PUSH32 0x322E303000000000000000000000000000000000000000000000000000000000 DUP2 MSTORE POP DUP2 JUMP JUMPDEST PUSH2 0x2668 DUP2 PUSH2 0x2663 PUSH2 0x2763 JUMP JUMPDEST PUSH2 0x3245 JUMP JUMPDEST POP JUMP JUMPDEST PUSH0 PUSH32 0xB0202A1100000000000000000000000000000000000000000000000000000000 PUSH28 0xFFFFFFFFFFFFFFFFFFFFFFFFFFFFFFFFFFFFFFFFFFFFFFFFFFFFFFFF NOT AND DUP3 PUSH28 0xFFFFFFFFFFFFFFFFFFFFFFFFFFFFFFFFFFFFFFFFFFFFFFFFFFFFFFFF NOT AND EQ DUP1 PUSH2 0x26DD JUMPI POP PUSH2 0x26DC DUP3 PUSH2 0x3296 JUMP JUMPDEST JUMPDEST SWAP1 POP SWAP2 SWAP1 POP JUMP JUMPDEST PUSH0 PUSH20 0xFFFFFFFFFFFFFFFFFFFFFFFFFFFFFFFFFFFFFFFF AND DUP3 PUSH20 0xFFFFFFFFFFFFFFFFFFFFFFFFFFFFFFFFFFFFFFFF AND SUB PUSH2 0x2754 JUMPI PUSH0 PUSH1 0x40 MLOAD PUSH32 0x96C6FD1E00000000000000000000000000000000000000000000000000000000 DUP2 MSTORE PUSH1 0x4 ADD PUSH2 0x274B SWAP2 SWAP1 PUSH2 0x4A9A JUMP JUMPDEST PUSH1 0x40 MLOAD DUP1 SWAP2 SUB SWAP1 REVERT JUMPDEST PUSH2 0x275F DUP3 PUSH0 DUP4 PUSH2 0x330F JUMP JUMPDEST POP POP JUMP JUMPDEST PUSH0 CALLER SWAP1 POP SWAP1 JUMP JUMPDEST PUSH2 0x2777 DUP4 DUP4 DUP4 PUSH1 0x1 PUSH2 0x350D JUMP JUMPDEST POP POP POP JUMP JUMPDEST PUSH1 0x2 PUSH1 0xA SLOAD SUB PUSH2 0x27C1 JUMPI PUSH1 0x40 MLOAD PUSH32 0x8C379A000000000000000000000000000000000000000000000000000000000 DUP2 MSTORE PUSH1 0x4 ADD PUSH2 0x27B8 SWAP1 PUSH2 0x4AFD JUMP JUMPDEST PUSH1 0x40 MLOAD DUP1 SWAP2 SUB SWAP1 REVERT JUMPDEST PUSH1 0x2 PUSH1 0xA DUP2 SWAP1 SSTORE POP JUMP JUMPDEST PUSH0 PUSH20 0xFFFFFFFFFFFFFFFFFFFFFFFFFFFFFFFFFFFFFFFF AND DUP4 PUSH20 0xFFFFFFFFFFFFFFFFFFFFFFFFFFFFFFFFFFFFFFFF AND SUB PUSH2 0x283B JUMPI PUSH0 PUSH1 0x40 MLOAD PUSH32 0x96C6FD1E00000000000000000000000000000000000000000000000000000000 DUP2 MSTORE PUSH1 0x4 ADD PUSH2 0x2832 SWAP2 SWAP1 PUSH2 0x4A9A JUMP JUMPDEST PUSH1 0x40 MLOAD DUP1 SWAP2 SUB SWAP1 REVERT JUMPDEST PUSH0 PUSH20 0xFFFFFFFFFFFFFFFFFFFFFFFFFFFFFFFFFFFFFFFF AND DUP3 PUSH20 0xFFFFFFFFFFFFFFFFFFFFFFFFFFFFFFFFFFFFFFFF AND SUB PUSH2 0x28AB JUMPI PUSH0 PUSH1 0x40 MLOAD PUSH32 0xEC442F0500000000000000000000000000000000000000000000000000000000 DUP2 MSTORE PUSH1 0x4 ADD PUSH2 0x28A2 SWAP2 SWAP1 PUSH2 0x4A9A JUMP JUMPDEST PUSH1 0x40 MLOAD DUP1 SWAP2 SUB SWAP1 REVERT JUMPDEST PUSH2 0x28B6 DUP4 DUP4 DUP4 PUSH2 0x330F JUMP JUMPDEST POP POP POP JUMP JUMPDEST PUSH1 0x1 PUSH1 0xA DUP2 SWAP1 SSTORE POP JUMP JUMPDEST PUSH0 PUSH2 0x28D0 DUP5 DUP5 PUSH2 0x23A4 JUMP JUMPDEST SWAP1 POP PUSH32 0xFFFFFFFFFFFFFFFFFFFFFFFFFFFFFFFFFFFFFFFFFFFFFFFFFFFFFFFFFFFFFFFF DUP2 LT ISZERO PUSH2 0x2952 JUMPI DUP2 DUP2 LT ISZERO PUSH2 0x2943 JUMPI DUP3 DUP2 DUP4 PUSH1 0x40 MLOAD PUSH32 0xFB8F41B200000000000000000000000000000000000000000000000000000000 DUP2 MSTORE PUSH1 0x4 ADD PUSH2 0x293A SWAP4 SWAP3 SWAP2 SWAP1 PUSH2 0x4B1B JUMP JUMPDEST PUSH1 0x40 MLOAD DUP1 SWAP2 SUB SWAP1 REVERT JUMPDEST PUSH2 0x2951 DUP5 DUP5 DUP5 DUP5 SUB PUSH0 PUSH2 0x350D JUMP JUMPDEST JUMPDEST POP POP POP POP JUMP JUMPDEST PUSH0 PUSH2 0x2963 DUP4 DUP4 PUSH2 0x1FFC JUMP JUMPDEST PUSH2 0x2A38 JUMPI PUSH1 0x1 PUSH1 0x6 PUSH0 DUP6 DUP2 MSTORE PUSH1 0x20 ADD SWAP1 DUP2 MSTORE PUSH1 0x20 ADD PUSH0 KECCAK256 PUSH0 ADD PUSH0 DUP5 PUSH20 0xFFFFFFFFFFFFFFFFFFFFFFFFFFFFFFFFFFFFFFFF AND PUSH20 0xFFFFFFFFFFFFFFFFFFFFFFFFFFFFFFFFFFFFFFFF AND DUP2 MSTORE PUSH1 0x20 ADD SWAP1 DUP2 MSTORE PUSH1 0x20 ADD PUSH0 KECCAK256 PUSH0 PUSH2 0x100 EXP DUP2 SLOAD DUP2 PUSH1 0xFF MUL NOT AND SWAP1 DUP4 ISZERO ISZERO MUL OR SWAP1 SSTORE POP PUSH2 0x29D5 PUSH2 0x2763 JUMP JUMPDEST PUSH20 0xFFFFFFFFFFFFFFFFFFFFFFFFFFFFFFFFFFFFFFFF AND DUP3 PUSH20 0xFFFFFFFFFFFFFFFFFFFFFFFFFFFFFFFFFFFFFFFF AND DUP5 PUSH32 0x2F8788117E7EFF1D82E926EC794901D17C78024A50270940304540A733656F0D PUSH1 0x40 MLOAD PUSH1 0x40 MLOAD DUP1 SWAP2 SUB SWAP1 LOG4 PUSH1 0x1 SWAP1 POP PUSH2 0x2A3C JUMP JUMPDEST PUSH0 SWAP1 POP JUMPDEST SWAP3 SWAP2 POP POP JUMP JUMPDEST PUSH0 PUSH32 0x0 PUSH20 0xFFFFFFFFFFFFFFFFFFFFFFFFFFFFFFFFFFFFFFFF AND ADDRESS PUSH20 0xFFFFFFFFFFFFFFFFFFFFFFFFFFFFFFFFFFFFFFFF AND EQ DUP1 ISZERO PUSH2 0x2ABD JUMPI POP PUSH32 0x0 CHAINID EQ JUMPDEST ISZERO PUSH2 0x2AEA JUMPI PUSH32 0x0 SWAP1 POP PUSH2 0x2AF5 JUMP JUMPDEST PUSH2 0x2AF2 PUSH2 0x36DC JUMP JUMPDEST SWAP1 POP JUMPDEST SWAP1 JUMP JUMPDEST PUSH0 PUSH2 0x2B03 DUP4 DUP4 PUSH2 0x1FFC JUMP JUMPDEST ISZERO PUSH2 0x2BD8 JUMPI PUSH0 PUSH1 0x6 PUSH0 DUP6 DUP2 MSTORE PUSH1 0x20 ADD SWAP1 DUP2 MSTORE PUSH1 0x20 ADD PUSH0 KECCAK256 PUSH0 ADD PUSH0 DUP5 PUSH20 0xFFFFFFFFFFFFFFFFFFFFFFFFFFFFFFFFFFFFFFFF AND PUSH20 0xFFFFFFFFFFFFFFFFFFFFFFFFFFFFFFFFFFFFFFFF AND DUP2 MSTORE PUSH1 0x20 ADD SWAP1 DUP2 MSTORE PUSH1 0x20 ADD PUSH0 KECCAK256 PUSH0 PUSH2 0x100 EXP DUP2 SLOAD DUP2 PUSH1 0xFF MUL NOT AND SWAP1 DUP4 ISZERO ISZERO MUL OR SWAP1 SSTORE POP PUSH2 0x2B75 PUSH2 0x2763 JUMP JUMPDEST PUSH20 0xFFFFFFFFFFFFFFFFFFFFFFFFFFFFFFFFFFFFFFFF AND DUP3 PUSH20 0xFFFFFFFFFFFFFFFFFFFFFFFFFFFFFFFFFFFFFFFF AND DUP5 PUSH32 0xF6391F5C32D9C69D2A47EA670B442974B53935D1EDC7FD64EB21E047A839171B PUSH1 0x40 MLOAD PUSH1 0x40 MLOAD DUP1 SWAP2 SUB SWAP1 LOG4 PUSH1 0x1 SWAP1 POP PUSH2 0x2BDC JUMP JUMPDEST PUSH0 SWAP1 POP JUMPDEST SWAP3 SWAP2 POP POP JUMP JUMPDEST PUSH2 0x2BEA PUSH2 0x3771 JUMP JUMPDEST PUSH0 PUSH1 0x5 PUSH0 PUSH2 0x100 EXP DUP2 SLOAD DUP2 PUSH1 0xFF MUL NOT AND SWAP1 DUP4 ISZERO ISZERO MUL OR SWAP1 SSTORE POP PUSH32 0x5DB9EE0A495BF2E6FF9C91A7834C1BA4FDD244A5E8AA4E537BD38AEAE4B073AA PUSH2 0x2C2C PUSH2 0x2763 JUMP JUMPDEST PUSH1 0x40 MLOAD PUSH2 0x2C39 SWAP2 SWAP1 PUSH2 0x4A9A JUMP JUMPDEST PUSH1 0x40 MLOAD DUP1 SWAP2 SUB SWAP1 LOG1 JUMP JUMPDEST PUSH0 DUP4 PUSH20 0xFFFFFFFFFFFFFFFFFFFFFFFFFFFFFFFFFFFFFFFF AND EXTCODESIZE SUB PUSH2 0x2C9E JUMPI DUP3 PUSH1 0x40 MLOAD PUSH32 0x8A96CD9C00000000000000000000000000000000000000000000000000000000 DUP2 MSTORE PUSH1 0x4 ADD PUSH2 0x2C95 SWAP2 SWAP1 PUSH2 0x4A9A JUMP JUMPDEST PUSH1 0x40 MLOAD DUP1 SWAP2 SUB SWAP1 REVERT JUMPDEST DUP3 PUSH20 0xFFFFFFFFFFFFFFFFFFFFFFFFFFFFFFFFFFFFFFFF AND PUSH4 0x88A7CA5C DUP7 DUP7 DUP6 DUP6 PUSH1 0x40 MLOAD DUP6 PUSH4 0xFFFFFFFF AND PUSH1 0xE0 SHL DUP2 MSTORE PUSH1 0x4 ADD PUSH2 0x2CDD SWAP5 SWAP4 SWAP3 SWAP2 SWAP1 PUSH2 0x4BA2 JUMP JUMPDEST PUSH1 0x20 PUSH1 0x40 MLOAD DUP1 DUP4 SUB DUP2 PUSH0 DUP8 GAS CALL SWAP3 POP POP POP DUP1 ISZERO PUSH2 0x2D18 JUMPI POP PUSH1 0x40 MLOAD RETURNDATASIZE PUSH1 0x1F NOT PUSH1 0x1F DUP3 ADD AND DUP3 ADD DUP1 PUSH1 0x40 MSTORE POP DUP2 ADD SWAP1 PUSH2 0x2D15 SWAP2 SWAP1 PUSH2 0x4C00 JUMP JUMPDEST PUSH1 0x1 JUMPDEST PUSH2 0x2D99 JUMPI RETURNDATASIZE DUP1 PUSH0 DUP2 EQ PUSH2 0x2D46 JUMPI PUSH1 0x40 MLOAD SWAP2 POP PUSH1 0x1F NOT PUSH1 0x3F RETURNDATASIZE ADD AND DUP3 ADD PUSH1 0x40 MSTORE RETURNDATASIZE DUP3 MSTORE RETURNDATASIZE PUSH0 PUSH1 0x20 DUP5 ADD RETURNDATACOPY PUSH2 0x2D4B JUMP JUMPDEST PUSH1 0x60 SWAP2 POP JUMPDEST POP PUSH0 DUP2 MLOAD SUB PUSH2 0x2D91 JUMPI DUP4 PUSH1 0x40 MLOAD PUSH32 0x8A96CD9C00000000000000000000000000000000000000000000000000000000 DUP2 MSTORE PUSH1 0x4 ADD PUSH2 0x2D88 SWAP2 SWAP1 PUSH2 0x4A9A JUMP JUMPDEST PUSH1 0x40 MLOAD DUP1 SWAP2 SUB SWAP1 REVERT JUMPDEST DUP1 MLOAD PUSH1 0x20 DUP3 ADD REVERT JUMPDEST PUSH4 0x88A7CA5C PUSH1 0xE0 SHL PUSH28 0xFFFFFFFFFFFFFFFFFFFFFFFFFFFFFFFFFFFFFFFFFFFFFFFFFFFFFFFF NOT AND DUP2 PUSH28 0xFFFFFFFFFFFFFFFFFFFFFFFFFFFFFFFFFFFFFFFFFFFFFFFFFFFFFFFF NOT AND EQ PUSH2 0x2E22 JUMPI DUP4 PUSH1 0x40 MLOAD PUSH32 0x8A96CD9C00000000000000000000000000000000000000000000000000000000 DUP2 MSTORE PUSH1 0x4 ADD PUSH2 0x2E19 SWAP2 SWAP1 PUSH2 0x4A9A JUMP JUMPDEST PUSH1 0x40 MLOAD DUP1 SWAP2 SUB SWAP1 REVERT JUMPDEST POP POP POP POP POP POP JUMP JUMPDEST PUSH0 PUSH20 0xFFFFFFFFFFFFFFFFFFFFFFFFFFFFFFFFFFFFFFFF AND DUP3 PUSH20 0xFFFFFFFFFFFFFFFFFFFFFFFFFFFFFFFFFFFFFFFF AND SUB PUSH2 0x2E9A JUMPI PUSH0 PUSH1 0x40 MLOAD PUSH32 0xEC442F0500000000000000000000000000000000000000000000000000000000 DUP2 MSTORE PUSH1 0x4 ADD PUSH2 0x2E91 SWAP2 SWAP1 PUSH2 0x4A9A JUMP JUMPDEST PUSH1 0x40 MLOAD DUP1 SWAP2 SUB SWAP1 REVERT JUMPDEST PUSH2 0x2EA5 PUSH0 DUP4 DUP4 PUSH2 0x330F JUMP JUMPDEST POP POP JUMP JUMPDEST PUSH0 PUSH1 0x9 PUSH0 DUP4 PUSH20 0xFFFFFFFFFFFFFFFFFFFFFFFFFFFFFFFFFFFFFFFF AND PUSH20 0xFFFFFFFFFFFFFFFFFFFFFFFFFFFFFFFFFFFFFFFF AND DUP2 MSTORE PUSH1 0x20 ADD SWAP1 DUP2 MSTORE PUSH1 0x20 ADD PUSH0 KECCAK256 SLOAD SWAP1 POP SWAP2 SWAP1 POP JUMP JUMPDEST PUSH2 0x2EF7 PUSH2 0x37B1 JUMP JUMPDEST PUSH1 0x1 PUSH1 0x5 PUSH0 PUSH2 0x100 EXP DUP2 SLOAD DUP2 PUSH1 0xFF MUL NOT AND SWAP1 DUP4 ISZERO ISZERO MUL OR SWAP1 SSTORE POP PUSH32 0x62E78CEA01BEE320CD4E420270B5EA74000D11B0C9F74754EBDBFC544B05A258 PUSH2 0x2F3A PUSH2 0x2763 JUMP JUMPDEST PUSH1 0x40 MLOAD PUSH2 0x2F47 SWAP2 SWAP1 PUSH2 0x4A9A JUMP JUMPDEST PUSH1 0x40 MLOAD DUP1 SWAP2 SUB SWAP1 LOG1 JUMP JUMPDEST PUSH1 0x60 PUSH2 0x2F87 PUSH1 0x7 PUSH32 0x0 PUSH2 0x37F2 SWAP1 SWAP2 SWAP1 PUSH4 0xFFFFFFFF AND JUMP JUMPDEST SWAP1 POP SWAP1 JUMP JUMPDEST PUSH1 0x60 PUSH2 0x2FC2 PUSH1 0x8 PUSH32 0x0 PUSH2 0x37F2 SWAP1 SWAP2 SWAP1 PUSH4 0xFFFFFFFF AND JUMP JUMPDEST SWAP1 POP SWAP1 JUMP JUMPDEST PUSH0 DUP4 PUSH20 0xFFFFFFFFFFFFFFFFFFFFFFFFFFFFFFFFFFFFFFFF AND EXTCODESIZE SUB PUSH2 0x3022 JUMPI DUP3 PUSH1 0x40 MLOAD PUSH32 0xDEB6D3ED00000000000000000000000000000000000000000000000000000000 DUP2 MSTORE PUSH1 0x4 ADD PUSH2 0x3019 SWAP2 SWAP1 PUSH2 0x4A9A JUMP JUMPDEST PUSH1 0x40 MLOAD DUP1 SWAP2 SUB SWAP1 REVERT JUMPDEST DUP3 PUSH20 0xFFFFFFFFFFFFFFFFFFFFFFFFFFFFFFFFFFFFFFFF AND PUSH4 0x7B04A2D0 DUP6 DUP5 DUP5 PUSH1 0x40 MLOAD DUP5 PUSH4 0xFFFFFFFF AND PUSH1 0xE0 SHL DUP2 MSTORE PUSH1 0x4 ADD PUSH2 0x305F SWAP4 SWAP3 SWAP2 SWAP1 PUSH2 0x4C2B JUMP JUMPDEST PUSH1 0x20 PUSH1 0x40 MLOAD DUP1 DUP4 SUB DUP2 PUSH0 DUP8 GAS CALL SWAP3 POP POP POP DUP1 ISZERO PUSH2 0x309A JUMPI POP PUSH1 0x40 MLOAD RETURNDATASIZE PUSH1 0x1F NOT PUSH1 0x1F DUP3 ADD AND DUP3 ADD DUP1 PUSH1 0x40 MSTORE POP DUP2 ADD SWAP1 PUSH2 0x3097 SWAP2 SWAP1 PUSH2 0x4C00 JUMP JUMPDEST PUSH1 0x1 JUMPDEST PUSH2 0x311B JUMPI RETURNDATASIZE DUP1 PUSH0 DUP2 EQ PUSH2 0x30C8 JUMPI PUSH1 0x40 MLOAD SWAP2 POP PUSH1 0x1F NOT PUSH1 0x3F RETURNDATASIZE ADD AND DUP3 ADD PUSH1 0x40 MSTORE RETURNDATASIZE DUP3 MSTORE RETURNDATASIZE PUSH0 PUSH1 0x20 DUP5 ADD RETURNDATACOPY PUSH2 0x30CD JUMP JUMPDEST PUSH1 0x60 SWAP2 POP JUMPDEST POP PUSH0 DUP2 MLOAD SUB PUSH2 0x3113 JUMPI DUP4 PUSH1 0x40 MLOAD PUSH32 0xDEB6D3ED00000000000000000000000000000000000000000000000000000000 DUP2 MSTORE PUSH1 0x4 ADD PUSH2 0x310A SWAP2 SWAP1 PUSH2 0x4A9A JUMP JUMPDEST PUSH1 0x40 MLOAD DUP1 SWAP2 SUB SWAP1 REVERT JUMPDEST DUP1 MLOAD PUSH1 0x20 DUP3 ADD REVERT JUMPDEST PUSH4 0x7B04A2D0 PUSH1 0xE0 SHL PUSH28 0xFFFFFFFFFFFFFFFFFFFFFFFFFFFFFFFFFFFFFFFFFFFFFFFFFFFFFFFF NOT AND DUP2 PUSH28 0xFFFFFFFFFFFFFFFFFFFFFFFFFFFFFFFFFFFFFFFFFFFFFFFFFFFFFFFF NOT AND EQ PUSH2 0x31A4 JUMPI DUP4 PUSH1 0x40 MLOAD PUSH32 0xDEB6D3ED00000000000000000000000000000000000000000000000000000000 DUP2 MSTORE PUSH1 0x4 ADD PUSH2 0x319B SWAP2 SWAP1 PUSH2 0x4A9A JUMP JUMPDEST PUSH1 0x40 MLOAD DUP1 SWAP2 SUB SWAP1 REVERT JUMPDEST POP POP POP POP POP JUMP JUMPDEST PUSH0 PUSH1 0x9 PUSH0 DUP4 PUSH20 0xFFFFFFFFFFFFFFFFFFFFFFFFFFFFFFFFFFFFFFFF AND PUSH20 0xFFFFFFFFFFFFFFFFFFFFFFFFFFFFFFFFFFFFFFFF AND DUP2 MSTORE PUSH1 0x20 ADD SWAP1 DUP2 MSTORE PUSH1 0x20 ADD PUSH0 KECCAK256 PUSH0 DUP2 SLOAD DUP1 SWAP3 SWAP2 SWAP1 PUSH1 0x1 ADD SWAP2 SWAP1 POP SSTORE SWAP1 POP SWAP2 SWAP1 POP JUMP JUMPDEST PUSH0 PUSH2 0x3210 PUSH2 0x320A PUSH2 0x2A42 JUMP JUMPDEST DUP4 PUSH2 0x389F JUMP JUMPDEST SWAP1 POP SWAP2 SWAP1 POP JUMP JUMPDEST PUSH0 PUSH0 PUSH0 PUSH0 PUSH2 0x3227 DUP9 DUP9 DUP9 DUP9 PUSH2 0x38DF JUMP JUMPDEST SWAP3 POP SWAP3 POP SWAP3 POP PUSH2 0x3237 DUP3 DUP3 PUSH2 0x39C6 JUMP JUMPDEST DUP3 SWAP4 POP POP POP POP SWAP5 SWAP4 POP POP POP POP JUMP JUMPDEST PUSH2 0x324F DUP3 DUP3 PUSH2 0x1FFC JUMP JUMPDEST PUSH2 0x3292 JUMPI DUP1 DUP3 PUSH1 0x40 MLOAD PUSH32 0xE2517D3F00000000000000000000000000000000000000000000000000000000 DUP2 MSTORE PUSH1 0x4 ADD PUSH2 0x3289 SWAP3 SWAP2 SWAP1 PUSH2 0x4C67 JUMP JUMPDEST PUSH1 0x40 MLOAD DUP1 SWAP2 SUB SWAP1 REVERT JUMPDEST POP POP JUMP JUMPDEST PUSH0 PUSH32 0x7965DB0B00000000000000000000000000000000000000000000000000000000 PUSH28 0xFFFFFFFFFFFFFFFFFFFFFFFFFFFFFFFFFFFFFFFFFFFFFFFFFFFFFFFF NOT AND DUP3 PUSH28 0xFFFFFFFFFFFFFFFFFFFFFFFFFFFFFFFFFFFFFFFFFFFFFFFFFFFFFFFF NOT AND EQ DUP1 PUSH2 0x3308 JUMPI POP PUSH2 0x3307 DUP3 PUSH2 0x3B28 JUMP JUMPDEST JUMPDEST SWAP1 POP SWAP2 SWAP1 POP JUMP JUMPDEST PUSH0 PUSH20 0xFFFFFFFFFFFFFFFFFFFFFFFFFFFFFFFFFFFFFFFF AND DUP4 PUSH20 0xFFFFFFFFFFFFFFFFFFFFFFFFFFFFFFFFFFFFFFFF AND EQ PUSH2 0x3406 JUMPI PUSH1 0xD PUSH0 DUP5 PUSH20 0xFFFFFFFFFFFFFFFFFFFFFFFFFFFFFFFFFFFFFFFF AND PUSH20 0xFFFFFFFFFFFFFFFFFFFFFFFFFFFFFFFFFFFFFFFF AND DUP2 MSTORE PUSH1 0x20 ADD SWAP1 DUP2 MSTORE PUSH1 0x20 ADD PUSH0 KECCAK256 PUSH0 SWAP1 SLOAD SWAP1 PUSH2 0x100 EXP SWAP1 DIV PUSH1 0xFF AND ISZERO PUSH1 0x40 MLOAD DUP1 PUSH1 0x40 ADD PUSH1 0x40 MSTORE DUP1 PUSH1 0x15 DUP2 MSTORE PUSH1 0x20 ADD PUSH32 0x46524F5A454E5F53454E4445525F4143434F554E540000000000000000000000 DUP2 MSTORE POP SWAP1 PUSH2 0x3404 JUMPI PUSH1 0x40 MLOAD PUSH32 0x8C379A000000000000000000000000000000000000000000000000000000000 DUP2 MSTORE PUSH1 0x4 ADD PUSH2 0x33FB SWAP2 SWAP1 PUSH2 0x40D4 JUMP JUMPDEST PUSH1 0x40 MLOAD DUP1 SWAP2 SUB SWAP1 REVERT JUMPDEST POP JUMPDEST PUSH0 PUSH20 0xFFFFFFFFFFFFFFFFFFFFFFFFFFFFFFFFFFFFFFFF AND DUP3 PUSH20 0xFFFFFFFFFFFFFFFFFFFFFFFFFFFFFFFFFFFFFFFF AND EQ PUSH2 0x34FD JUMPI PUSH1 0xD PUSH0 DUP4 PUSH20 0xFFFFFFFFFFFFFFFFFFFFFFFFFFFFFFFFFFFFFFFF AND PUSH20 0xFFFFFFFFFFFFFFFFFFFFFFFFFFFFFFFFFFFFFFFF AND DUP2 MSTORE PUSH1 0x20 ADD SWAP1 DUP2 MSTORE PUSH1 0x20 ADD PUSH0 KECCAK256 PUSH0 SWAP1 SLOAD SWAP1 PUSH2 0x100 EXP SWAP1 DIV PUSH1 0xFF AND ISZERO PUSH1 0x40 MLOAD DUP1 PUSH1 0x40 ADD PUSH1 0x40 MSTORE DUP1 PUSH1 0x18 DUP2 MSTORE PUSH1 0x20 ADD PUSH32 0x46524F5A454E5F524543495049454E545F4143434F554E540000000000000000 DUP2 MSTORE POP SWAP1 PUSH2 0x34FB JUMPI PUSH1 0x40 MLOAD PUSH32 0x8C379A000000000000000000000000000000000000000000000000000000000 DUP2 MSTORE PUSH1 0x4 ADD PUSH2 0x34F2 SWAP2 SWAP1 PUSH2 0x40D4 JUMP JUMPDEST PUSH1 0x40 MLOAD DUP1 SWAP2 SUB SWAP1 REVERT JUMPDEST POP JUMPDEST PUSH2 0x3508 DUP4 DUP4 DUP4 PUSH2 0x3B91 JUMP JUMPDEST POP POP POP JUMP JUMPDEST PUSH0 PUSH20 0xFFFFFFFFFFFFFFFFFFFFFFFFFFFFFFFFFFFFFFFF AND DUP5 PUSH20 0xFFFFFFFFFFFFFFFFFFFFFFFFFFFFFFFFFFFFFFFF AND SUB PUSH2 0x357D JUMPI PUSH0 PUSH1 0x40 MLOAD PUSH32 0xE602DF0500000000000000000000000000000000000000000000000000000000 DUP2 MSTORE PUSH1 0x4 ADD PUSH2 0x3574 SWAP2 SWAP1 PUSH2 0x4A9A JUMP JUMPDEST PUSH1 0x40 MLOAD DUP1 SWAP2 SUB SWAP1 REVERT JUMPDEST PUSH0 PUSH20 0xFFFFFFFFFFFFFFFFFFFFFFFFFFFFFFFFFFFFFFFF AND DUP4 PUSH20 0xFFFFFFFFFFFFFFFFFFFFFFFFFFFFFFFFFFFFFFFF AND SUB PUSH2 0x35ED JUMPI PUSH0 PUSH1 0x40 MLOAD PUSH32 0x94280D6200000000000000000000000000000000000000000000000000000000 DUP2 MSTORE PUSH1 0x4 ADD PUSH2 0x35E4 SWAP2 SWAP1 PUSH2 0x4A9A JUMP JUMPDEST PUSH1 0x40 MLOAD DUP1 SWAP2 SUB SWAP1 REVERT JUMPDEST DUP2 PUSH1 0x1 PUSH0 DUP7 PUSH20 0xFFFFFFFFFFFFFFFFFFFFFFFFFFFFFFFFFFFFFFFF AND PUSH20 0xFFFFFFFFFFFFFFFFFFFFFFFFFFFFFFFFFFFFFFFF AND DUP2 MSTORE PUSH1 0x20 ADD SWAP1 DUP2 MSTORE PUSH1 0x20 ADD PUSH0 KECCAK256 PUSH0 DUP6 PUSH20 0xFFFFFFFFFFFFFFFFFFFFFFFFFFFFFFFFFFFFFFFF AND PUSH20 0xFFFFFFFFFFFFFFFFFFFFFFFFFFFFFFFFFFFFFFFF AND DUP2 MSTORE PUSH1 0x20 ADD SWAP1 DUP2 MSTORE PUSH1 0x20 ADD PUSH0 KECCAK256 DUP2 SWAP1 SSTORE POP DUP1 ISZERO PUSH2 0x36D6 JUMPI DUP3 PUSH20 0xFFFFFFFFFFFFFFFFFFFFFFFFFFFFFFFFFFFFFFFF AND DUP5 PUSH20 0xFFFFFFFFFFFFFFFFFFFFFFFFFFFFFFFFFFFFFFFF AND PUSH32 0x8C5BE1E5EBEC7D5BD14F71427D1E84F3DD0314C0F7B2291E5B200AC8C7C3B925 DUP5 PUSH1 0x40 MLOAD PUSH2 0x36CD SWAP2 SWAP1 PUSH2 0x3E9A JUMP JUMPDEST PUSH1 0x40 MLOAD DUP1 SWAP2 SUB SWAP1 LOG3 JUMPDEST POP POP POP POP JUMP JUMPDEST PUSH0 PUSH32 0x8B73C3C69BB8FE3D512ECC4CF759CC79239F7B179B0FFACAA9A75D522B39400F PUSH32 0x0 PUSH32 0x0 CHAINID ADDRESS PUSH1 0x40 MLOAD PUSH1 0x20 ADD PUSH2 0x3756 SWAP6 SWAP5 SWAP4 SWAP3 SWAP2 SWAP1 PUSH2 0x4C8E JUMP JUMPDEST PUSH1 0x40 MLOAD PUSH1 0x20 DUP2 DUP4 SUB SUB DUP2 MSTORE SWAP1 PUSH1 0x40 MSTORE DUP1 MLOAD SWAP1 PUSH1 0x20 ADD KECCAK256 SWAP1 POP SWAP1 JUMP JUMPDEST PUSH2 0x3779 PUSH2 0x1D1D JUMP JUMPDEST PUSH2 0x37AF JUMPI PUSH1 0x40 MLOAD PUSH32 0x8DFC202B00000000000000000000000000000000000000000000000000000000 DUP2 MSTORE PUSH1 0x4 ADD PUSH1 0x40 MLOAD DUP1 SWAP2 SUB SWAP1 REVERT JUMPDEST JUMP JUMPDEST PUSH2 0x37B9 PUSH2 0x1D1D JUMP JUMPDEST ISZERO PUSH2 0x37F0 JUMPI PUSH1 0x40 MLOAD PUSH32 0xD93C066500000000000000000000000000000000000000000000000000000000 DUP2 MSTORE PUSH1 0x4 ADD PUSH1 0x40 MLOAD DUP1 SWAP2 SUB SWAP1 REVERT JUMPDEST JUMP JUMPDEST PUSH1 0x60 PUSH1 0xFF PUSH0 SHL DUP4 EQ PUSH2 0x380E JUMPI PUSH2 0x3807 DUP4 PUSH2 0x3BA9 JUMP JUMPDEST SWAP1 POP PUSH2 0x3899 JUMP JUMPDEST DUP2 DUP1 SLOAD PUSH2 0x381A SWAP1 PUSH2 0x48A1 JUMP JUMPDEST DUP1 PUSH1 0x1F ADD PUSH1 0x20 DUP1 SWAP2 DIV MUL PUSH1 0x20 ADD PUSH1 0x40 MLOAD SWAP1 DUP2 ADD PUSH1 0x40 MSTORE DUP1 SWAP3 SWAP2 SWAP1 DUP2 DUP2 MSTORE PUSH1 0x20 ADD DUP3 DUP1 SLOAD PUSH2 0x3846 SWAP1 PUSH2 0x48A1 JUMP JUMPDEST DUP1 ISZERO PUSH2 0x3891 JUMPI DUP1 PUSH1 0x1F LT PUSH2 0x3868 JUMPI PUSH2 0x100 DUP1 DUP4 SLOAD DIV MUL DUP4 MSTORE SWAP2 PUSH1 0x20 ADD SWAP2 PUSH2 0x3891 JUMP JUMPDEST DUP3 ADD SWAP2 SWAP1 PUSH0 MSTORE PUSH1 0x20 PUSH0 KECCAK256 SWAP1 JUMPDEST DUP2 SLOAD DUP2 MSTORE SWAP1 PUSH1 0x1 ADD SWAP1 PUSH1 0x20 ADD DUP1 DUP4 GT PUSH2 0x3874 JUMPI DUP3 SWAP1 SUB PUSH1 0x1F AND DUP3 ADD SWAP2 JUMPDEST POP POP POP POP POP SWAP1 POP JUMPDEST SWAP3 SWAP2 POP POP JUMP JUMPDEST PUSH0 PUSH1 0x40 MLOAD PUSH32 0x1901000000000000000000000000000000000000000000000000000000000000 DUP2 MSTORE DUP4 PUSH1 0x2 DUP3 ADD MSTORE DUP3 PUSH1 0x22 DUP3 ADD MSTORE PUSH1 0x42 DUP2 KECCAK256 SWAP2 POP POP SWAP3 SWAP2 POP POP JUMP JUMPDEST PUSH0 PUSH0 PUSH0 PUSH32 0x7FFFFFFFFFFFFFFFFFFFFFFFFFFFFFFF5D576E7357A4501DDFE92F46681B20A0 DUP5 PUSH0 SHR GT ISZERO PUSH2 0x391B JUMPI PUSH0 PUSH1 0x3 DUP6 SWAP3 POP SWAP3 POP SWAP3 POP PUSH2 0x39BC JUMP JUMPDEST PUSH0 PUSH1 0x1 DUP9 DUP9 DUP9 DUP9 PUSH1 0x40 MLOAD PUSH0 DUP2 MSTORE PUSH1 0x20 ADD PUSH1 0x40 MSTORE PUSH1 0x40 MLOAD PUSH2 0x393E SWAP5 SWAP4 SWAP3 SWAP2 SWAP1 PUSH2 0x4CDF JUMP JUMPDEST PUSH1 0x20 PUSH1 0x40 MLOAD PUSH1 0x20 DUP2 SUB SWAP1 DUP1 DUP5 SUB SWAP1 DUP6 GAS STATICCALL ISZERO DUP1 ISZERO PUSH2 0x395E JUMPI RETURNDATASIZE PUSH0 PUSH0 RETURNDATACOPY RETURNDATASIZE PUSH0 REVERT JUMPDEST POP POP POP PUSH1 0x20 PUSH1 0x40 MLOAD SUB MLOAD SWAP1 POP PUSH0 PUSH20 0xFFFFFFFFFFFFFFFFFFFFFFFFFFFFFFFFFFFFFFFF AND DUP2 PUSH20 0xFFFFFFFFFFFFFFFFFFFFFFFFFFFFFFFFFFFFFFFF AND SUB PUSH2 0x39AF JUMPI PUSH0 PUSH1 0x1 PUSH0 PUSH0 SHL SWAP4 POP SWAP4 POP SWAP4 POP POP PUSH2 0x39BC JUMP JUMPDEST DUP1 PUSH0 PUSH0 PUSH0 SHL SWAP4 POP SWAP4 POP SWAP4 POP POP JUMPDEST SWAP5 POP SWAP5 POP SWAP5 SWAP2 POP POP JUMP JUMPDEST PUSH0 PUSH1 0x3 DUP2 GT ISZERO PUSH2 0x39D9 JUMPI PUSH2 0x39D8 PUSH2 0x4D22 JUMP JUMPDEST JUMPDEST DUP3 PUSH1 0x3 DUP2 GT ISZERO PUSH2 0x39EC JUMPI PUSH2 0x39EB PUSH2 0x4D22 JUMP JUMPDEST JUMPDEST SUB ISZERO PUSH2 0x3B24 JUMPI PUSH1 0x1 PUSH1 0x3 DUP2 GT ISZERO PUSH2 0x3A06 JUMPI PUSH2 0x3A05 PUSH2 0x4D22 JUMP JUMPDEST JUMPDEST DUP3 PUSH1 0x3 DUP2 GT ISZERO PUSH2 0x3A19 JUMPI PUSH2 0x3A18 PUSH2 0x4D22 JUMP JUMPDEST JUMPDEST SUB PUSH2 0x3A50 JUMPI PUSH1 0x40 MLOAD PUSH32 0xF645EEDF00000000000000000000000000000000000000000000000000000000 DUP2 MSTORE PUSH1 0x4 ADD PUSH1 0x40 MLOAD DUP1 SWAP2 SUB SWAP1 REVERT JUMPDEST PUSH1 0x2 PUSH1 0x3 DUP2 GT ISZERO PUSH2 0x3A64 JUMPI PUSH2 0x3A63 PUSH2 0x4D22 JUMP JUMPDEST JUMPDEST DUP3 PUSH1 0x3 DUP2 GT ISZERO PUSH2 0x3A77 JUMPI PUSH2 0x3A76 PUSH2 0x4D22 JUMP JUMPDEST JUMPDEST SUB PUSH2 0x3ABB JUMPI DUP1 PUSH0 SHR PUSH1 0x40 MLOAD PUSH32 0xFCE698F700000000000000000000000000000000000000000000000000000000 DUP2 MSTORE PUSH1 0x4 ADD PUSH2 0x3AB2 SWAP2 SWAP1 PUSH2 0x3E9A JUMP JUMPDEST PUSH1 0x40 MLOAD DUP1 SWAP2 SUB SWAP1 REVERT JUMPDEST PUSH1 0x3 DUP1 DUP2 GT ISZERO PUSH2 0x3ACE JUMPI PUSH2 0x3ACD PUSH2 0x4D22 JUMP JUMPDEST JUMPDEST DUP3 PUSH1 0x3 DUP2 GT ISZERO PUSH2 0x3AE1 JUMPI PUSH2 0x3AE0 PUSH2 0x4D22 JUMP JUMPDEST JUMPDEST SUB PUSH2 0x3B23 JUMPI DUP1 PUSH1 0x40 MLOAD PUSH32 0xD78BCE0C00000000000000000000000000000000000000000000000000000000 DUP2 MSTORE PUSH1 0x4 ADD PUSH2 0x3B1A SWAP2 SWAP1 PUSH2 0x42E5 JUMP JUMPDEST PUSH1 0x40 MLOAD DUP1 SWAP2 SUB SWAP1 REVERT JUMPDEST JUMPDEST POP POP JUMP JUMPDEST PUSH0 PUSH32 0x1FFC9A700000000000000000000000000000000000000000000000000000000 PUSH28 0xFFFFFFFFFFFFFFFFFFFFFFFFFFFFFFFFFFFFFFFFFFFFFFFFFFFFFFFF NOT AND DUP3 PUSH28 0xFFFFFFFFFFFFFFFFFFFFFFFFFFFFFFFFFFFFFFFFFFFFFFFFFFFFFFFF NOT AND EQ SWAP1 POP SWAP2 SWAP1 POP JUMP JUMPDEST PUSH2 0x3B99 PUSH2 0x37B1 JUMP JUMPDEST PUSH2 0x3BA4 DUP4 DUP4 DUP4 PUSH2 0x3C1B JUMP JUMPDEST POP POP POP JUMP JUMPDEST PUSH1 0x60 PUSH0 PUSH2 0x3BB5 DUP4 PUSH2 0x3E34 JUMP JUMPDEST SWAP1 POP PUSH0 PUSH1 0x20 PUSH8 0xFFFFFFFFFFFFFFFF DUP2 GT ISZERO PUSH2 0x3BD3 JUMPI PUSH2 0x3BD2 PUSH2 0x439F JUMP JUMPDEST JUMPDEST PUSH1 0x40 MLOAD SWAP1 DUP1 DUP3 MSTORE DUP1 PUSH1 0x1F ADD PUSH1 0x1F NOT AND PUSH1 0x20 ADD DUP3 ADD PUSH1 0x40 MSTORE DUP1 ISZERO PUSH2 0x3C05 JUMPI DUP2 PUSH1 0x20 ADD PUSH1 0x1 DUP3 MUL DUP1 CALLDATASIZE DUP4 CALLDATACOPY DUP1 DUP3 ADD SWAP2 POP POP SWAP1 POP JUMPDEST POP SWAP1 POP DUP2 DUP2 MSTORE DUP4 PUSH1 0x20 DUP3 ADD MSTORE DUP1 SWAP3 POP POP POP SWAP2 SWAP1 POP JUMP JUMPDEST PUSH0 PUSH20 0xFFFFFFFFFFFFFFFFFFFFFFFFFFFFFFFFFFFFFFFF AND DUP4 PUSH20 0xFFFFFFFFFFFFFFFFFFFFFFFFFFFFFFFFFFFFFFFF AND SUB PUSH2 0x3C6B JUMPI DUP1 PUSH1 0x2 PUSH0 DUP3 DUP3 SLOAD PUSH2 0x3C5F SWAP2 SWAP1 PUSH2 0x492B JUMP JUMPDEST SWAP3 POP POP DUP2 SWAP1 SSTORE POP PUSH2 0x3D39 JUMP JUMPDEST PUSH0 PUSH0 PUSH0 DUP6 PUSH20 0xFFFFFFFFFFFFFFFFFFFFFFFFFFFFFFFFFFFFFFFF AND PUSH20 0xFFFFFFFFFFFFFFFFFFFFFFFFFFFFFFFFFFFFFFFF AND DUP2 MSTORE PUSH1 0x20 ADD SWAP1 DUP2 MSTORE PUSH1 0x20 ADD PUSH0 KECCAK256 SLOAD SWAP1 POP DUP2 DUP2 LT ISZERO PUSH2 0x3CF4 JUMPI DUP4 DUP2 DUP4 PUSH1 0x40 MLOAD PUSH32 0xE450D38C00000000000000000000000000000000000000000000000000000000 DUP2 MSTORE PUSH1 0x4 ADD PUSH2 0x3CEB SWAP4 SWAP3 SWAP2 SWAP1 PUSH2 0x4B1B JUMP JUMPDEST PUSH1 0x40 MLOAD DUP1 SWAP2 SUB SWAP1 REVERT JUMPDEST DUP2 DUP2 SUB PUSH0 PUSH0 DUP7 PUSH20 0xFFFFFFFFFFFFFFFFFFFFFFFFFFFFFFFFFFFFFFFF AND PUSH20 0xFFFFFFFFFFFFFFFFFFFFFFFFFFFFFFFFFFFFFFFF AND DUP2 MSTORE PUSH1 0x20 ADD SWAP1 DUP2 MSTORE PUSH1 0x20 ADD PUSH0 KECCAK256 DUP2 SWAP1 SSTORE POP POP JUMPDEST PUSH0 PUSH20 0xFFFFFFFFFFFFFFFFFFFFFFFFFFFFFFFFFFFFFFFF AND DUP3 PUSH20 0xFFFFFFFFFFFFFFFFFFFFFFFFFFFFFFFFFFFFFFFF AND SUB PUSH2 0x3D80 JUMPI DUP1 PUSH1 0x2 PUSH0 DUP3 DUP3 SLOAD SUB SWAP3 POP POP DUP2 SWAP1 SSTORE POP PUSH2 0x3DCA JUMP JUMPDEST DUP1 PUSH0 PUSH0 DUP5 PUSH20 0xFFFFFFFFFFFFFFFFFFFFFFFFFFFFFFFFFFFFFFFF AND PUSH20 0xFFFFFFFFFFFFFFFFFFFFFFFFFFFFFFFFFFFFFFFF AND DUP2 MSTORE PUSH1 0x20 ADD SWAP1 DUP2 MSTORE PUSH1 0x20 ADD PUSH0 KECCAK256 PUSH0 DUP3 DUP3 SLOAD ADD SWAP3 POP POP DUP2 SWAP1 SSTORE POP JUMPDEST DUP2 PUSH20 0xFFFFFFFFFFFFFFFFFFFFFFFFFFFFFFFFFFFFFFFF AND DUP4 PUSH20 0xFFFFFFFFFFFFFFFFFFFFFFFFFFFFFFFFFFFFFFFF AND PUSH32 0xDDF252AD1BE2C89B69C2B068FC378DAA952BA7F163C4A11628F55A4DF523B3EF DUP4 PUSH1 0x40 MLOAD PUSH2 0x3E27 SWAP2 SWAP1 PUSH2 0x3E9A JUMP JUMPDEST PUSH1 0x40 MLOAD DUP1 SWAP2 SUB SWAP1 LOG3 POP POP POP JUMP JUMPDEST PUSH0 PUSH0 PUSH1 0xFF DUP4 PUSH0 SHR AND SWAP1 POP PUSH1 0x1F DUP2 GT ISZERO PUSH2 0x3E79 JUMPI PUSH1 0x40 MLOAD PUSH32 0xB3512B0C00000000000000000000000000000000000000000000000000000000 DUP2 MSTORE PUSH1 0x4 ADD PUSH1 0x40 MLOAD DUP1 SWAP2 SUB SWAP1 REVERT JUMPDEST DUP1 SWAP2 POP POP SWAP2 SWAP1 POP JUMP JUMPDEST PUSH0 DUP2 SWAP1 POP SWAP2 SWAP1 POP JUMP JUMPDEST PUSH2 0x3E94 DUP2 PUSH2 0x3E82 JUMP JUMPDEST DUP3 MSTORE POP POP JUMP JUMPDEST PUSH0 PUSH1 0x20 DUP3 ADD SWAP1 POP PUSH2 0x3EAD PUSH0 DUP4 ADD DUP5 PUSH2 0x3E8B JUMP JUMPDEST SWAP3 SWAP2 POP POP JUMP JUMPDEST PUSH0 PUSH1 0x40 MLOAD SWAP1 POP SWAP1 JUMP JUMPDEST PUSH0 PUSH0 REVERT JUMPDEST PUSH0 PUSH0 REVERT JUMPDEST PUSH0 PUSH20 0xFFFFFFFFFFFFFFFFFFFFFFFFFFFFFFFFFFFFFFFF DUP3 AND SWAP1 POP SWAP2 SWAP1 POP JUMP JUMPDEST PUSH0 PUSH2 0x3EED DUP3 PUSH2 0x3EC4 JUMP JUMPDEST SWAP1 POP SWAP2 SWAP1 POP JUMP JUMPDEST PUSH2 0x3EFD DUP2 PUSH2 0x3EE3 JUMP JUMPDEST DUP2 EQ PUSH2 0x3F07 JUMPI PUSH0 PUSH0 REVERT JUMPDEST POP JUMP JUMPDEST PUSH0 DUP2 CALLDATALOAD SWAP1 POP PUSH2 0x3F18 DUP2 PUSH2 0x3EF4 JUMP JUMPDEST SWAP3 SWAP2 POP POP JUMP JUMPDEST PUSH0 PUSH1 0x20 DUP3 DUP5 SUB SLT ISZERO PUSH2 0x3F33 JUMPI PUSH2 0x3F32 PUSH2 0x3EBC JUMP JUMPDEST JUMPDEST PUSH0 PUSH2 0x3F40 DUP5 DUP3 DUP6 ADD PUSH2 0x3F0A JUMP JUMPDEST SWAP2 POP POP SWAP3 SWAP2 POP POP JUMP JUMPDEST PUSH0 PUSH32 0xFFFFFFFF00000000000000000000000000000000000000000000000000000000 DUP3 AND SWAP1 POP SWAP2 SWAP1 POP JUMP JUMPDEST PUSH2 0x3F7D DUP2 PUSH2 0x3F49 JUMP JUMPDEST DUP2 EQ PUSH2 0x3F87 JUMPI PUSH0 PUSH0 REVERT JUMPDEST POP JUMP JUMPDEST PUSH0 DUP2 CALLDATALOAD SWAP1 POP PUSH2 0x3F98 DUP2 PUSH2 0x3F74 JUMP JUMPDEST SWAP3 SWAP2 POP POP JUMP JUMPDEST PUSH0 PUSH1 0x20 DUP3 DUP5 SUB SLT ISZERO PUSH2 0x3FB3 JUMPI PUSH2 0x3FB2 PUSH2 0x3EBC JUMP JUMPDEST JUMPDEST PUSH0 PUSH2 0x3FC0 DUP5 DUP3 DUP6 ADD PUSH2 0x3F8A JUMP JUMPDEST SWAP2 POP POP SWAP3 SWAP2 POP POP JUMP JUMPDEST PUSH0 DUP2 ISZERO ISZERO SWAP1 POP SWAP2 SWAP1 POP JUMP JUMPDEST PUSH2 0x3FDD DUP2 PUSH2 0x3FC9 JUMP JUMPDEST DUP3 MSTORE POP POP JUMP JUMPDEST PUSH0 PUSH1 0x20 DUP3 ADD SWAP1 POP PUSH2 0x3FF6 PUSH0 DUP4 ADD DUP5 PUSH2 0x3FD4 JUMP JUMPDEST SWAP3 SWAP2 POP POP JUMP JUMPDEST PUSH2 0x4005 DUP2 PUSH2 0x3E82 JUMP JUMPDEST DUP2 EQ PUSH2 0x400F JUMPI PUSH0 PUSH0 REVERT JUMPDEST POP JUMP JUMPDEST PUSH0 DUP2 CALLDATALOAD SWAP1 POP PUSH2 0x4020 DUP2 PUSH2 0x3FFC JUMP JUMPDEST SWAP3 SWAP2 POP POP JUMP JUMPDEST PUSH0 PUSH0 PUSH1 0x40 DUP4 DUP6 SUB SLT ISZERO PUSH2 0x403C JUMPI PUSH2 0x403B PUSH2 0x3EBC JUMP JUMPDEST JUMPDEST PUSH0 PUSH2 0x4049 DUP6 DUP3 DUP7 ADD PUSH2 0x3F0A JUMP JUMPDEST SWAP3 POP POP PUSH1 0x20 PUSH2 0x405A DUP6 DUP3 DUP7 ADD PUSH2 0x4012 JUMP JUMPDEST SWAP2 POP POP SWAP3 POP SWAP3 SWAP1 POP JUMP JUMPDEST PUSH0 DUP2 MLOAD SWAP1 POP SWAP2 SWAP1 POP JUMP JUMPDEST PUSH0 DUP3 DUP3 MSTORE PUSH1 0x20 DUP3 ADD SWAP1 POP SWAP3 SWAP2 POP POP JUMP JUMPDEST DUP3 DUP2 DUP4 MCOPY PUSH0 DUP4 DUP4 ADD MSTORE POP POP POP JUMP JUMPDEST PUSH0 PUSH1 0x1F NOT PUSH1 0x1F DUP4 ADD AND SWAP1 POP SWAP2 SWAP1 POP JUMP JUMPDEST PUSH0 PUSH2 0x40A6 DUP3 PUSH2 0x4064 JUMP JUMPDEST PUSH2 0x40B0 DUP2 DUP6 PUSH2 0x406E JUMP JUMPDEST SWAP4 POP PUSH2 0x40C0 DUP2 DUP6 PUSH1 0x20 DUP7 ADD PUSH2 0x407E JUMP JUMPDEST PUSH2 0x40C9 DUP2 PUSH2 0x408C JUMP JUMPDEST DUP5 ADD SWAP2 POP POP SWAP3 SWAP2 POP POP JUMP JUMPDEST PUSH0 PUSH1 0x20 DUP3 ADD SWAP1 POP DUP2 DUP2 SUB PUSH0 DUP4 ADD MSTORE PUSH2 0x40EC DUP2 DUP5 PUSH2 0x409C JUMP JUMPDEST SWAP1 POP SWAP3 SWAP2 POP POP JUMP JUMPDEST PUSH0 DUP2 SWAP1 POP SWAP2 SWAP1 POP JUMP JUMPDEST PUSH2 0x4106 DUP2 PUSH2 0x40F4 JUMP JUMPDEST DUP2 EQ PUSH2 0x4110 JUMPI PUSH0 PUSH0 REVERT JUMPDEST POP JUMP JUMPDEST PUSH0 DUP2 CALLDATALOAD SWAP1 POP PUSH2 0x4121 DUP2 PUSH2 0x40FD JUMP JUMPDEST SWAP3 SWAP2 POP POP JUMP JUMPDEST PUSH0 PUSH1 0x20 DUP3 DUP5 SUB SLT ISZERO PUSH2 0x413C JUMPI PUSH2 0x413B PUSH2 0x3EBC JUMP JUMPDEST JUMPDEST PUSH0 PUSH2 0x4149 DUP5 DUP3 DUP6 ADD PUSH2 0x4113 JUMP JUMPDEST SWAP2 POP POP SWAP3 SWAP2 POP POP JUMP JUMPDEST PUSH0 PUSH0 REVERT JUMPDEST PUSH0 PUSH0 REVERT JUMPDEST PUSH0 PUSH0 REVERT JUMPDEST PUSH0 PUSH0 DUP4 PUSH1 0x1F DUP5 ADD SLT PUSH2 0x4173 JUMPI PUSH2 0x4172 PUSH2 0x4152 JUMP JUMPDEST JUMPDEST DUP3 CALLDATALOAD SWAP1 POP PUSH8 0xFFFFFFFFFFFFFFFF DUP2 GT ISZERO PUSH2 0x4190 JUMPI PUSH2 0x418F PUSH2 0x4156 JUMP JUMPDEST JUMPDEST PUSH1 0x20 DUP4 ADD SWAP2 POP DUP4 PUSH1 0x20 DUP3 MUL DUP4 ADD GT ISZERO PUSH2 0x41AC JUMPI PUSH2 0x41AB PUSH2 0x415A JUMP JUMPDEST JUMPDEST SWAP3 POP SWAP3 SWAP1 POP JUMP JUMPDEST PUSH0 PUSH0 DUP4 PUSH1 0x1F DUP5 ADD SLT PUSH2 0x41C8 JUMPI PUSH2 0x41C7 PUSH2 0x4152 JUMP JUMPDEST JUMPDEST DUP3 CALLDATALOAD SWAP1 POP PUSH8 0xFFFFFFFFFFFFFFFF DUP2 GT ISZERO PUSH2 0x41E5 JUMPI PUSH2 0x41E4 PUSH2 0x4156 JUMP JUMPDEST JUMPDEST PUSH1 0x20 DUP4 ADD SWAP2 POP DUP4 PUSH1 0x20 DUP3 MUL DUP4 ADD GT ISZERO PUSH2 0x4201 JUMPI PUSH2 0x4200 PUSH2 0x415A JUMP JUMPDEST JUMPDEST SWAP3 POP SWAP3 SWAP1 POP JUMP JUMPDEST PUSH0 PUSH0 PUSH0 PUSH0 PUSH1 0x40 DUP6 DUP8 SUB SLT ISZERO PUSH2 0x4220 JUMPI PUSH2 0x421F PUSH2 0x3EBC JUMP JUMPDEST JUMPDEST PUSH0 DUP6 ADD CALLDATALOAD PUSH8 0xFFFFFFFFFFFFFFFF DUP2 GT ISZERO PUSH2 0x423D JUMPI PUSH2 0x423C PUSH2 0x3EC0 JUMP JUMPDEST JUMPDEST PUSH2 0x4249 DUP8 DUP3 DUP9 ADD PUSH2 0x415E JUMP JUMPDEST SWAP5 POP SWAP5 POP POP PUSH1 0x20 DUP6 ADD CALLDATALOAD PUSH8 0xFFFFFFFFFFFFFFFF DUP2 GT ISZERO PUSH2 0x426C JUMPI PUSH2 0x426B PUSH2 0x3EC0 JUMP JUMPDEST JUMPDEST PUSH2 0x4278 DUP8 DUP3 DUP9 ADD PUSH2 0x41B3 JUMP JUMPDEST SWAP3 POP SWAP3 POP POP SWAP3 SWAP6 SWAP2 SWAP5 POP SWAP3 POP JUMP JUMPDEST PUSH0 PUSH0 PUSH0 PUSH1 0x60 DUP5 DUP7 SUB SLT ISZERO PUSH2 0x429D JUMPI PUSH2 0x429C PUSH2 0x3EBC JUMP JUMPDEST JUMPDEST PUSH0 PUSH2 0x42AA DUP7 DUP3 DUP8 ADD PUSH2 0x3F0A JUMP JUMPDEST SWAP4 POP POP PUSH1 0x20 PUSH2 0x42BB DUP7 DUP3 DUP8 ADD PUSH2 0x3F0A JUMP JUMPDEST SWAP3 POP POP PUSH1 0x40 PUSH2 0x42CC DUP7 DUP3 DUP8 ADD PUSH2 0x4012 JUMP JUMPDEST SWAP2 POP POP SWAP3 POP SWAP3 POP SWAP3 JUMP JUMPDEST PUSH2 0x42DF DUP2 PUSH2 0x40F4 JUMP JUMPDEST DUP3 MSTORE POP POP JUMP JUMPDEST PUSH0 PUSH1 0x20 DUP3 ADD SWAP1 POP PUSH2 0x42F8 PUSH0 DUP4 ADD DUP5 PUSH2 0x42D6 JUMP JUMPDEST SWAP3 SWAP2 POP POP JUMP JUMPDEST PUSH0 PUSH0 PUSH1 0x40 DUP4 DUP6 SUB SLT ISZERO PUSH2 0x4314 JUMPI PUSH2 0x4313 PUSH2 0x3EBC JUMP JUMPDEST JUMPDEST PUSH0 PUSH2 0x4321 DUP6 DUP3 DUP7 ADD PUSH2 0x4113 JUMP JUMPDEST SWAP3 POP POP PUSH1 0x20 PUSH2 0x4332 DUP6 DUP3 DUP7 ADD PUSH2 0x3F0A JUMP JUMPDEST SWAP2 POP POP SWAP3 POP SWAP3 SWAP1 POP JUMP JUMPDEST PUSH0 PUSH1 0xFF DUP3 AND SWAP1 POP SWAP2 SWAP1 POP JUMP JUMPDEST PUSH2 0x4351 DUP2 PUSH2 0x433C JUMP JUMPDEST DUP3 MSTORE POP POP JUMP JUMPDEST PUSH0 PUSH1 0x20 DUP3 ADD SWAP1 POP PUSH2 0x436A PUSH0 DUP4 ADD DUP5 PUSH2 0x4348 JUMP JUMPDEST SWAP3 SWAP2 POP POP JUMP JUMPDEST PUSH0 PUSH1 0x20 DUP3 DUP5 SUB SLT ISZERO PUSH2 0x4385 JUMPI PUSH2 0x4384 PUSH2 0x3EBC JUMP JUMPDEST JUMPDEST PUSH0 PUSH2 0x4392 DUP5 DUP3 DUP6 ADD PUSH2 0x4012 JUMP JUMPDEST SWAP2 POP POP SWAP3 SWAP2 POP POP JUMP JUMPDEST PUSH0 PUSH0 REVERT JUMPDEST PUSH32 0x4E487B7100000000000000000000000000000000000000000000000000000000 PUSH0 MSTORE PUSH1 0x41 PUSH1 0x4 MSTORE PUSH1 0x24 PUSH0 REVERT JUMPDEST PUSH2 0x43D5 DUP3 PUSH2 0x408C JUMP JUMPDEST DUP2 ADD DUP2 DUP2 LT PUSH8 0xFFFFFFFFFFFFFFFF DUP3 GT OR ISZERO PUSH2 0x43F4 JUMPI PUSH2 0x43F3 PUSH2 0x439F JUMP JUMPDEST JUMPDEST DUP1 PUSH1 0x40 MSTORE POP POP POP JUMP JUMPDEST PUSH0 PUSH2 0x4406 PUSH2 0x3EB3 JUMP JUMPDEST SWAP1 POP PUSH2 0x4412 DUP3 DUP3 PUSH2 0x43CC JUMP JUMPDEST SWAP2 SWAP1 POP JUMP JUMPDEST PUSH0 PUSH8 0xFFFFFFFFFFFFFFFF DUP3 GT ISZERO PUSH2 0x4431 JUMPI PUSH2 0x4430 PUSH2 0x439F JUMP JUMPDEST JUMPDEST PUSH2 0x443A DUP3 PUSH2 0x408C JUMP JUMPDEST SWAP1 POP PUSH1 0x20 DUP2 ADD SWAP1 POP SWAP2 SWAP1 POP JUMP JUMPDEST DUP3 DUP2 DUP4 CALLDATACOPY PUSH0 DUP4 DUP4 ADD MSTORE POP POP POP JUMP JUMPDEST PUSH0 PUSH2 0x4467 PUSH2 0x4462 DUP5 PUSH2 0x4417 JUMP JUMPDEST PUSH2 0x43FD JUMP JUMPDEST SWAP1 POP DUP3 DUP2 MSTORE PUSH1 0x20 DUP2 ADD DUP5 DUP5 DUP5 ADD GT ISZERO PUSH2 0x4483 JUMPI PUSH2 0x4482 PUSH2 0x439B JUMP JUMPDEST JUMPDEST PUSH2 0x448E DUP5 DUP3 DUP6 PUSH2 0x4447 JUMP JUMPDEST POP SWAP4 SWAP3 POP POP POP JUMP JUMPDEST PUSH0 DUP3 PUSH1 0x1F DUP4 ADD SLT PUSH2 0x44AA JUMPI PUSH2 0x44A9 PUSH2 0x4152 JUMP JUMPDEST JUMPDEST DUP2 CALLDATALOAD PUSH2 0x44BA DUP5 DUP3 PUSH1 0x20 DUP7 ADD PUSH2 0x4455 JUMP JUMPDEST SWAP2 POP POP SWAP3 SWAP2 POP POP JUMP JUMPDEST PUSH0 PUSH0 PUSH0 PUSH1 0x60 DUP5 DUP7 SUB SLT ISZERO PUSH2 0x44DA JUMPI PUSH2 0x44D9 PUSH2 0x3EBC JUMP JUMPDEST JUMPDEST PUSH0 PUSH2 0x44E7 DUP7 DUP3 DUP8 ADD PUSH2 0x3F0A JUMP JUMPDEST SWAP4 POP POP PUSH1 0x20 PUSH2 0x44F8 DUP7 DUP3 DUP8 ADD PUSH2 0x4012 JUMP JUMPDEST SWAP3 POP POP PUSH1 0x40 DUP5 ADD CALLDATALOAD PUSH8 0xFFFFFFFFFFFFFFFF DUP2 GT ISZERO PUSH2 0x4519 JUMPI PUSH2 0x4518 PUSH2 0x3EC0 JUMP JUMPDEST JUMPDEST PUSH2 0x4525 DUP7 DUP3 DUP8 ADD PUSH2 0x4496 JUMP JUMPDEST SWAP2 POP POP SWAP3 POP SWAP3 POP SWAP3 JUMP JUMPDEST PUSH0 PUSH0 PUSH1 0x40 DUP4 DUP6 SUB SLT ISZERO PUSH2 0x4545 JUMPI PUSH2 0x4544 PUSH2 0x3EBC JUMP JUMPDEST JUMPDEST PUSH0 PUSH2 0x4552 DUP6 DUP3 DUP7 ADD PUSH2 0x4012 JUMP JUMPDEST SWAP3 POP POP PUSH1 0x20 PUSH2 0x4563 DUP6 DUP3 DUP7 ADD PUSH2 0x4012 JUMP JUMPDEST SWAP2 POP POP SWAP3 POP SWAP3 SWAP1 POP JUMP JUMPDEST PUSH0 PUSH32 0xFF00000000000000000000000000000000000000000000000000000000000000 DUP3 AND SWAP1 POP SWAP2 SWAP1 POP JUMP JUMPDEST PUSH2 0x45A1 DUP2 PUSH2 0x456D JUMP JUMPDEST DUP3 MSTORE POP POP JUMP JUMPDEST PUSH2 0x45B0 DUP2 PUSH2 0x3EE3 JUMP JUMPDEST DUP3 MSTORE POP POP JUMP JUMPDEST PUSH0 DUP2 MLOAD SWAP1 POP SWAP2 SWAP1 POP JUMP JUMPDEST PUSH0 DUP3 DUP3 MSTORE PUSH1 0x20 DUP3 ADD SWAP1 POP SWAP3 SWAP2 POP POP JUMP JUMPDEST PUSH0 DUP2 SWAP1 POP PUSH1 0x20 DUP3 ADD SWAP1 POP SWAP2 SWAP1 POP JUMP JUMPDEST PUSH2 0x45E8 DUP2 PUSH2 0x3E82 JUMP JUMPDEST DUP3 MSTORE POP POP JUMP JUMPDEST PUSH0 PUSH2 0x45F9 DUP4 DUP4 PUSH2 0x45DF JUMP JUMPDEST PUSH1 0x20 DUP4 ADD SWAP1 POP SWAP3 SWAP2 POP POP JUMP JUMPDEST PUSH0 PUSH1 0x20 DUP3 ADD SWAP1 POP SWAP2 SWAP1 POP JUMP JUMPDEST PUSH0 PUSH2 0x461B DUP3 PUSH2 0x45B6 JUMP JUMPDEST PUSH2 0x4625 DUP2 DUP6 PUSH2 0x45C0 JUMP JUMPDEST SWAP4 POP PUSH2 0x4630 DUP4 PUSH2 0x45D0 JUMP JUMPDEST DUP1 PUSH0 JUMPDEST DUP4 DUP2 LT ISZERO PUSH2 0x4660 JUMPI DUP2 MLOAD PUSH2 0x4647 DUP9 DUP3 PUSH2 0x45EE JUMP JUMPDEST SWAP8 POP PUSH2 0x4652 DUP4 PUSH2 0x4605 JUMP JUMPDEST SWAP3 POP POP PUSH1 0x1 DUP2 ADD SWAP1 POP PUSH2 0x4633 JUMP JUMPDEST POP DUP6 SWAP4 POP POP POP POP SWAP3 SWAP2 POP POP JUMP JUMPDEST PUSH0 PUSH1 0xE0 DUP3 ADD SWAP1 POP PUSH2 0x4680 PUSH0 DUP4 ADD DUP11 PUSH2 0x4598 JUMP JUMPDEST DUP2 DUP2 SUB PUSH1 0x20 DUP4 ADD MSTORE PUSH2 0x4692 DUP2 DUP10 PUSH2 0x409C JUMP JUMPDEST SWAP1 POP DUP2 DUP2 SUB PUSH1 0x40 DUP4 ADD MSTORE PUSH2 0x46A6 DUP2 DUP9 PUSH2 0x409C JUMP JUMPDEST SWAP1 POP PUSH2 0x46B5 PUSH1 0x60 DUP4 ADD DUP8 PUSH2 0x3E8B JUMP JUMPDEST PUSH2 0x46C2 PUSH1 0x80 DUP4 ADD DUP7 PUSH2 0x45A7 JUMP JUMPDEST PUSH2 0x46CF PUSH1 0xA0 DUP4 ADD DUP6 PUSH2 0x42D6 JUMP JUMPDEST DUP2 DUP2 SUB PUSH1 0xC0 DUP4 ADD MSTORE PUSH2 0x46E1 DUP2 DUP5 PUSH2 0x4611 JUMP JUMPDEST SWAP1 POP SWAP9 SWAP8 POP POP POP POP POP POP POP POP JUMP JUMPDEST PUSH0 PUSH0 PUSH0 PUSH0 PUSH1 0x80 DUP6 DUP8 SUB SLT ISZERO PUSH2 0x4707 JUMPI PUSH2 0x4706 PUSH2 0x3EBC JUMP JUMPDEST JUMPDEST PUSH0 PUSH2 0x4714 DUP8 DUP3 DUP9 ADD PUSH2 0x3F0A JUMP JUMPDEST SWAP5 POP POP PUSH1 0x20 PUSH2 0x4725 DUP8 DUP3 DUP9 ADD PUSH2 0x3F0A JUMP JUMPDEST SWAP4 POP POP PUSH1 0x40 PUSH2 0x4736 DUP8 DUP3 DUP9 ADD PUSH2 0x4012 JUMP JUMPDEST SWAP3 POP POP PUSH1 0x60 DUP6 ADD CALLDATALOAD PUSH8 0xFFFFFFFFFFFFFFFF DUP2 GT ISZERO PUSH2 0x4757 JUMPI PUSH2 0x4756 PUSH2 0x3EC0 JUMP JUMPDEST JUMPDEST PUSH2 0x4763 DUP8 DUP3 DUP9 ADD PUSH2 0x4496 JUMP JUMPDEST SWAP2 POP POP SWAP3 SWAP6 SWAP2 SWAP5 POP SWAP3 POP JUMP JUMPDEST PUSH2 0x4778 DUP2 PUSH2 0x433C JUMP JUMPDEST DUP2 EQ PUSH2 0x4782 JUMPI PUSH0 PUSH0 REVERT JUMPDEST POP JUMP JUMPDEST PUSH0 DUP2 CALLDATALOAD SWAP1 POP PUSH2 0x4793 DUP2 PUSH2 0x476F JUMP JUMPDEST SWAP3 SWAP2 POP POP JUMP JUMPDEST PUSH0 PUSH0 PUSH0 PUSH0 PUSH0 PUSH0 PUSH0 PUSH1 0xE0 DUP9 DUP11 SUB SLT ISZERO PUSH2 0x47B4 JUMPI PUSH2 0x47B3 PUSH2 0x3EBC JUMP JUMPDEST JUMPDEST PUSH0 PUSH2 0x47C1 DUP11 DUP3 DUP12 ADD PUSH2 0x3F0A JUMP JUMPDEST SWAP8 POP POP PUSH1 0x20 PUSH2 0x47D2 DUP11 DUP3 DUP12 ADD PUSH2 0x3F0A JUMP JUMPDEST SWAP7 POP POP PUSH1 0x40 PUSH2 0x47E3 DUP11 DUP3 DUP12 ADD PUSH2 0x4012 JUMP JUMPDEST SWAP6 POP POP PUSH1 0x60 PUSH2 0x47F4 DUP11 DUP3 DUP12 ADD PUSH2 0x4012 JUMP JUMPDEST SWAP5 POP POP PUSH1 0x80 PUSH2 0x4805 DUP11 DUP3 DUP12 ADD PUSH2 0x4785 JUMP JUMPDEST SWAP4 POP POP PUSH1 0xA0 PUSH2 0x4816 DUP11 DUP3 DUP12 ADD PUSH2 0x4113 JUMP JUMPDEST SWAP3 POP POP PUSH1 0xC0 PUSH2 0x4827 DUP11 DUP3 DUP12 ADD PUSH2 0x4113 JUMP JUMPDEST SWAP2 POP POP SWAP3 SWAP6 SWAP9 SWAP2 SWAP5 SWAP8 POP SWAP3 SWAP6 POP JUMP JUMPDEST PUSH0 PUSH0 PUSH1 0x40 DUP4 DUP6 SUB SLT ISZERO PUSH2 0x484C JUMPI PUSH2 0x484B PUSH2 0x3EBC JUMP JUMPDEST JUMPDEST PUSH0 PUSH2 0x4859 DUP6 DUP3 DUP7 ADD PUSH2 0x3F0A JUMP JUMPDEST SWAP3 POP POP PUSH1 0x20 PUSH2 0x486A DUP6 DUP3 DUP7 ADD PUSH2 0x3F0A JUMP JUMPDEST SWAP2 POP POP SWAP3 POP SWAP3 SWAP1 POP JUMP JUMPDEST PUSH32 0x4E487B7100000000000000000000000000000000000000000000000000000000 PUSH0 MSTORE PUSH1 0x22 PUSH1 0x4 MSTORE PUSH1 0x24 PUSH0 REVERT JUMPDEST PUSH0 PUSH1 0x2 DUP3 DIV SWAP1 POP PUSH1 0x1 DUP3 AND DUP1 PUSH2 0x48B8 JUMPI PUSH1 0x7F DUP3 AND SWAP2 POP JUMPDEST PUSH1 0x20 DUP3 LT DUP2 SUB PUSH2 0x48CB JUMPI PUSH2 0x48CA PUSH2 0x4874 JUMP JUMPDEST JUMPDEST POP SWAP2 SWAP1 POP JUMP JUMPDEST PUSH32 0x4E487B7100000000000000000000000000000000000000000000000000000000 PUSH0 MSTORE PUSH1 0x32 PUSH1 0x4 MSTORE PUSH1 0x24 PUSH0 REVERT JUMPDEST PUSH32 0x4E487B7100000000000000000000000000000000000000000000000000000000 PUSH0 MSTORE PUSH1 0x11 PUSH1 0x4 MSTORE PUSH1 0x24 PUSH0 REVERT JUMPDEST PUSH0 PUSH2 0x4935 DUP3 PUSH2 0x3E82 JUMP JUMPDEST SWAP2 POP PUSH2 0x4940 DUP4 PUSH2 0x3E82 JUMP JUMPDEST SWAP3 POP DUP3 DUP3 ADD SWAP1 POP DUP1 DUP3 GT ISZERO PUSH2 0x4958 JUMPI PUSH2 0x4957 PUSH2 0x48FE JUMP JUMPDEST JUMPDEST SWAP3 SWAP2 POP POP JUMP JUMPDEST PUSH0 PUSH1 0x40 DUP3 ADD SWAP1 POP PUSH2 0x4971 PUSH0 DUP4 ADD DUP6 PUSH2 0x3E8B JUMP JUMPDEST PUSH2 0x497E PUSH1 0x20 DUP4 ADD DUP5 PUSH2 0x3E8B JUMP JUMPDEST SWAP4 SWAP3 POP POP POP JUMP JUMPDEST PUSH0 PUSH1 0x40 DUP3 ADD SWAP1 POP PUSH2 0x4998 PUSH0 DUP4 ADD DUP6 PUSH2 0x45A7 JUMP JUMPDEST PUSH2 0x49A5 PUSH1 0x20 DUP4 ADD DUP5 PUSH2 0x3E8B JUMP JUMPDEST SWAP4 SWAP3 POP POP POP JUMP JUMPDEST PUSH0 PUSH2 0x49B6 DUP3 PUSH2 0x3E82 JUMP JUMPDEST SWAP2 POP PUSH2 0x49C1 DUP4 PUSH2 0x3E82 JUMP JUMPDEST SWAP3 POP DUP3 DUP3 SUB SWAP1 POP DUP2 DUP2 GT ISZERO PUSH2 0x49D9 JUMPI PUSH2 0x49D8 PUSH2 0x48FE JUMP JUMPDEST JUMPDEST SWAP3 SWAP2 POP POP JUMP JUMPDEST PUSH0 PUSH1 0x60 DUP3 ADD SWAP1 POP PUSH2 0x49F2 PUSH0 DUP4 ADD DUP7 PUSH2 0x45A7 JUMP JUMPDEST PUSH2 0x49FF PUSH1 0x20 DUP4 ADD DUP6 PUSH2 0x45A7 JUMP JUMPDEST PUSH2 0x4A0C PUSH1 0x40 DUP4 ADD DUP5 PUSH2 0x3E8B JUMP JUMPDEST SWAP5 SWAP4 POP POP POP POP JUMP JUMPDEST PUSH0 PUSH1 0xC0 DUP3 ADD SWAP1 POP PUSH2 0x4A27 PUSH0 DUP4 ADD DUP10 PUSH2 0x42D6 JUMP JUMPDEST PUSH2 0x4A34 PUSH1 0x20 DUP4 ADD DUP9 PUSH2 0x45A7 JUMP JUMPDEST PUSH2 0x4A41 PUSH1 0x40 DUP4 ADD DUP8 PUSH2 0x45A7 JUMP JUMPDEST PUSH2 0x4A4E PUSH1 0x60 DUP4 ADD DUP7 PUSH2 0x3E8B JUMP JUMPDEST PUSH2 0x4A5B PUSH1 0x80 DUP4 ADD DUP6 PUSH2 0x3E8B JUMP JUMPDEST PUSH2 0x4A68 PUSH1 0xA0 DUP4 ADD DUP5 PUSH2 0x3E8B JUMP JUMPDEST SWAP8 SWAP7 POP POP POP POP POP POP POP JUMP JUMPDEST PUSH0 PUSH1 0x40 DUP3 ADD SWAP1 POP PUSH2 0x4A86 PUSH0 DUP4 ADD DUP6 PUSH2 0x45A7 JUMP JUMPDEST PUSH2 0x4A93 PUSH1 0x20 DUP4 ADD DUP5 PUSH2 0x45A7 JUMP JUMPDEST SWAP4 SWAP3 POP POP POP JUMP JUMPDEST PUSH0 PUSH1 0x20 DUP3 ADD SWAP1 POP PUSH2 0x4AAD PUSH0 DUP4 ADD DUP5 PUSH2 0x45A7 JUMP JUMPDEST SWAP3 SWAP2 POP POP JUMP JUMPDEST PUSH32 0x5265656E7472616E637947756172643A207265656E7472616E742063616C6C00 PUSH0 DUP3 ADD MSTORE POP JUMP JUMPDEST PUSH0 PUSH2 0x4AE7 PUSH1 0x1F DUP4 PUSH2 0x406E JUMP JUMPDEST SWAP2 POP PUSH2 0x4AF2 DUP3 PUSH2 0x4AB3 JUMP JUMPDEST PUSH1 0x20 DUP3 ADD SWAP1 POP SWAP2 SWAP1 POP JUMP JUMPDEST PUSH0 PUSH1 0x20 DUP3 ADD SWAP1 POP DUP2 DUP2 SUB PUSH0 DUP4 ADD MSTORE PUSH2 0x4B14 DUP2 PUSH2 0x4ADB JUMP JUMPDEST SWAP1 POP SWAP2 SWAP1 POP JUMP JUMPDEST PUSH0 PUSH1 0x60 DUP3 ADD SWAP1 POP PUSH2 0x4B2E PUSH0 DUP4 ADD DUP7 PUSH2 0x45A7 JUMP JUMPDEST PUSH2 0x4B3B PUSH1 0x20 DUP4 ADD DUP6 PUSH2 0x3E8B JUMP JUMPDEST PUSH2 0x4B48 PUSH1 0x40 DUP4 ADD DUP5 PUSH2 0x3E8B JUMP JUMPDEST SWAP5 SWAP4 POP POP POP POP JUMP JUMPDEST PUSH0 DUP2 MLOAD SWAP1 POP SWAP2 SWAP1 POP JUMP JUMPDEST PUSH0 DUP3 DUP3 MSTORE PUSH1 0x20 DUP3 ADD SWAP1 POP SWAP3 SWAP2 POP POP JUMP JUMPDEST PUSH0 PUSH2 0x4B74 DUP3 PUSH2 0x4B50 JUMP JUMPDEST PUSH2 0x4B7E DUP2 DUP6 PUSH2 0x4B5A JUMP JUMPDEST SWAP4 POP PUSH2 0x4B8E DUP2 DUP6 PUSH1 0x20 DUP7 ADD PUSH2 0x407E JUMP JUMPDEST PUSH2 0x4B97 DUP2 PUSH2 0x408C JUMP JUMPDEST DUP5 ADD SWAP2 POP POP SWAP3 SWAP2 POP POP JUMP JUMPDEST PUSH0 PUSH1 0x80 DUP3 ADD SWAP1 POP PUSH2 0x4BB5 PUSH0 DUP4 ADD DUP8 PUSH2 0x45A7 JUMP JUMPDEST PUSH2 0x4BC2 PUSH1 0x20 DUP4 ADD DUP7 PUSH2 0x45A7 JUMP JUMPDEST PUSH2 0x4BCF PUSH1 0x40 DUP4 ADD DUP6 PUSH2 0x3E8B JUMP JUMPDEST DUP2 DUP2 SUB PUSH1 0x60 DUP4 ADD MSTORE PUSH2 0x4BE1 DUP2 DUP5 PUSH2 0x4B6A JUMP JUMPDEST SWAP1 POP SWAP6 SWAP5 POP POP POP POP POP JUMP JUMPDEST PUSH0 DUP2 MLOAD SWAP1 POP PUSH2 0x4BFA DUP2 PUSH2 0x3F74 JUMP JUMPDEST SWAP3 SWAP2 POP POP JUMP JUMPDEST PUSH0 PUSH1 0x20 DUP3 DUP5 SUB SLT ISZERO PUSH2 0x4C15 JUMPI PUSH2 0x4C14 PUSH2 0x3EBC JUMP JUMPDEST JUMPDEST PUSH0 PUSH2 0x4C22 DUP5 DUP3 DUP6 ADD PUSH2 0x4BEC JUMP JUMPDEST SWAP2 POP POP SWAP3 SWAP2 POP POP JUMP JUMPDEST PUSH0 PUSH1 0x60 DUP3 ADD SWAP1 POP PUSH2 0x4C3E PUSH0 DUP4 ADD DUP7 PUSH2 0x45A7 JUMP JUMPDEST PUSH2 0x4C4B PUSH1 0x20 DUP4 ADD DUP6 PUSH2 0x3E8B JUMP JUMPDEST DUP2 DUP2 SUB PUSH1 0x40 DUP4 ADD MSTORE PUSH2 0x4C5D DUP2 DUP5 PUSH2 0x4B6A JUMP JUMPDEST SWAP1 POP SWAP5 SWAP4 POP POP POP POP JUMP JUMPDEST PUSH0 PUSH1 0x40 DUP3 ADD SWAP1 POP PUSH2 0x4C7A PUSH0 DUP4 ADD DUP6 PUSH2 0x45A7 JUMP JUMPDEST PUSH2 0x4C87 PUSH1 0x20 DUP4 ADD DUP5 PUSH2 0x42D6 JUMP JUMPDEST SWAP4 SWAP3 POP POP POP JUMP JUMPDEST PUSH0 PUSH1 0xA0 DUP3 ADD SWAP1 POP PUSH2 0x4CA1 PUSH0 DUP4 ADD DUP9 PUSH2 0x42D6 JUMP JUMPDEST PUSH2 0x4CAE PUSH1 0x20 DUP4 ADD DUP8 PUSH2 0x42D6 JUMP JUMPDEST PUSH2 0x4CBB PUSH1 0x40 DUP4 ADD DUP7 PUSH2 0x42D6 JUMP JUMPDEST PUSH2 0x4CC8 PUSH1 0x60 DUP4 ADD DUP6 PUSH2 0x3E8B JUMP JUMPDEST PUSH2 0x4CD5 PUSH1 0x80 DUP4 ADD DUP5 PUSH2 0x45A7 JUMP JUMPDEST SWAP7 SWAP6 POP POP POP POP POP POP JUMP JUMPDEST PUSH0 PUSH1 0x80 DUP3 ADD SWAP1 POP PUSH2 0x4CF2 PUSH0 DUP4 ADD DUP8 PUSH2 0x42D6 JUMP JUMPDEST PUSH2 0x4CFF PUSH1 0x20 DUP4 ADD DUP7 PUSH2 0x4348 JUMP JUMPDEST PUSH2 0x4D0C PUSH1 0x40 DUP4 ADD DUP6 PUSH2 0x42D6 JUMP JUMPDEST PUSH2 0x4D19 PUSH1 0x60 DUP4 ADD DUP5 PUSH2 0x42D6 JUMP JUMPDEST SWAP6 SWAP5 POP POP POP POP POP JUMP JUMPDEST PUSH32 0x4E487B7100000000000000000000000000000000000000000000000000000000 PUSH0 MSTORE PUSH1 0x21 PUSH1 0x4 MSTORE PUSH1 0x24 PUSH0 REVERT INVALID LOG2 PUSH5 0x6970667358 0x22 SLT KECCAK256 0xC1 CALLDATALOAD CALLDATACOPY JUMPI 0xB0 0xAA 0xB8 PUSH10 0x9DBC13FCB99E3E880509 0xDC DUP8 0xCE 0xD3 KECCAK256 RETURNDATACOPY 0xD5 TLOAD PUSH17 0x63EA27A18764736F6C634300081E003300 "
		},
		"gasEstimates": {
			"creation": {
				"codeDepositCost": "3969000",
				"executionCost": "infinite",
				"totalCost": "infinite"
			},
			"external": {
				"DECIMAL_FACTOR()": "393",
				"DEFAULT_ADMIN_ROLE()": "419",
				"DOMAIN_SEPARATOR()": "infinite",
				"INITIAL_MINING_REWARD()": "436",
				"MINING_REWARD_REDUCTION_PERCENT()": "415",
				"MINING_START_YEAR()": "435",
				"VERSION()": "infinite",
				"adminBurn(address,uint256)": "infinite",
				"adminMint(address,uint256)": "infinite",
				"allowance(address,address)": "infinite",
				"approve(address,uint256)": "infinite",
				"approveAndCall(address,uint256)": "infinite",
				"approveAndCall(address,uint256,bytes)": "infinite",
				"balanceOf(address)": "2896",
				"burn(uint256)": "infinite",
				"burnFrom(address,uint256)": "infinite",
				"decimals()": "472",
				"eip712Domain()": "infinite",
				"freeze(address)": "infinite",
				"getMiningReward(uint256)": "infinite",
				"getRoleAdmin(bytes32)": "infinite",
				"grantRole(bytes32,address)": "infinite",
				"hasRole(bytes32,address)": "3254",
				"initialSupply()": "infinite",
				"lastMinedAt()": "2471",
				"lastMiningReward()": "2472",
				"lastRecordedAt()": "2494",
				"lastWeb3MakerAIData()": "2513",
				"maxSupply()": "infinite",
				"mine(uint256)": "infinite",
				"multiTransfer(address[],uint256[])": "infinite",
				"name()": "infinite",
				"nonces(address)": "2983",
				"pause()": "infinite",
				"paused()": "2629",
				"permit(address,address,uint256,uint256,uint8,bytes32,bytes32)": "infinite",
				"renounceRole(bytes32,address)": "infinite",
				"revokeRole(bytes32,address)": "infinite",
				"setMiningReward(uint256,uint256)": "infinite",
				"setPoolAccount(address)": "infinite",
				"storeWeb3MakerAIData(bytes32)": "infinite",
				"supportsInterface(bytes4)": "938",
				"symbol()": "infinite",
				"totalMiningSupply()": "2537",
				"totalSupply()": "2545",
				"transfer(address,uint256)": "infinite",
				"transferAndCall(address,uint256)": "infinite",
				"transferAndCall(address,uint256,bytes)": "infinite",
				"transferFrom(address,address,uint256)": "infinite",
				"transferFromAndCall(address,address,uint256)": "infinite",
				"transferFromAndCall(address,address,uint256,bytes)": "infinite",
				"unfreeze(address)": "infinite",
				"unpause()": "infinite"
			},
			"internal": {
				"_update(address,address,uint256)": "infinite"
			}
		},
		"methodIdentifiers": {
			"DECIMAL_FACTOR()": "33fdbbe5",
			"DEFAULT_ADMIN_ROLE()": "a217fddf",
			"DOMAIN_SEPARATOR()": "3644e515",
			"INITIAL_MINING_REWARD()": "3bbb5ee8",
			"MINING_REWARD_REDUCTION_PERCENT()": "25c2f230",
			"MINING_START_YEAR()": "f92740a0",
			"VERSION()": "ffa1ad74",
			"adminBurn(address,uint256)": "06dd0419",
			"adminMint(address,uint256)": "e58306f9",
			"allowance(address,address)": "dd62ed3e",
			"approve(address,uint256)": "095ea7b3",
			"approveAndCall(address,uint256)": "3177029f",
			"approveAndCall(address,uint256,bytes)": "cae9ca51",
			"balanceOf(address)": "70a08231",
			"burn(uint256)": "42966c68",
			"burnFrom(address,uint256)": "79cc6790",
			"decimals()": "313ce567",
			"eip712Domain()": "84b0196e",
			"freeze(address)": "8d1fdf2f",
			"getMiningReward(uint256)": "3a6eb318",
			"getRoleAdmin(bytes32)": "248a9ca3",
			"grantRole(bytes32,address)": "2f2ff15d",
			"hasRole(bytes32,address)": "91d14854",
			"initialSupply()": "378dc3dc",
			"lastMinedAt()": "2487c1c0",
			"lastMiningReward()": "01028755",
			"lastRecordedAt()": "09b7da7b",
			"lastWeb3MakerAIData()": "f476f399",
			"maxSupply()": "d5abeb01",
			"mine(uint256)": "4d474898",
			"multiTransfer(address[],uint256[])": "1e89d545",
			"name()": "06fdde03",
			"nonces(address)": "7ecebe00",
			"pause()": "8456cb59",
			"paused()": "5c975abb",
			"permit(address,address,uint256,uint256,uint8,bytes32,bytes32)": "d505accf",
			"renounceRole(bytes32,address)": "36568abe",
			"revokeRole(bytes32,address)": "d547741f",
			"setMiningReward(uint256,uint256)": "5a62d5ca",
			"setPoolAccount(address)": "01cf1e9a",
			"storeWeb3MakerAIData(bytes32)": "1cc8c0ee",
			"supportsInterface(bytes4)": "01ffc9a7",
			"symbol()": "95d89b41",
			"totalMiningSupply()": "21395c02",
			"totalSupply()": "18160ddd",
			"transfer(address,uint256)": "a9059cbb",
			"transferAndCall(address,uint256)": "1296ee62",
			"transferAndCall(address,uint256,bytes)": "4000aea0",
			"transferFrom(address,address,uint256)": "23b872dd",
			"transferFromAndCall(address,address,uint256)": "d8fbe994",
			"transferFromAndCall(address,address,uint256,bytes)": "c1d34b89",
			"unfreeze(address)": "45c8b1a6",
			"unpause()": "3f4ba83a"
		}
	},
	"abi": [
		{
			"inputs": [
				{
					"internalType": "address",
					"name": "newAdminAccount",
					"type": "address"
				}
			],
			"stateMutability": "nonpayable",
			"type": "constructor"
		},
		{
			"inputs": [],
			"name": "AccessControlBadConfirmation",
			"type": "error"
		},
		{
			"inputs": [
				{
					"internalType": "address",
					"name": "account",
					"type": "address"
				},
				{
					"internalType": "bytes32",
					"name": "neededRole",
					"type": "bytes32"
				}
			],
			"name": "AccessControlUnauthorizedAccount",
			"type": "error"
		},
		{
			"inputs": [],
			"name": "ECDSAInvalidSignature",
			"type": "error"
		},
		{
			"inputs": [
				{
					"internalType": "uint256",
					"name": "length",
					"type": "uint256"
				}
			],
			"name": "ECDSAInvalidSignatureLength",
			"type": "error"
		},
		{
			"inputs": [
				{
					"internalType": "bytes32",
					"name": "s",
					"type": "bytes32"
				}
			],
			"name": "ECDSAInvalidSignatureS",
			"type": "error"
		},
		{
			"inputs": [
				{
					"internalType": "address",
					"name": "spender",
					"type": "address"
				},
				{
					"internalType": "uint256",
					"name": "value",
					"type": "uint256"
				}
			],
			"name": "ERC1363ApproveFailed",
			"type": "error"
		},
		{
			"inputs": [
				{
					"internalType": "address",
					"name": "receiver",
					"type": "address"
				}
			],
			"name": "ERC1363InvalidReceiver",
			"type": "error"
		},
		{
			"inputs": [
				{
					"internalType": "address",
					"name": "spender",
					"type": "address"
				}
			],
			"name": "ERC1363InvalidSpender",
			"type": "error"
		},
		{
			"inputs": [
				{
					"internalType": "address",
					"name": "receiver",
					"type": "address"
				},
				{
					"internalType": "uint256",
					"name": "value",
					"type": "uint256"
				}
			],
			"name": "ERC1363TransferFailed",
			"type": "error"
		},
		{
			"inputs": [
				{
					"internalType": "address",
					"name": "sender",
					"type": "address"
				},
				{
					"internalType": "address",
					"name": "receiver",
					"type": "address"
				},
				{
					"internalType": "uint256",
					"name": "value",
					"type": "uint256"
				}
			],
			"name": "ERC1363TransferFromFailed",
			"type": "error"
		},
		{
			"inputs": [
				{
					"internalType": "address",
					"name": "spender",
					"type": "address"
				},
				{
					"internalType": "uint256",
					"name": "allowance",
					"type": "uint256"
				},
				{
					"internalType": "uint256",
					"name": "needed",
					"type": "uint256"
				}
			],
			"name": "ERC20InsufficientAllowance",
			"type": "error"
		},
		{
			"inputs": [
				{
					"internalType": "address",
					"name": "sender",
					"type": "address"
				},
				{
					"internalType": "uint256",
					"name": "balance",
					"type": "uint256"
				},
				{
					"internalType": "uint256",
					"name": "needed",
					"type": "uint256"
				}
			],
			"name": "ERC20InsufficientBalance",
			"type": "error"
		},
		{
			"inputs": [
				{
					"internalType": "address",
					"name": "approver",
					"type": "address"
				}
			],
			"name": "ERC20InvalidApprover",
			"type": "error"
		},
		{
			"inputs": [
				{
					"internalType": "address",
					"name": "receiver",
					"type": "address"
				}
			],
			"name": "ERC20InvalidReceiver",
			"type": "error"
		},
		{
			"inputs": [
				{
					"internalType": "address",
					"name": "sender",
					"type": "address"
				}
			],
			"name": "ERC20InvalidSender",
			"type": "error"
		},
		{
			"inputs": [
				{
					"internalType": "address",
					"name": "spender",
					"type": "address"
				}
			],
			"name": "ERC20InvalidSpender",
			"type": "error"
		},
		{
			"inputs": [
				{
					"internalType": "uint256",
					"name": "deadline",
					"type": "uint256"
				}
			],
			"name": "ERC2612ExpiredSignature",
			"type": "error"
		},
		{
			"inputs": [
				{
					"internalType": "address",
					"name": "signer",
					"type": "address"
				},
				{
					"internalType": "address",
					"name": "owner",
					"type": "address"
				}
			],
			"name": "ERC2612InvalidSigner",
			"type": "error"
		},
		{
			"inputs": [],
			"name": "EnforcedPause",
			"type": "error"
		},
		{
			"inputs": [],
			"name": "ExpectedPause",
			"type": "error"
		},
		{
			"inputs": [
				{
					"internalType": "address",
					"name": "account",
					"type": "address"
				},
				{
					"internalType": "uint256",
					"name": "currentNonce",
					"type": "uint256"
				}
			],
			"name": "InvalidAccountNonce",
			"type": "error"
		},
		{
			"inputs": [],
			"name": "InvalidShortString",
			"type": "error"
		},
		{
			"inputs": [
				{
					"internalType": "string",
					"name": "str",
					"type": "string"
				}
			],
			"name": "StringTooLong",
			"type": "error"
		},
		{
			"anonymous": false,
			"inputs": [
				{
					"indexed": true,
					"internalType": "address",
					"name": "account",
					"type": "address"
				},
				{
					"indexed": false,
					"internalType": "bool",
					"name": "isFrozen",
					"type": "bool"
				}
			],
			"name": "AccountFrozen",
			"type": "event"
		},
		{
			"anonymous": false,
			"inputs": [
				{
					"indexed": true,
					"internalType": "address",
					"name": "owner",
					"type": "address"
				},
				{
					"indexed": true,
					"internalType": "address",
					"name": "spender",
					"type": "address"
				},
				{
					"indexed": false,
					"internalType": "uint256",
					"name": "value",
					"type": "uint256"
				}
			],
			"name": "Approval",
			"type": "event"
		},
		{
			"anonymous": false,
			"inputs": [],
			"name": "EIP712DomainChanged",
			"type": "event"
		},
		{
			"anonymous": false,
			"inputs": [
				{
					"indexed": true,
					"internalType": "address",
					"name": "miner",
					"type": "address"
				},
				{
					"indexed": true,
					"internalType": "address",
					"name": "pool",
					"type": "address"
				},
				{
					"indexed": false,
					"internalType": "uint256",
					"name": "amount",
					"type": "uint256"
				}
			],
			"name": "MineEvent",
			"type": "event"
		},
		{
			"anonymous": false,
			"inputs": [
				{
					"indexed": true,
					"internalType": "address",
					"name": "sender",
					"type": "address"
				},
				{
					"indexed": false,
					"internalType": "uint256",
					"name": "totalCount",
					"type": "uint256"
				},
				{
					"indexed": false,
					"internalType": "uint256",
					"name": "totalAmount",
					"type": "uint256"
				}
			],
			"name": "MultiTransferEvent",
			"type": "event"
		},
		{
			"anonymous": false,
			"inputs": [
				{
					"indexed": false,
					"internalType": "address",
					"name": "account",
					"type": "address"
				}
			],
			"name": "Paused",
			"type": "event"
		},
		{
			"anonymous": false,
			"inputs": [
				{
					"indexed": true,
					"internalType": "address",
					"name": "oldAccount",
					"type": "address"
				},
				{
					"indexed": true,
					"internalType": "address",
					"name": "newAccount",
					"type": "address"
				}
			],
			"name": "PoolAccountChanged",
			"type": "event"
		},
		{
			"anonymous": false,
			"inputs": [
				{
					"indexed": true,
					"internalType": "bytes32",
					"name": "role",
					"type": "bytes32"
				},
				{
					"indexed": true,
					"internalType": "bytes32",
					"name": "previousAdminRole",
					"type": "bytes32"
				},
				{
					"indexed": true,
					"internalType": "bytes32",
					"name": "newAdminRole",
					"type": "bytes32"
				}
			],
			"name": "RoleAdminChanged",
			"type": "event"
		},
		{
			"anonymous": false,
			"inputs": [
				{
					"indexed": true,
					"internalType": "bytes32",
					"name": "role",
					"type": "bytes32"
				},
				{
					"indexed": true,
					"internalType": "address",
					"name": "account",
					"type": "address"
				},
				{
					"indexed": true,
					"internalType": "address",
					"name": "sender",
					"type": "address"
				}
			],
			"name": "RoleGranted",
			"type": "event"
		},
		{
			"anonymous": false,
			"inputs": [
				{
					"indexed": true,
					"internalType": "bytes32",
					"name": "role",
					"type": "bytes32"
				},
				{
					"indexed": true,
					"internalType": "address",
					"name": "account",
					"type": "address"
				},
				{
					"indexed": true,
					"internalType": "address",
					"name": "sender",
					"type": "address"
				}
			],
			"name": "RoleRevoked",
			"type": "event"
		},
		{
			"anonymous": false,
			"inputs": [
				{
					"indexed": true,
					"internalType": "address",
					"name": "from",
					"type": "address"
				},
				{
					"indexed": true,
					"internalType": "address",
					"name": "to",
					"type": "address"
				},
				{
					"indexed": false,
					"internalType": "uint256",
					"name": "value",
					"type": "uint256"
				}
			],
			"name": "Transfer",
			"type": "event"
		},
		{
			"anonymous": false,
			"inputs": [
				{
					"indexed": false,
					"internalType": "address",
					"name": "account",
					"type": "address"
				}
			],
			"name": "Unpaused",
			"type": "event"
		},
		{
			"anonymous": false,
			"inputs": [
				{
					"indexed": true,
					"internalType": "address",
					"name": "sender",
					"type": "address"
				},
				{
					"indexed": true,
					"internalType": "bytes32",
					"name": "web3MakerAIData",
					"type": "bytes32"
				}
			],
			"name": "Web3MakerAIDataStored",
			"type": "event"
		},
		{
			"inputs": [],
			"name": "DECIMAL_FACTOR",
			"outputs": [
				{
					"internalType": "uint256",
					"name": "",
					"type": "uint256"
				}
			],
			"stateMutability": "view",
			"type": "function"
		},
		{
			"inputs": [],
			"name": "DEFAULT_ADMIN_ROLE",
			"outputs": [
				{
					"internalType": "bytes32",
					"name": "",
					"type": "bytes32"
				}
			],
			"stateMutability": "view",
			"type": "function"
		},
		{
			"inputs": [],
			"name": "DOMAIN_SEPARATOR",
			"outputs": [
				{
					"internalType": "bytes32",
					"name": "",
					"type": "bytes32"
				}
			],
			"stateMutability": "view",
			"type": "function"
		},
		{
			"inputs": [],
			"name": "INITIAL_MINING_REWARD",
			"outputs": [
				{
					"internalType": "uint256",
					"name": "",
					"type": "uint256"
				}
			],
			"stateMutability": "view",
			"type": "function"
		},
		{
			"inputs": [],
			"name": "MINING_REWARD_REDUCTION_PERCENT",
			"outputs": [
				{
					"internalType": "uint256",
					"name": "",
					"type": "uint256"
				}
			],
			"stateMutability": "view",
			"type": "function"
		},
		{
			"inputs": [],
			"name": "MINING_START_YEAR",
			"outputs": [
				{
					"internalType": "uint256",
					"name": "",
					"type": "uint256"
				}
			],
			"stateMutability": "view",
			"type": "function"
		},
		{
			"inputs": [],
			"name": "VERSION",
			"outputs": [
				{
					"internalType": "string",
					"name": "",
					"type": "string"
				}
			],
			"stateMutability": "view",
			"type": "function"
		},
		{
			"inputs": [
				{
					"internalType": "address",
					"name": "account",
					"type": "address"
				},
				{
					"internalType": "uint256",
					"name": "amount",
					"type": "uint256"
				}
			],
			"name": "adminBurn",
			"outputs": [],
			"stateMutability": "nonpayable",
			"type": "function"
		},
		{
			"inputs": [
				{
					"internalType": "address",
					"name": "account",
					"type": "address"
				},
				{
					"internalType": "uint256",
					"name": "amount",
					"type": "uint256"
				}
			],
			"name": "adminMint",
			"outputs": [],
			"stateMutability": "nonpayable",
			"type": "function"
		},
		{
			"inputs": [
				{
					"internalType": "address",
					"name": "owner",
					"type": "address"
				},
				{
					"internalType": "address",
					"name": "spender",
					"type": "address"
				}
			],
			"name": "allowance",
			"outputs": [
				{
					"internalType": "uint256",
					"name": "",
					"type": "uint256"
				}
			],
			"stateMutability": "view",
			"type": "function"
		},
		{
			"inputs": [
				{
					"internalType": "address",
					"name": "spender",
					"type": "address"
				},
				{
					"internalType": "uint256",
					"name": "value",
					"type": "uint256"
				}
			],
			"name": "approve",
			"outputs": [
				{
					"internalType": "bool",
					"name": "",
					"type": "bool"
				}
			],
			"stateMutability": "nonpayable",
			"type": "function"
		},
		{
			"inputs": [
				{
					"internalType": "address",
					"name": "spender",
					"type": "address"
				},
				{
					"internalType": "uint256",
					"name": "value",
					"type": "uint256"
				}
			],
			"name": "approveAndCall",
			"outputs": [
				{
					"internalType": "bool",
					"name": "",
					"type": "bool"
				}
			],
			"stateMutability": "nonpayable",
			"type": "function"
		},
		{
			"inputs": [
				{
					"internalType": "address",
					"name": "spender",
					"type": "address"
				},
				{
					"internalType": "uint256",
					"name": "value",
					"type": "uint256"
				},
				{
					"internalType": "bytes",
					"name": "data",
					"type": "bytes"
				}
			],
			"name": "approveAndCall",
			"outputs": [
				{
					"internalType": "bool",
					"name": "",
					"type": "bool"
				}
			],
			"stateMutability": "nonpayable",
			"type": "function"
		},
		{
			"inputs": [
				{
					"internalType": "address",
					"name": "account",
					"type": "address"
				}
			],
			"name": "balanceOf",
			"outputs": [
				{
					"internalType": "uint256",
					"name": "",
					"type": "uint256"
				}
			],
			"stateMutability": "view",
			"type": "function"
		},
		{
			"inputs": [
				{
					"internalType": "uint256",
					"name": "value",
					"type": "uint256"
				}
			],
			"name": "burn",
			"outputs": [],
			"stateMutability": "nonpayable",
			"type": "function"
		},
		{
			"inputs": [
				{
					"internalType": "address",
					"name": "account",
					"type": "address"
				},
				{
					"internalType": "uint256",
					"name": "value",
					"type": "uint256"
				}
			],
			"name": "burnFrom",
			"outputs": [],
			"stateMutability": "nonpayable",
			"type": "function"
		},
		{
			"inputs": [],
			"name": "decimals",
			"outputs": [
				{
					"internalType": "uint8",
					"name": "",
					"type": "uint8"
				}
			],
			"stateMutability": "view",
			"type": "function"
		},
		{
			"inputs": [],
			"name": "eip712Domain",
			"outputs": [
				{
					"internalType": "bytes1",
					"name": "fields",
					"type": "bytes1"
				},
				{
					"internalType": "string",
					"name": "name",
					"type": "string"
				},
				{
					"internalType": "string",
					"name": "version",
					"type": "string"
				},
				{
					"internalType": "uint256",
					"name": "chainId",
					"type": "uint256"
				},
				{
					"internalType": "address",
					"name": "verifyingContract",
					"type": "address"
				},
				{
					"internalType": "bytes32",
					"name": "salt",
					"type": "bytes32"
				},
				{
					"internalType": "uint256[]",
					"name": "extensions",
					"type": "uint256[]"
				}
			],
			"stateMutability": "view",
			"type": "function"
		},
		{
			"inputs": [
				{
					"internalType": "address",
					"name": "account",
					"type": "address"
				}
			],
			"name": "freeze",
			"outputs": [],
			"stateMutability": "nonpayable",
			"type": "function"
		},
		{
			"inputs": [
				{
					"internalType": "uint256",
					"name": "year",
					"type": "uint256"
				}
			],
			"name": "getMiningReward",
			"outputs": [
				{
					"internalType": "uint256",
					"name": "",
					"type": "uint256"
				}
			],
			"stateMutability": "view",
			"type": "function"
		},
		{
			"inputs": [
				{
					"internalType": "bytes32",
					"name": "role",
					"type": "bytes32"
				}
			],
			"name": "getRoleAdmin",
			"outputs": [
				{
					"internalType": "bytes32",
					"name": "",
					"type": "bytes32"
				}
			],
			"stateMutability": "view",
			"type": "function"
		},
		{
			"inputs": [
				{
					"internalType": "bytes32",
					"name": "role",
					"type": "bytes32"
				},
				{
					"internalType": "address",
					"name": "account",
					"type": "address"
				}
			],
			"name": "grantRole",
			"outputs": [],
			"stateMutability": "nonpayable",
			"type": "function"
		},
		{
			"inputs": [
				{
					"internalType": "bytes32",
					"name": "role",
					"type": "bytes32"
				},
				{
					"internalType": "address",
					"name": "account",
					"type": "address"
				}
			],
			"name": "hasRole",
			"outputs": [
				{
					"internalType": "bool",
					"name": "",
					"type": "bool"
				}
			],
			"stateMutability": "view",
			"type": "function"
		},
		{
			"inputs": [],
			"name": "initialSupply",
			"outputs": [
				{
					"internalType": "uint256",
					"name": "",
					"type": "uint256"
				}
			],
			"stateMutability": "view",
			"type": "function"
		},
		{
			"inputs": [],
			"name": "lastMinedAt",
			"outputs": [
				{
					"internalType": "uint256",
					"name": "",
					"type": "uint256"
				}
			],
			"stateMutability": "view",
			"type": "function"
		},
		{
			"inputs": [],
			"name": "lastMiningReward",
			"outputs": [
				{
					"internalType": "uint256",
					"name": "",
					"type": "uint256"
				}
			],
			"stateMutability": "view",
			"type": "function"
		},
		{
			"inputs": [],
			"name": "lastRecordedAt",
			"outputs": [
				{
					"internalType": "uint256",
					"name": "",
					"type": "uint256"
				}
			],
			"stateMutability": "view",
			"type": "function"
		},
		{
			"inputs": [],
			"name": "lastWeb3MakerAIData",
			"outputs": [
				{
					"internalType": "bytes32",
					"name": "",
					"type": "bytes32"
				}
			],
			"stateMutability": "view",
			"type": "function"
		},
		{
			"inputs": [],
			"name": "maxSupply",
			"outputs": [
				{
					"internalType": "uint256",
					"name": "",
					"type": "uint256"
				}
			],
			"stateMutability": "view",
			"type": "function"
		},
		{
			"inputs": [
				{
					"internalType": "uint256",
					"name": "year",
					"type": "uint256"
				}
			],
			"name": "mine",
			"outputs": [],
			"stateMutability": "nonpayable",
			"type": "function"
		},
		{
			"inputs": [
				{
					"internalType": "address[]",
					"name": "recipients",
					"type": "address[]"
				},
				{
					"internalType": "uint256[]",
					"name": "amounts",
					"type": "uint256[]"
				}
			],
			"name": "multiTransfer",
			"outputs": [],
			"stateMutability": "nonpayable",
			"type": "function"
		},
		{
			"inputs": [],
			"name": "name",
			"outputs": [
				{
					"internalType": "string",
					"name": "",
					"type": "string"
				}
			],
			"stateMutability": "view",
			"type": "function"
		},
		{
			"inputs": [
				{
					"internalType": "address",
					"name": "owner",
					"type": "address"
				}
			],
			"name": "nonces",
			"outputs": [
				{
					"internalType": "uint256",
					"name": "",
					"type": "uint256"
				}
			],
			"stateMutability": "view",
			"type": "function"
		},
		{
			"inputs": [],
			"name": "pause",
			"outputs": [],
			"stateMutability": "nonpayable",
			"type": "function"
		},
		{
			"inputs": [],
			"name": "paused",
			"outputs": [
				{
					"internalType": "bool",
					"name": "",
					"type": "bool"
				}
			],
			"stateMutability": "view",
			"type": "function"
		},
		{
			"inputs": [
				{
					"internalType": "address",
					"name": "owner",
					"type": "address"
				},
				{
					"internalType": "address",
					"name": "spender",
					"type": "address"
				},
				{
					"internalType": "uint256",
					"name": "value",
					"type": "uint256"
				},
				{
					"internalType": "uint256",
					"name": "deadline",
					"type": "uint256"
				},
				{
					"internalType": "uint8",
					"name": "v",
					"type": "uint8"
				},
				{
					"internalType": "bytes32",
					"name": "r",
					"type": "bytes32"
				},
				{
					"internalType": "bytes32",
					"name": "s",
					"type": "bytes32"
				}
			],
			"name": "permit",
			"outputs": [],
			"stateMutability": "nonpayable",
			"type": "function"
		},
		{
			"inputs": [
				{
					"internalType": "bytes32",
					"name": "role",
					"type": "bytes32"
				},
				{
					"internalType": "address",
					"name": "callerConfirmation",
					"type": "address"
				}
			],
			"name": "renounceRole",
			"outputs": [],
			"stateMutability": "nonpayable",
			"type": "function"
		},
		{
			"inputs": [
				{
					"internalType": "bytes32",
					"name": "role",
					"type": "bytes32"
				},
				{
					"internalType": "address",
					"name": "account",
					"type": "address"
				}
			],
			"name": "revokeRole",
			"outputs": [],
			"stateMutability": "nonpayable",
			"type": "function"
		},
		{
			"inputs": [
				{
					"internalType": "uint256",
					"name": "year",
					"type": "uint256"
				},
				{
					"internalType": "uint256",
					"name": "reward",
					"type": "uint256"
				}
			],
			"name": "setMiningReward",
			"outputs": [],
			"stateMutability": "nonpayable",
			"type": "function"
		},
		{
			"inputs": [
				{
					"internalType": "address",
					"name": "account",
					"type": "address"
				}
			],
			"name": "setPoolAccount",
			"outputs": [],
			"stateMutability": "nonpayable",
			"type": "function"
		},
		{
			"inputs": [
				{
					"internalType": "bytes32",
					"name": "web3MakerAIData",
					"type": "bytes32"
				}
			],
			"name": "storeWeb3MakerAIData",
			"outputs": [],
			"stateMutability": "nonpayable",
			"type": "function"
		},
		{
			"inputs": [
				{
					"internalType": "bytes4",
					"name": "interfaceId",
					"type": "bytes4"
				}
			],
			"name": "supportsInterface",
			"outputs": [
				{
					"internalType": "bool",
					"name": "",
					"type": "bool"
				}
			],
			"stateMutability": "view",
			"type": "function"
		},
		{
			"inputs": [],
			"name": "symbol",
			"outputs": [
				{
					"internalType": "string",
					"name": "",
					"type": "string"
				}
			],
			"stateMutability": "view",
			"type": "function"
		},
		{
			"inputs": [],
			"name": "totalMiningSupply",
			"outputs": [
				{
					"internalType": "uint256",
					"name": "",
					"type": "uint256"
				}
			],
			"stateMutability": "view",
			"type": "function"
		},
		{
			"inputs": [],
			"name": "totalSupply",
			"outputs": [
				{
					"internalType": "uint256",
					"name": "",
					"type": "uint256"
				}
			],
			"stateMutability": "view",
			"type": "function"
		},
		{
			"inputs": [
				{
					"internalType": "address",
					"name": "to",
					"type": "address"
				},
				{
					"internalType": "uint256",
					"name": "value",
					"type": "uint256"
				}
			],
			"name": "transfer",
			"outputs": [
				{
					"internalType": "bool",
					"name": "",
					"type": "bool"
				}
			],
			"stateMutability": "nonpayable",
			"type": "function"
		},
		{
			"inputs": [
				{
					"internalType": "address",
					"name": "to",
					"type": "address"
				},
				{
					"internalType": "uint256",
					"name": "value",
					"type": "uint256"
				}
			],
			"name": "transferAndCall",
			"outputs": [
				{
					"internalType": "bool",
					"name": "",
					"type": "bool"
				}
			],
			"stateMutability": "nonpayable",
			"type": "function"
		},
		{
			"inputs": [
				{
					"internalType": "address",
					"name": "to",
					"type": "address"
				},
				{
					"internalType": "uint256",
					"name": "value",
					"type": "uint256"
				},
				{
					"internalType": "bytes",
					"name": "data",
					"type": "bytes"
				}
			],
			"name": "transferAndCall",
			"outputs": [
				{
					"internalType": "bool",
					"name": "",
					"type": "bool"
				}
			],
			"stateMutability": "nonpayable",
			"type": "function"
		},
		{
			"inputs": [
				{
					"internalType": "address",
					"name": "from",
					"type": "address"
				},
				{
					"internalType": "address",
					"name": "to",
					"type": "address"
				},
				{
					"internalType": "uint256",
					"name": "value",
					"type": "uint256"
				}
			],
			"name": "transferFrom",
			"outputs": [
				{
					"internalType": "bool",
					"name": "",
					"type": "bool"
				}
			],
			"stateMutability": "nonpayable",
			"type": "function"
		},
		{
			"inputs": [
				{
					"internalType": "address",
					"name": "from",
					"type": "address"
				},
				{
					"internalType": "address",
					"name": "to",
					"type": "address"
				},
				{
					"internalType": "uint256",
					"name": "value",
					"type": "uint256"
				},
				{
					"internalType": "bytes",
					"name": "data",
					"type": "bytes"
				}
			],
			"name": "transferFromAndCall",
			"outputs": [
				{
					"internalType": "bool",
					"name": "",
					"type": "bool"
				}
			],
			"stateMutability": "nonpayable",
			"type": "function"
		},
		{
			"inputs": [
				{
					"internalType": "address",
					"name": "from",
					"type": "address"
				},
				{
					"internalType": "address",
					"name": "to",
					"type": "address"
				},
				{
					"internalType": "uint256",
					"name": "value",
					"type": "uint256"
				}
			],
			"name": "transferFromAndCall",
			"outputs": [
				{
					"internalType": "bool",
					"name": "",
					"type": "bool"
				}
			],
			"stateMutability": "nonpayable",
			"type": "function"
		},
		{
			"inputs": [
				{
					"internalType": "address",
					"name": "account",
					"type": "address"
				}
			],
			"name": "unfreeze",
			"outputs": [],
			"stateMutability": "nonpayable",
			"type": "function"
		},
		{
			"inputs": [],
			"name": "unpause",
			"outputs": [],
			"stateMutability": "nonpayable",
			"type": "function"
		}
	]
}